{
  "_format": "hh-sol-artifact-1",
  "contractName": "InventoryManager",
  "sourceName": "contracts/implementation/InventoryManager.sol",
  "abi": [
    {
      "inputs": [
        {
          "internalType": "address",
          "name": "productManagerAddress",
          "type": "address"
        }
      ],
      "stateMutability": "nonpayable",
      "type": "constructor"
    },
    {
      "inputs": [
        {
          "internalType": "address",
          "name": "owner",
          "type": "address"
        }
      ],
      "name": "OwnableInvalidOwner",
      "type": "error"
    },
    {
      "inputs": [
        {
          "internalType": "address",
          "name": "account",
          "type": "address"
        }
      ],
      "name": "OwnableUnauthorizedAccount",
      "type": "error"
    },
    {
      "anonymous": false,
      "inputs": [
        {
          "indexed": true,
          "internalType": "address",
          "name": "manufacturer",
          "type": "address"
        },
        {
          "indexed": true,
          "internalType": "uint256",
          "name": "lotId",
          "type": "uint256"
        },
        {
          "indexed": false,
          "internalType": "uint256",
          "name": "quantity",
          "type": "uint256"
        }
      ],
      "name": "AddedToManufacturerInventory",
      "type": "event"
    },
    {
      "anonymous": false,
      "inputs": [
        {
          "indexed": true,
          "internalType": "address",
          "name": "previousOwner",
          "type": "address"
        },
        {
          "indexed": true,
          "internalType": "address",
          "name": "newOwner",
          "type": "address"
        }
      ],
      "name": "OwnershipTransferred",
      "type": "event"
    },
    {
      "inputs": [
        {
          "internalType": "address",
          "name": "account",
          "type": "address"
        },
        {
          "internalType": "uint256",
          "name": "lotId",
          "type": "uint256"
        },
        {
          "internalType": "uint256",
          "name": "quantity",
          "type": "uint256"
        }
      ],
      "name": "addToInventory",
      "outputs": [],
      "stateMutability": "nonpayable",
      "type": "function"
    },
    {
      "inputs": [
        {
          "internalType": "uint256",
          "name": "lotId",
          "type": "uint256"
        },
        {
          "internalType": "uint256",
          "name": "quantity",
          "type": "uint256"
        }
      ],
      "name": "addToManufacturerInventory",
      "outputs": [],
      "stateMutability": "nonpayable",
      "type": "function"
    },
    {
      "inputs": [
        {
          "internalType": "address",
          "name": "",
          "type": "address"
        }
      ],
      "name": "authorizedUsers",
      "outputs": [
        {
          "internalType": "bool",
          "name": "",
          "type": "bool"
        }
      ],
      "stateMutability": "view",
      "type": "function"
    },
    {
      "inputs": [
        {
          "internalType": "address",
          "name": "account",
          "type": "address"
        }
      ],
      "name": "getInventory",
      "outputs": [
        {
          "internalType": "uint256[]",
          "name": "lotIds",
          "type": "uint256[]"
        },
        {
          "internalType": "uint256[]",
          "name": "quantities",
          "type": "uint256[]"
        }
      ],
      "stateMutability": "view",
      "type": "function"
    },
    {
      "inputs": [],
      "name": "getMyInventory",
      "outputs": [
        {
          "internalType": "uint256[]",
          "name": "lotIds",
          "type": "uint256[]"
        },
        {
          "internalType": "uint256[]",
          "name": "quantities",
          "type": "uint256[]"
        }
      ],
      "stateMutability": "view",
      "type": "function"
    },
    {
      "inputs": [
        {
          "internalType": "address",
          "name": "account",
          "type": "address"
        },
        {
          "internalType": "uint256[]",
          "name": "lotIds",
          "type": "uint256[]"
        },
        {
          "internalType": "uint256[]",
          "name": "quantities",
          "type": "uint256[]"
        }
      ],
      "name": "hasSufficientInventory",
      "outputs": [],
      "stateMutability": "view",
      "type": "function"
    },
    {
      "inputs": [
        {
          "internalType": "address",
          "name": "",
          "type": "address"
        }
      ],
      "name": "manufacturerUsers",
      "outputs": [
        {
          "internalType": "bool",
          "name": "",
          "type": "bool"
        }
      ],
      "stateMutability": "view",
      "type": "function"
    },
    {
      "inputs": [],
      "name": "owner",
      "outputs": [
        {
          "internalType": "address",
          "name": "",
          "type": "address"
        }
      ],
      "stateMutability": "view",
      "type": "function"
    },
    {
      "inputs": [],
      "name": "productManager",
      "outputs": [
        {
          "internalType": "contract ProductManager",
          "name": "",
          "type": "address"
        }
      ],
      "stateMutability": "view",
      "type": "function"
    },
    {
      "inputs": [
        {
          "internalType": "address",
          "name": "account",
          "type": "address"
        },
        {
          "internalType": "uint256",
          "name": "lotId",
          "type": "uint256"
        },
        {
          "internalType": "uint256",
          "name": "quantity",
          "type": "uint256"
        }
      ],
      "name": "removeFromInventory",
      "outputs": [],
      "stateMutability": "nonpayable",
      "type": "function"
    },
    {
      "inputs": [],
      "name": "renounceOwnership",
      "outputs": [],
      "stateMutability": "nonpayable",
      "type": "function"
    },
    {
      "inputs": [
        {
          "internalType": "address",
          "name": "wallet",
          "type": "address"
        },
        {
          "internalType": "bool",
          "name": "authorized",
          "type": "bool"
        }
      ],
      "name": "setManufacturerAuth",
      "outputs": [],
      "stateMutability": "nonpayable",
      "type": "function"
    },
    {
      "inputs": [
        {
          "internalType": "address",
          "name": "wallet",
          "type": "address"
        },
        {
          "internalType": "bool",
          "name": "authorized",
          "type": "bool"
        }
      ],
      "name": "setUserAuth",
      "outputs": [],
      "stateMutability": "nonpayable",
      "type": "function"
    },
    {
      "inputs": [
        {
          "internalType": "address",
          "name": "newOwner",
          "type": "address"
        }
      ],
      "name": "transferOwnership",
      "outputs": [],
      "stateMutability": "nonpayable",
      "type": "function"
    }
  ],
  "bytecode": "0x608060405234801561001057600080fd5b50604051612a05380380612a0583398181016040528101906100329190610223565b33600073ffffffffffffffffffffffffffffffffffffffff168173ffffffffffffffffffffffffffffffffffffffff16036100a55760006040517f1e4fbdf700000000000000000000000000000000000000000000000000000000815260040161009c919061025f565b60405180910390fd5b6100b4816100fc60201b60201c565b5080600160006101000a81548173ffffffffffffffffffffffffffffffffffffffff021916908373ffffffffffffffffffffffffffffffffffffffff1602179055505061027a565b60008060009054906101000a900473ffffffffffffffffffffffffffffffffffffffff169050816000806101000a81548173ffffffffffffffffffffffffffffffffffffffff021916908373ffffffffffffffffffffffffffffffffffffffff1602179055508173ffffffffffffffffffffffffffffffffffffffff168173ffffffffffffffffffffffffffffffffffffffff167f8be0079c531659141344cd1fd0a4f28419497f9722a3daafe3b4186f6b6457e060405160405180910390a35050565b600080fd5b600073ffffffffffffffffffffffffffffffffffffffff82169050919050565b60006101f0826101c5565b9050919050565b610200816101e5565b811461020b57600080fd5b50565b60008151905061021d816101f7565b92915050565b600060208284031215610239576102386101c0565b5b60006102478482850161020e565b91505092915050565b610259816101e5565b82525050565b60006020820190506102746000830184610250565b92915050565b61277c806102896000396000f3fe608060405234801561001057600080fd5b50600436106100ea5760003560e01c80638da5cb5b1161008c578063d82c6eb611610066578063d82c6eb614610223578063e1a46b551461023f578063f2fde38b1461026f578063f426306f1461028b576100ea565b80638da5cb5b146101cd5780639251f7bd146101eb5780639908124714610207576100ea565b806357f2b3fe116100c857806357f2b3fe1461015a57806360c068b014610176578063715018a6146101925780638b87c5441461019c576100ea565b806315242beb146100ef5780631828983a1461010b57806327457b3b1461013b575b600080fd5b61010960048036038101906101049190611a5d565b6102a9565b005b61012560048036038101906101209190611afb565b610595565b6040516101329190611b43565b60405180910390f35b6101436105b5565b604051610151929190611c1c565b60405180910390f35b610174600480360381019061016f9190611c53565b610747565b005b610190600480360381019061018b9190611c53565b6109e5565b005b61019a610f67565b005b6101b660048036038101906101b19190611afb565b610f7b565b6040516101c4929190611c1c565b60405180910390f35b6101d561119a565b6040516101e29190611cb5565b60405180910390f35b61020560048036038101906102009190611cfc565b6111c3565b005b610221600480360381019061021c9190611da1565b611226565b005b61023d60048036038101906102389190611cfc565b611570565b005b61025960048036038101906102549190611afb565b6115d3565b6040516102669190611b43565b60405180910390f35b61028960048036038101906102849190611afb565b6115f3565b005b610293611679565b6040516102a09190611e95565b60405180910390f35b600360003373ffffffffffffffffffffffffffffffffffffffff1673ffffffffffffffffffffffffffffffffffffffff16815260200190815260200160002060009054906101000a900460ff16610335576040517f08c379a000000000000000000000000000000000000000000000000000000000815260040161032c90611f33565b60405180910390fd5b6000600160009054906101000a900473ffffffffffffffffffffffffffffffffffffffff1673ffffffffffffffffffffffffffffffffffffffff1663ab995d12846040518263ffffffff1660e01b81526004016103929190611f62565b600060405180830381865afa1580156103af573d6000803e3d6000fd5b505050506040513d6000823e3d601f19601f820116820180604052508101906103d8919061218c565b602001510361041c576040517f08c379a000000000000000000000000000000000000000000000000000000000815260040161041390612221565b60405180910390fd5b6000600460003373ffffffffffffffffffffffffffffffffffffffff1673ffffffffffffffffffffffffffffffffffffffff168152602001908152602001600020600084815260200190815260200160002054036104db57600560003373ffffffffffffffffffffffffffffffffffffffff1673ffffffffffffffffffffffffffffffffffffffff1681526020019081526020016000208290806001815401808255809150506001900390600052602060002001600090919091909150555b80600460003373ffffffffffffffffffffffffffffffffffffffff1673ffffffffffffffffffffffffffffffffffffffff1681526020019081526020016000206000848152602001908152602001600020600082825461053b9190612270565b92505081905550813373ffffffffffffffffffffffffffffffffffffffff167f05aeb47ba2543aeaa51d0fa38b63a7ea6130827f507bb6733b542a2b7e4e118e836040516105899190611f62565b60405180910390a35050565b60026020528060005260406000206000915054906101000a900460ff1681565b6060806000600560003373ffffffffffffffffffffffffffffffffffffffff1673ffffffffffffffffffffffffffffffffffffffff16815260200190815260200160002080548060200260200160405190810160405280929190818152602001828054801561064357602002820191906000526020600020905b81548152602001906001019080831161062f575b505050505090506000815190508067ffffffffffffffff81111561066a57610669611f93565b5b6040519080825280602002602001820160405280156106985781602001602082028036833780820191505090505b50925060005b8181101561073d57600460003373ffffffffffffffffffffffffffffffffffffffff1673ffffffffffffffffffffffffffffffffffffffff16815260200190815260200160002060008483815181106106fa576106f96122a4565b5b6020026020010151815260200190815260200160002054848281518110610724576107236122a4565b5b602002602001018181525050808060010191505061069e565b5081935050509091565b600260003373ffffffffffffffffffffffffffffffffffffffff1673ffffffffffffffffffffffffffffffffffffffff16815260200190815260200160002060009054906101000a900460ff166107d3576040517f08c379a00000000000000000000000000000000000000000000000000000000081526004016107ca90612345565b60405180910390fd5b6000600160009054906101000a900473ffffffffffffffffffffffffffffffffffffffff1673ffffffffffffffffffffffffffffffffffffffff1663ab995d12846040518263ffffffff1660e01b81526004016108309190611f62565b600060405180830381865afa15801561084d573d6000803e3d6000fd5b505050506040513d6000823e3d601f19601f82011682018060405250810190610876919061218c565b60200151036108ba576040517f08c379a00000000000000000000000000000000000000000000000000000000081526004016108b190612221565b60405180910390fd5b6000600460008573ffffffffffffffffffffffffffffffffffffffff1673ffffffffffffffffffffffffffffffffffffffff1681526020019081526020016000206000848152602001908152602001600020540361097957600560008473ffffffffffffffffffffffffffffffffffffffff1673ffffffffffffffffffffffffffffffffffffffff1681526020019081526020016000208290806001815401808255809150506001900390600052602060002001600090919091909150555b80600460008573ffffffffffffffffffffffffffffffffffffffff1673ffffffffffffffffffffffffffffffffffffffff168152602001908152602001600020600084815260200190815260200160002060008282546109d99190612270565b92505081905550505050565b600260003373ffffffffffffffffffffffffffffffffffffffff1673ffffffffffffffffffffffffffffffffffffffff16815260200190815260200160002060009054906101000a900460ff16610a71576040517f08c379a0000000000000000000000000000000000000000000000000000000008152600401610a6890612345565b60405180910390fd5b6000600160009054906101000a900473ffffffffffffffffffffffffffffffffffffffff1673ffffffffffffffffffffffffffffffffffffffff1663ab995d12846040518263ffffffff1660e01b8152600401610ace9190611f62565b600060405180830381865afa158015610aeb573d6000803e3d6000fd5b505050506040513d6000823e3d601f19601f82011682018060405250810190610b14919061218c565b6020015103610b58576040517f08c379a0000000000000000000000000000000000000000000000000000000008152600401610b4f90612221565b60405180910390fd5b80600460008573ffffffffffffffffffffffffffffffffffffffff1673ffffffffffffffffffffffffffffffffffffffff1681526020019081526020016000206000848152602001908152602001600020541015610bb58261169f565b610c0e600460008773ffffffffffffffffffffffffffffffffffffffff1673ffffffffffffffffffffffffffffffffffffffff16815260200190815260200160002060008681526020019081526020016000205461169f565b604051602001610c1f92919061246a565b60405160208183030381529060405290610c6f576040517f08c379a0000000000000000000000000000000000000000000000000000000008152600401610c6691906124f0565b60405180910390fd5b5080600460008573ffffffffffffffffffffffffffffffffffffffff1673ffffffffffffffffffffffffffffffffffffffff16815260200190815260200160002060008481526020019081526020016000206000828254610cd09190612512565b925050819055506000600460008573ffffffffffffffffffffffffffffffffffffffff1673ffffffffffffffffffffffffffffffffffffffff16815260200190815260200160002060008481526020019081526020016000205403610f615760005b600560008573ffffffffffffffffffffffffffffffffffffffff1673ffffffffffffffffffffffffffffffffffffffff16815260200190815260200160002080549050811015610f5f5782600560008673ffffffffffffffffffffffffffffffffffffffff1673ffffffffffffffffffffffffffffffffffffffff1681526020019081526020016000208281548110610dce57610dcd6122a4565b5b906000526020600020015403610f5257600560008573ffffffffffffffffffffffffffffffffffffffff1673ffffffffffffffffffffffffffffffffffffffff1681526020019081526020016000206001600560008773ffffffffffffffffffffffffffffffffffffffff1673ffffffffffffffffffffffffffffffffffffffff16815260200190815260200160002080549050610e6c9190612512565b81548110610e7d57610e7c6122a4565b5b9060005260206000200154600560008673ffffffffffffffffffffffffffffffffffffffff1673ffffffffffffffffffffffffffffffffffffffff1681526020019081526020016000208281548110610ed957610ed86122a4565b5b9060005260206000200181905550600560008573ffffffffffffffffffffffffffffffffffffffff1673ffffffffffffffffffffffffffffffffffffffff168152602001908152602001600020805480610f3657610f35612546565b5b6001900381819060005260206000200160009055905550610f62565b8080600101915050610d32565b505b5b505050565b610f6f61176d565b610f7960006117f4565b565b606080600260003373ffffffffffffffffffffffffffffffffffffffff1673ffffffffffffffffffffffffffffffffffffffff16815260200190815260200160002060009054906101000a900460ff1661100a576040517f08c379a000000000000000000000000000000000000000000000000000000000815260040161100190612345565b60405180910390fd5b6000600560008573ffffffffffffffffffffffffffffffffffffffff1673ffffffffffffffffffffffffffffffffffffffff16815260200190815260200160002080548060200260200160405190810160405280929190818152602001828054801561109557602002820191906000526020600020905b815481526020019060010190808311611081575b505050505090506000815190508067ffffffffffffffff8111156110bc576110bb611f93565b5b6040519080825280602002602001820160405280156110ea5781602001602082028036833780820191505090505b50925060005b8181101561118f57600460008773ffffffffffffffffffffffffffffffffffffffff1673ffffffffffffffffffffffffffffffffffffffff168152602001908152602001600020600084838151811061114c5761114b6122a4565b5b6020026020010151815260200190815260200160002054848281518110611176576111756122a4565b5b60200260200101818152505080806001019150506110f0565b508193505050915091565b60008060009054906101000a900473ffffffffffffffffffffffffffffffffffffffff16905090565b6111cb61176d565b80600360008473ffffffffffffffffffffffffffffffffffffffff1673ffffffffffffffffffffffffffffffffffffffff16815260200190815260200160002060006101000a81548160ff0219169083151502179055505050565b81819050848490501461126e576040517f08c379a0000000000000000000000000000000000000000000000000000000008152600401611265906125c1565b60405180910390fd5b60005b84849050811015611568576000600160009054906101000a900473ffffffffffffffffffffffffffffffffffffffff1673ffffffffffffffffffffffffffffffffffffffff1663ab995d128787858181106112cf576112ce6122a4565b5b905060200201356040518263ffffffff1660e01b81526004016112f29190611f62565b600060405180830381865afa15801561130f573d6000803e3d6000fd5b505050506040513d6000823e3d601f19601f82011682018060405250810190611338919061218c565b60200151036113be57611363858583818110611357576113566122a4565b5b9050602002013561169f565b604051602001611373919061262d565b6040516020818303038152906040526040517f08c379a00000000000000000000000000000000000000000000000000000000081526004016113b591906124f0565b60405180910390fd5b8282828181106113d1576113d06122a4565b5b90506020020135600460008873ffffffffffffffffffffffffffffffffffffffff1673ffffffffffffffffffffffffffffffffffffffff168152602001908152602001600020600087878581811061142c5761142b6122a4565b5b90506020020135815260200190815260200160002054101561155b5761146a85858381811061145e5761145d6122a4565b5b9050602002013561169f565b61148c8484848181106114805761147f6122a4565b5b9050602002013561169f565b6114fe600460008a73ffffffffffffffffffffffffffffffffffffffff1673ffffffffffffffffffffffffffffffffffffffff16815260200190815260200160002060008989878181106114e3576114e26122a4565b5b9050602002013581526020019081526020016000205461169f565b604051602001611510939291906126ae565b6040516020818303038152906040526040517f08c379a000000000000000000000000000000000000000000000000000000000815260040161155291906124f0565b60405180910390fd5b8080600101915050611271565b505050505050565b61157861176d565b80600260008473ffffffffffffffffffffffffffffffffffffffff1673ffffffffffffffffffffffffffffffffffffffff16815260200190815260200160002060006101000a81548160ff0219169083151502179055505050565b60036020528060005260406000206000915054906101000a900460ff1681565b6115fb61176d565b600073ffffffffffffffffffffffffffffffffffffffff168173ffffffffffffffffffffffffffffffffffffffff160361166d5760006040517f1e4fbdf70000000000000000000000000000000000000000000000000000000081526004016116649190611cb5565b60405180910390fd5b611676816117f4565b50565b600160009054906101000a900473ffffffffffffffffffffffffffffffffffffffff1681565b6060600060016116ae846118b8565b01905060008167ffffffffffffffff8111156116cd576116cc611f93565b5b6040519080825280601f01601f1916602001820160405280156116ff5781602001600182028036833780820191505090505b509050600082602001820190505b600115611762578080600190039150507f3031323334353637383961626364656600000000000000000000000000000000600a86061a8153600a858161175657611755612717565b5b0494506000850361170d575b819350505050919050565b611775611a0b565b73ffffffffffffffffffffffffffffffffffffffff1661179361119a565b73ffffffffffffffffffffffffffffffffffffffff16146117f2576117b6611a0b565b6040517f118cdaa70000000000000000000000000000000000000000000000000000000081526004016117e99190611cb5565b60405180910390fd5b565b60008060009054906101000a900473ffffffffffffffffffffffffffffffffffffffff169050816000806101000a81548173ffffffffffffffffffffffffffffffffffffffff021916908373ffffffffffffffffffffffffffffffffffffffff1602179055508173ffffffffffffffffffffffffffffffffffffffff168173ffffffffffffffffffffffffffffffffffffffff167f8be0079c531659141344cd1fd0a4f28419497f9722a3daafe3b4186f6b6457e060405160405180910390a35050565b600080600090507a184f03e93ff9f4daa797ed6e38ed64bf6a1f0100000000000000008310611916577a184f03e93ff9f4daa797ed6e38ed64bf6a1f010000000000000000838161190c5761190b612717565b5b0492506040810190505b6d04ee2d6d415b85acef81000000008310611953576d04ee2d6d415b85acef8100000000838161194957611948612717565b5b0492506020810190505b662386f26fc10000831061198257662386f26fc10000838161197857611977612717565b5b0492506010810190505b6305f5e10083106119ab576305f5e10083816119a1576119a0612717565b5b0492506008810190505b61271083106119d05761271083816119c6576119c5612717565b5b0492506004810190505b606483106119f357606483816119e9576119e8612717565b5b0492506002810190505b600a8310611a02576001810190505b80915050919050565b600033905090565b6000604051905090565b600080fd5b600080fd5b6000819050919050565b611a3a81611a27565b8114611a4557600080fd5b50565b600081359050611a5781611a31565b92915050565b60008060408385031215611a7457611a73611a1d565b5b6000611a8285828601611a48565b9250506020611a9385828601611a48565b9150509250929050565b600073ffffffffffffffffffffffffffffffffffffffff82169050919050565b6000611ac882611a9d565b9050919050565b611ad881611abd565b8114611ae357600080fd5b50565b600081359050611af581611acf565b92915050565b600060208284031215611b1157611b10611a1d565b5b6000611b1f84828501611ae6565b91505092915050565b60008115159050919050565b611b3d81611b28565b82525050565b6000602082019050611b586000830184611b34565b92915050565b600081519050919050565b600082825260208201905092915050565b6000819050602082019050919050565b611b9381611a27565b82525050565b6000611ba58383611b8a565b60208301905092915050565b6000602082019050919050565b6000611bc982611b5e565b611bd38185611b69565b9350611bde83611b7a565b8060005b83811015611c0f578151611bf68882611b99565b9750611c0183611bb1565b925050600181019050611be2565b5085935050505092915050565b60006040820190508181036000830152611c368185611bbe565b90508181036020830152611c4a8184611bbe565b90509392505050565b600080600060608486031215611c6c57611c6b611a1d565b5b6000611c7a86828701611ae6565b9350506020611c8b86828701611a48565b9250506040611c9c86828701611a48565b9150509250925092565b611caf81611abd565b82525050565b6000602082019050611cca6000830184611ca6565b92915050565b611cd981611b28565b8114611ce457600080fd5b50565b600081359050611cf681611cd0565b92915050565b60008060408385031215611d1357611d12611a1d565b5b6000611d2185828601611ae6565b9250506020611d3285828601611ce7565b9150509250929050565b600080fd5b600080fd5b600080fd5b60008083601f840112611d6157611d60611d3c565b5b8235905067ffffffffffffffff811115611d7e57611d7d611d41565b5b602083019150836020820283011115611d9a57611d99611d46565b5b9250929050565b600080600080600060608688031215611dbd57611dbc611a1d565b5b6000611dcb88828901611ae6565b955050602086013567ffffffffffffffff811115611dec57611deb611a22565b5b611df888828901611d4b565b9450945050604086013567ffffffffffffffff811115611e1b57611e1a611a22565b5b611e2788828901611d4b565b92509250509295509295909350565b6000819050919050565b6000611e5b611e56611e5184611a9d565b611e36565b611a9d565b9050919050565b6000611e6d82611e40565b9050919050565b6000611e7f82611e62565b9050919050565b611e8f81611e74565b82525050565b6000602082019050611eaa6000830184611e86565b92915050565b600082825260208201905092915050565b7f4f6e6c7920746865206d616e75666163747572657220697320616c6c6f77656460008201527f20746f2075736520746869732066756e6374696f6e0000000000000000000000602082015250565b6000611f1d603583611eb0565b9150611f2882611ec1565b604082019050919050565b60006020820190508181036000830152611f4c81611f10565b9050919050565b611f5c81611a27565b82525050565b6000602082019050611f776000830184611f53565b92915050565b600080fd5b6000601f19601f8301169050919050565b7f4e487b7100000000000000000000000000000000000000000000000000000000600052604160045260246000fd5b611fcb82611f82565b810181811067ffffffffffffffff82111715611fea57611fe9611f93565b5b80604052505050565b6000611ffd611a13565b90506120098282611fc2565b919050565b600080fd5b600080fd5b600067ffffffffffffffff82111561203357612032611f93565b5b61203c82611f82565b9050602081019050919050565b60005b8381101561206757808201518184015260208101905061204c565b60008484015250505050565b600061208661208184612018565b611ff3565b9050828152602081018484840111156120a2576120a1612013565b5b6120ad848285612049565b509392505050565b600082601f8301126120ca576120c9611d3c565b5b81516120da848260208601612073565b91505092915050565b6000815190506120f281611a31565b92915050565b60006080828403121561210e5761210d611f7d565b5b6121186080611ff3565b9050600082015167ffffffffffffffff8111156121385761213761200e565b5b612144848285016120b5565b6000830152506020612158848285016120e3565b602083015250604061216c848285016120e3565b6040830152506060612180848285016120e3565b60608301525092915050565b6000602082840312156121a2576121a1611a1d565b5b600082015167ffffffffffffffff8111156121c0576121bf611a22565b5b6121cc848285016120f8565b91505092915050565b7f4c6f7420646f65736e2774206578697374730000000000000000000000000000600082015250565b600061220b601283611eb0565b9150612216826121d5565b602082019050919050565b6000602082019050818103600083015261223a816121fe565b9050919050565b7f4e487b7100000000000000000000000000000000000000000000000000000000600052601160045260246000fd5b600061227b82611a27565b915061228683611a27565b925082820190508082111561229e5761229d612241565b5b92915050565b7f4e487b7100000000000000000000000000000000000000000000000000000000600052603260045260246000fd5b7f4e6f7420617574686f72697a656420746f2075736520746869732066756e637460008201527f696f6e0000000000000000000000000000000000000000000000000000000000602082015250565b600061232f602383611eb0565b915061233a826122d3565b604082019050919050565b6000602082019050818103600083015261235e81612322565b9050919050565b7f5175616e74697479202800000000000000000000000000000000000000000000815250565b600081519050919050565b600081905092915050565b60006123ac8261238b565b6123b68185612396565b93506123c6818560208601612049565b80840191505092915050565b7f2920697320626967676572207468616e2074686520616d6f756e7420696e206960008201527f6e76656e746f7279202800000000000000000000000000000000000000000000602082015250565b600061242e602a83612396565b9150612439826123d2565b602a82019050919050565b7f2900000000000000000000000000000000000000000000000000000000000000815250565b600061247582612365565b600a8201915061248582856123a1565b915061249082612421565b915061249c82846123a1565b91506124a782612444565b6001820191508190509392505050565b60006124c28261238b565b6124cc8185611eb0565b93506124dc818560208601612049565b6124e581611f82565b840191505092915050565b6000602082019050818103600083015261250a81846124b7565b905092915050565b600061251d82611a27565b915061252883611a27565b92508282039050818111156125405761253f612241565b5b92915050565b7f4e487b7100000000000000000000000000000000000000000000000000000000600052603160045260246000fd5b7f4172726179732073697a65206d757374206d6174636800000000000000000000600082015250565b60006125ab601683611eb0565b91506125b682612575565b602082019050919050565b600060208201905081810360008301526125da8161259e565b9050919050565b7f4c6f742000000000000000000000000000000000000000000000000000000000815250565b7f20646f65736e2774206578697374000000000000000000000000000000000000815250565b6000612638826125e1565b60048201915061264882846123a1565b915061265382612607565b600e8201915081905092915050565b7f5175616e7469747920666f72206c6f7420000000000000000000000000000000815250565b7f2800000000000000000000000000000000000000000000000000000000000000815250565b60006126b982612662565b6011820191506126c982866123a1565b91506126d482612688565b6001820191506126e482856123a1565b91506126ef82612421565b91506126fb82846123a1565b915061270682612444565b600182019150819050949350505050565b7f4e487b7100000000000000000000000000000000000000000000000000000000600052601260045260246000fdfea26469706673582212209de756520e7feb5377d2bd448e4fdecffb9f76658c2c070af52bce19d711dbb364736f6c634300081e0033",
  "linkReferences": {},
  "deployedLinkReferences": {}
}