{
  "_format": "hh-sol-artifact-1",
  "contractName": "ProductManager",
  "sourceName": "contracts/implementation/ProductManager.sol",
  "abi": [
    {
      "inputs": [],
      "stateMutability": "nonpayable",
      "type": "constructor"
    },
    {
      "inputs": [
        {
          "internalType": "address",
          "name": "owner",
          "type": "address"
        }
      ],
      "name": "OwnableInvalidOwner",
      "type": "error"
    },
    {
      "inputs": [
        {
          "internalType": "address",
          "name": "account",
          "type": "address"
        }
      ],
      "name": "OwnableUnauthorizedAccount",
      "type": "error"
    },
    {
      "anonymous": false,
      "inputs": [
        {
          "indexed": true,
          "internalType": "uint256",
          "name": "lotId",
          "type": "uint256"
        },
        {
          "indexed": true,
          "internalType": "uint256",
          "name": "productId",
          "type": "uint256"
        },
        {
          "components": [
            {
              "internalType": "string",
              "name": "expirationDate",
              "type": "string"
            },
            {
              "internalType": "uint256",
              "name": "totalQuantity",
              "type": "uint256"
            },
            {
              "internalType": "uint256",
              "name": "unitPrice",
              "type": "uint256"
            },
            {
              "internalType": "uint256",
              "name": "productId",
              "type": "uint256"
            }
          ],
          "indexed": false,
          "internalType": "struct ProductManager.LotDetails",
          "name": "lotdetails",
          "type": "tuple"
        }
      ],
      "name": "LotCreated",
      "type": "event"
    },
    {
      "anonymous": false,
      "inputs": [
        {
          "indexed": true,
          "internalType": "uint256",
          "name": "lotId",
          "type": "uint256"
        }
      ],
      "name": "LotRemoved",
      "type": "event"
    },
    {
      "anonymous": false,
      "inputs": [
        {
          "indexed": true,
          "internalType": "address",
          "name": "previousOwner",
          "type": "address"
        },
        {
          "indexed": true,
          "internalType": "address",
          "name": "newOwner",
          "type": "address"
        }
      ],
      "name": "OwnershipTransferred",
      "type": "event"
    },
    {
      "anonymous": false,
      "inputs": [
        {
          "indexed": true,
          "internalType": "uint256",
          "name": "productId",
          "type": "uint256"
        },
        {
          "components": [
            {
              "internalType": "string",
              "name": "productIdentification",
              "type": "string"
            },
            {
              "internalType": "string",
              "name": "materials",
              "type": "string"
            }
          ],
          "indexed": false,
          "internalType": "struct ProductManager.DPP",
          "name": "dpp",
          "type": "tuple"
        }
      ],
      "name": "ProductCreated",
      "type": "event"
    },
    {
      "anonymous": false,
      "inputs": [
        {
          "indexed": true,
          "internalType": "uint256",
          "name": "productId",
          "type": "uint256"
        }
      ],
      "name": "ProductRemoved",
      "type": "event"
    },
    {
      "inputs": [
        {
          "internalType": "address",
          "name": "",
          "type": "address"
        }
      ],
      "name": "authorizedUsers",
      "outputs": [
        {
          "internalType": "bool",
          "name": "",
          "type": "bool"
        }
      ],
      "stateMutability": "view",
      "type": "function"
    },
    {
      "inputs": [
        {
          "internalType": "uint256",
          "name": "lotId",
          "type": "uint256"
        },
        {
          "components": [
            {
              "internalType": "string",
              "name": "expirationDate",
              "type": "string"
            },
            {
              "internalType": "uint256",
              "name": "totalQuantity",
              "type": "uint256"
            },
            {
              "internalType": "uint256",
              "name": "unitPrice",
              "type": "uint256"
            },
            {
              "internalType": "uint256",
              "name": "productId",
              "type": "uint256"
            }
          ],
          "internalType": "struct ProductManager.LotDetails",
          "name": "lotDetails",
          "type": "tuple"
        }
      ],
      "name": "createLot",
      "outputs": [],
      "stateMutability": "nonpayable",
      "type": "function"
    },
    {
      "inputs": [
        {
          "internalType": "uint256",
          "name": "productId",
          "type": "uint256"
        },
        {
          "components": [
            {
              "internalType": "string",
              "name": "productIdentification",
              "type": "string"
            },
            {
              "internalType": "string",
              "name": "materials",
              "type": "string"
            }
          ],
          "internalType": "struct ProductManager.DPP",
          "name": "dpp",
          "type": "tuple"
        }
      ],
      "name": "createProduct",
      "outputs": [],
      "stateMutability": "nonpayable",
      "type": "function"
    },
    {
      "inputs": [],
      "name": "getAllLots",
      "outputs": [
        {
          "internalType": "uint256[]",
          "name": "",
          "type": "uint256[]"
        },
        {
          "components": [
            {
              "internalType": "string",
              "name": "expirationDate",
              "type": "string"
            },
            {
              "internalType": "uint256",
              "name": "totalQuantity",
              "type": "uint256"
            },
            {
              "internalType": "uint256",
              "name": "unitPrice",
              "type": "uint256"
            },
            {
              "internalType": "uint256",
              "name": "productId",
              "type": "uint256"
            }
          ],
          "internalType": "struct ProductManager.LotDetails[]",
          "name": "",
          "type": "tuple[]"
        }
      ],
      "stateMutability": "view",
      "type": "function"
    },
    {
      "inputs": [],
      "name": "getAllProducts",
      "outputs": [
        {
          "internalType": "uint256[]",
          "name": "",
          "type": "uint256[]"
        },
        {
          "components": [
            {
              "internalType": "string",
              "name": "productIdentification",
              "type": "string"
            },
            {
              "internalType": "string",
              "name": "materials",
              "type": "string"
            }
          ],
          "internalType": "struct ProductManager.DPP[]",
          "name": "",
          "type": "tuple[]"
        }
      ],
      "stateMutability": "view",
      "type": "function"
    },
    {
      "inputs": [
        {
          "internalType": "uint256",
          "name": "lotId",
          "type": "uint256"
        }
      ],
      "name": "getLot",
      "outputs": [
        {
          "components": [
            {
              "internalType": "string",
              "name": "expirationDate",
              "type": "string"
            },
            {
              "internalType": "uint256",
              "name": "totalQuantity",
              "type": "uint256"
            },
            {
              "internalType": "uint256",
              "name": "unitPrice",
              "type": "uint256"
            },
            {
              "internalType": "uint256",
              "name": "productId",
              "type": "uint256"
            }
          ],
          "internalType": "struct ProductManager.LotDetails",
          "name": "",
          "type": "tuple"
        }
      ],
      "stateMutability": "view",
      "type": "function"
    },
    {
      "inputs": [
        {
          "internalType": "uint256",
          "name": "productId",
          "type": "uint256"
        }
      ],
      "name": "getProduct",
      "outputs": [
        {
          "components": [
            {
              "internalType": "string",
              "name": "productIdentification",
              "type": "string"
            },
            {
              "internalType": "string",
              "name": "materials",
              "type": "string"
            }
          ],
          "internalType": "struct ProductManager.DPP",
          "name": "",
          "type": "tuple"
        }
      ],
      "stateMutability": "view",
      "type": "function"
    },
    {
      "inputs": [
        {
          "internalType": "uint256",
          "name": "",
          "type": "uint256"
        }
      ],
      "name": "lots",
      "outputs": [
        {
          "internalType": "string",
          "name": "expirationDate",
          "type": "string"
        },
        {
          "internalType": "uint256",
          "name": "totalQuantity",
          "type": "uint256"
        },
        {
          "internalType": "uint256",
          "name": "unitPrice",
          "type": "uint256"
        },
        {
          "internalType": "uint256",
          "name": "productId",
          "type": "uint256"
        }
      ],
      "stateMutability": "view",
      "type": "function"
    },
    {
      "inputs": [
        {
          "internalType": "uint256",
          "name": "",
          "type": "uint256"
        }
      ],
      "name": "lotsIds",
      "outputs": [
        {
          "internalType": "uint256",
          "name": "",
          "type": "uint256"
        }
      ],
      "stateMutability": "view",
      "type": "function"
    },
    {
      "inputs": [],
      "name": "owner",
      "outputs": [
        {
          "internalType": "address",
          "name": "",
          "type": "address"
        }
      ],
      "stateMutability": "view",
      "type": "function"
    },
    {
      "inputs": [
        {
          "internalType": "uint256",
          "name": "",
          "type": "uint256"
        }
      ],
      "name": "products",
      "outputs": [
        {
          "internalType": "string",
          "name": "productIdentification",
          "type": "string"
        },
        {
          "internalType": "string",
          "name": "materials",
          "type": "string"
        }
      ],
      "stateMutability": "view",
      "type": "function"
    },
    {
      "inputs": [
        {
          "internalType": "uint256",
          "name": "",
          "type": "uint256"
        }
      ],
      "name": "productsIds",
      "outputs": [
        {
          "internalType": "uint256",
          "name": "",
          "type": "uint256"
        }
      ],
      "stateMutability": "view",
      "type": "function"
    },
    {
      "inputs": [
        {
          "internalType": "uint256",
          "name": "lotId",
          "type": "uint256"
        }
      ],
      "name": "removeLot",
      "outputs": [],
      "stateMutability": "nonpayable",
      "type": "function"
    },
    {
      "inputs": [
        {
          "internalType": "uint256",
          "name": "productId",
          "type": "uint256"
        }
      ],
      "name": "removeProduct",
      "outputs": [],
      "stateMutability": "nonpayable",
      "type": "function"
    },
    {
      "inputs": [],
      "name": "renounceOwnership",
      "outputs": [],
      "stateMutability": "nonpayable",
      "type": "function"
    },
    {
      "inputs": [
        {
          "internalType": "address",
          "name": "wallet",
          "type": "address"
        },
        {
          "internalType": "bool",
          "name": "authorized",
          "type": "bool"
        }
      ],
      "name": "setUserAuth",
      "outputs": [],
      "stateMutability": "nonpayable",
      "type": "function"
    },
    {
      "inputs": [
        {
          "internalType": "address",
          "name": "newOwner",
          "type": "address"
        }
      ],
      "name": "transferOwnership",
      "outputs": [],
      "stateMutability": "nonpayable",
      "type": "function"
    }
  ],
  "bytecode": "0x608060405234801561001057600080fd5b5033600073ffffffffffffffffffffffffffffffffffffffff168173ffffffffffffffffffffffffffffffffffffffff16036100845760006040517f1e4fbdf700000000000000000000000000000000000000000000000000000000815260040161007b919061019e565b60405180910390fd5b6100938161009960201b60201c565b506101b9565b60008060009054906101000a900473ffffffffffffffffffffffffffffffffffffffff169050816000806101000a81548173ffffffffffffffffffffffffffffffffffffffff021916908373ffffffffffffffffffffffffffffffffffffffff1602179055508173ffffffffffffffffffffffffffffffffffffffff168173ffffffffffffffffffffffffffffffffffffffff167f8be0079c531659141344cd1fd0a4f28419497f9722a3daafe3b4186f6b6457e060405160405180910390a35050565b600073ffffffffffffffffffffffffffffffffffffffff82169050919050565b60006101888261015d565b9050919050565b6101988161017d565b82525050565b60006020820190506101b3600083018461018f565b92915050565b612ae7806101c86000396000f3fe608060405234801561001057600080fd5b506004361061010b5760003560e01c80638e3bea6f116100a2578063ba8cb8c411610071578063ba8cb8c4146102cf578063c126b14b146102eb578063d82c6eb614610307578063f1648e8414610323578063f2fde38b146103565761010b565b80638e3bea6f14610220578063ab995d121461023f578063af9e2b0d1461026f578063b9db15b41461029f5761010b565b8063712611dd116100de578063712611dd14610197578063715018a6146101c75780637acc0b20146101d15780638da5cb5b146102025761010b565b806302ee3a52146101105780631828983a1461012f5780635a4cbe511461015f5780635ee95cae1461017b575b600080fd5b610118610372565b6040516101269291906119bc565b60405180910390f35b61014960048036038101906101449190611a5b565b6105cc565b6040516101569190611aa3565b60405180910390f35b61017960048036038101906101749190611aea565b6105ec565b005b61019560048036038101906101909190611aea565b6107e4565b005b6101b160048036038101906101ac9190611aea565b6109d4565b6040516101be9190611b26565b60405180910390f35b6101cf6109f8565b005b6101eb60048036038101906101e69190611aea565b610a0c565b6040516101f9929190611b8b565b60405180910390f35b61020a610b40565b6040516102179190611bd1565b60405180910390f35b610228610b69565b604051610236929190611d11565b60405180910390f35b61025960048036038101906102549190611aea565b610d4f565b6040516102669190611dab565b60405180910390f35b61028960048036038101906102849190611aea565b610e91565b6040516102969190611b26565b60405180910390f35b6102b960048036038101906102b49190611aea565b610eb5565b6040516102c69190611e11565b60405180910390f35b6102e960048036038101906102e49190611e57565b61106b565b005b61030560048036038101906103009190611ed2565b6111e4565b005b610321600480360381019061031c9190611f5a565b6113cb565b005b61033d60048036038101906103389190611aea565b61142e565b60405161034d9493929190611f9a565b60405180910390f35b610370600480360381019061036b9190611a5b565b6114e6565b005b606080600060038054905067ffffffffffffffff81111561039657610395611fe6565b5b6040519080825280602002602001820160405280156103cf57816020015b6103bc6116bf565b8152602001906001900390816103b45790505b50905060005b60038054905081101561056d5760026000600383815481106103fa576103f9612015565b5b9060005260206000200154815260200190815260200160002060405180604001604052908160008201805461042e90612073565b80601f016020809104026020016040519081016040528092919081815260200182805461045a90612073565b80156104a75780601f1061047c576101008083540402835291602001916104a7565b820191906000526020600020905b81548152906001019060200180831161048a57829003601f168201915b505050505081526020016001820180546104c090612073565b80601f01602080910402602001604051908101604052809291908181526020018280546104ec90612073565b80156105395780601f1061050e57610100808354040283529160200191610539565b820191906000526020600020905b81548152906001019060200180831161051c57829003601f168201915b50505050508152505082828151811061055557610554612015565b5b602002602001018190525080806001019150506103d5565b50600381818054806020026020016040519081016040528092919081815260200182805480156105bc57602002820191906000526020600020905b8154815260200190600101908083116105a8575b5050505050915092509250509091565b60016020528060005260406000206000915054906101000a900460ff1681565b600160003373ffffffffffffffffffffffffffffffffffffffff1673ffffffffffffffffffffffffffffffffffffffff16815260200190815260200160002060009054906101000a900460ff16610678576040517f08c379a000000000000000000000000000000000000000000000000000000000815260040161066f90612116565b60405180910390fd5b600460008281526020019081526020016000206000808201600061069c91906116d9565b600182016000905560028201600090556003820160009055505060005b6005805490508110156107a55781600582815481106106db576106da612015565b5b90600052602060002001540361079857600560016005805490506106ff9190612165565b815481106107105761070f612015565b5b90600052602060002001546005828154811061072f5761072e612015565b5b9060005260206000200181905550600580548061074f5761074e612199565b5b60019003818190600052602060002001600090559055817f50ff6c8267104354ffd393edb06d421ec439784c4a2c0595e11e5fb6b1ecbf4360405160405180910390a2506107e1565b80806001019150506106b9565b506040517f08c379a00000000000000000000000000000000000000000000000000000000081526004016107d890612214565b60405180910390fd5b50565b600160003373ffffffffffffffffffffffffffffffffffffffff1673ffffffffffffffffffffffffffffffffffffffff16815260200190815260200160002060009054906101000a900460ff16610870576040517f08c379a000000000000000000000000000000000000000000000000000000000815260040161086790612116565b60405180910390fd5b600260008281526020019081526020016000206000808201600061089491906116d9565b6001820160006108a491906116d9565b505060005b6003805490508110156109955781600382815481106108cb576108ca612015565b5b90600052602060002001540361098857600360016003805490506108ef9190612165565b81548110610900576108ff612015565b5b90600052602060002001546003828154811061091f5761091e612015565b5b9060005260206000200181905550600380548061093f5761093e612199565b5b60019003818190600052602060002001600090559055817f07015631cff457b5b13492c2045e70c6305a0a4aa773e432e79abbe2cf52c1eb60405160405180910390a2506109d1565b80806001019150506108a9565b506040517f08c379a00000000000000000000000000000000000000000000000000000000081526004016109c890612280565b60405180910390fd5b50565b600381815481106109e457600080fd5b906000526020600020016000915090505481565b610a0061156c565b610a0a60006115f3565b565b6002602052806000526040600020600091509050806000018054610a2f90612073565b80601f0160208091040260200160405190810160405280929190818152602001828054610a5b90612073565b8015610aa85780601f10610a7d57610100808354040283529160200191610aa8565b820191906000526020600020905b815481529060010190602001808311610a8b57829003601f168201915b505050505090806001018054610abd90612073565b80601f0160208091040260200160405190810160405280929190818152602001828054610ae990612073565b8015610b365780601f10610b0b57610100808354040283529160200191610b36565b820191906000526020600020905b815481529060010190602001808311610b1957829003601f168201915b5050505050905082565b60008060009054906101000a900473ffffffffffffffffffffffffffffffffffffffff16905090565b606080600060058054905067ffffffffffffffff811115610b8d57610b8c611fe6565b5b604051908082528060200260200182016040528015610bc657816020015b610bb3611719565b815260200190600190039081610bab5790505b50905060005b600580549050811015610cf0576004600060058381548110610bf157610bf0612015565b5b90600052602060002001548152602001908152602001600020604051806080016040529081600082018054610c2590612073565b80601f0160208091040260200160405190810160405280929190818152602001828054610c5190612073565b8015610c9e5780601f10610c7357610100808354040283529160200191610c9e565b820191906000526020600020905b815481529060010190602001808311610c8157829003601f168201915b505050505081526020016001820154815260200160028201548152602001600382015481525050828281518110610cd857610cd7612015565b5b60200260200101819052508080600101915050610bcc565b5060058181805480602002602001604051908101604052809291908181526020018280548015610d3f57602002820191906000526020600020905b815481526020019060010190808311610d2b575b5050505050915092509250509091565b610d57611719565b6000600460008481526020019081526020016000206000018054610d7a90612073565b905003610dbc576040517f08c379a0000000000000000000000000000000000000000000000000000000008152600401610db3906122ec565b60405180910390fd5b60046000838152602001908152602001600020604051806080016040529081600082018054610dea90612073565b80601f0160208091040260200160405190810160405280929190818152602001828054610e1690612073565b8015610e635780601f10610e3857610100808354040283529160200191610e63565b820191906000526020600020905b815481529060010190602001808311610e4657829003601f168201915b5050505050815260200160018201548152602001600282015481526020016003820154815250509050919050565b60058181548110610ea157600080fd5b906000526020600020016000915090505481565b610ebd6116bf565b6000600260008481526020019081526020016000206000018054610ee090612073565b905003610f22576040517f08c379a0000000000000000000000000000000000000000000000000000000008152600401610f1990612358565b60405180910390fd5b60026000838152602001908152602001600020604051806040016040529081600082018054610f5090612073565b80601f0160208091040260200160405190810160405280929190818152602001828054610f7c90612073565b8015610fc95780601f10610f9e57610100808354040283529160200191610fc9565b820191906000526020600020905b815481529060010190602001808311610fac57829003601f168201915b50505050508152602001600182018054610fe290612073565b80601f016020809104026020016040519081016040528092919081815260200182805461100e90612073565b801561105b5780601f106110305761010080835404028352916020019161105b565b820191906000526020600020905b81548152906001019060200180831161103e57829003601f168201915b5050505050815250509050919050565b600160003373ffffffffffffffffffffffffffffffffffffffff1673ffffffffffffffffffffffffffffffffffffffff16815260200190815260200160002060009054906101000a900460ff166110f7576040517f08c379a00000000000000000000000000000000000000000000000000000000081526004016110ee90612116565b60405180910390fd5b600060026000848152602001908152602001600020600001805461111a90612073565b90501461115c576040517f08c379a0000000000000000000000000000000000000000000000000000000008152600401611153906123c4565b60405180910390fd5b8060026000848152602001908152602001600020818161117c9190612733565b9050506003829080600181540180825580915050600190039060005260206000200160009091909190915055817f977b7c809443074a157e15e8fe4641ddc62916895cca430493b9a88563f6e7fb826040516111d89190612847565b60405180910390a25050565b600160003373ffffffffffffffffffffffffffffffffffffffff1673ffffffffffffffffffffffffffffffffffffffff16815260200190815260200160002060009054906101000a900460ff16611270576040517f08c379a000000000000000000000000000000000000000000000000000000000815260040161126790612116565b60405180910390fd5b600060046000848152602001908152602001600020600001805461129390612073565b9050146112d5576040517f08c379a00000000000000000000000000000000000000000000000000000000081526004016112cc906128b5565b60405180910390fd5b6000600260008360600135815260200190815260200160002060000180546112fc90612073565b90500361133e576040517f08c379a000000000000000000000000000000000000000000000000000000000815260040161133590612358565b60405180910390fd5b8060046000848152602001908152602001600020818161135e91906129e5565b90505060058290806001815401808255809150506001900390600052602060002001600090919091909150558060600135827fcd17ef82c061ccd36cb8c45dde1ebd8c455cd5c11ea853ce12c50efc6661416d836040516113bf9190612a8f565b60405180910390a35050565b6113d361156c565b80600160008473ffffffffffffffffffffffffffffffffffffffff1673ffffffffffffffffffffffffffffffffffffffff16815260200190815260200160002060006101000a81548160ff0219169083151502179055505050565b600460205280600052604060002060009150905080600001805461145190612073565b80601f016020809104026020016040519081016040528092919081815260200182805461147d90612073565b80156114ca5780601f1061149f576101008083540402835291602001916114ca565b820191906000526020600020905b8154815290600101906020018083116114ad57829003601f168201915b5050505050908060010154908060020154908060030154905084565b6114ee61156c565b600073ffffffffffffffffffffffffffffffffffffffff168173ffffffffffffffffffffffffffffffffffffffff16036115605760006040517f1e4fbdf70000000000000000000000000000000000000000000000000000000081526004016115579190611bd1565b60405180910390fd5b611569816115f3565b50565b6115746116b7565b73ffffffffffffffffffffffffffffffffffffffff16611592610b40565b73ffffffffffffffffffffffffffffffffffffffff16146115f1576115b56116b7565b6040517f118cdaa70000000000000000000000000000000000000000000000000000000081526004016115e89190611bd1565b60405180910390fd5b565b60008060009054906101000a900473ffffffffffffffffffffffffffffffffffffffff169050816000806101000a81548173ffffffffffffffffffffffffffffffffffffffff021916908373ffffffffffffffffffffffffffffffffffffffff1602179055508173ffffffffffffffffffffffffffffffffffffffff168173ffffffffffffffffffffffffffffffffffffffff167f8be0079c531659141344cd1fd0a4f28419497f9722a3daafe3b4186f6b6457e060405160405180910390a35050565b600033905090565b604051806040016040528060608152602001606081525090565b5080546116e590612073565b6000825580601f106116f75750611716565b601f0160209004906000526020600020908101906117159190611741565b5b50565b6040518060800160405280606081526020016000815260200160008152602001600081525090565b5b8082111561175a576000816000905550600101611742565b5090565b600081519050919050565b600082825260208201905092915050565b6000819050602082019050919050565b6000819050919050565b61179d8161178a565b82525050565b60006117af8383611794565b60208301905092915050565b6000602082019050919050565b60006117d38261175e565b6117dd8185611769565b93506117e88361177a565b8060005b8381101561181957815161180088826117a3565b975061180b836117bb565b9250506001810190506117ec565b5085935050505092915050565b600081519050919050565b600082825260208201905092915050565b6000819050602082019050919050565b600081519050919050565b600082825260208201905092915050565b60005b8381101561188c578082015181840152602081019050611871565b60008484015250505050565b6000601f19601f8301169050919050565b60006118b482611852565b6118be818561185d565b93506118ce81856020860161186e565b6118d781611898565b840191505092915050565b600060408301600083015184820360008601526118ff82826118a9565b9150506020830151848203602086015261191982826118a9565b9150508091505092915050565b600061193283836118e2565b905092915050565b6000602082019050919050565b600061195282611826565b61195c8185611831565b93508360208202850161196e85611842565b8060005b858110156119aa578484038952815161198b8582611926565b94506119968361193a565b925060208a01995050600181019050611972565b50829750879550505050505092915050565b600060408201905081810360008301526119d681856117c8565b905081810360208301526119ea8184611947565b90509392505050565b600080fd5b600080fd5b600073ffffffffffffffffffffffffffffffffffffffff82169050919050565b6000611a28826119fd565b9050919050565b611a3881611a1d565b8114611a4357600080fd5b50565b600081359050611a5581611a2f565b92915050565b600060208284031215611a7157611a706119f3565b5b6000611a7f84828501611a46565b91505092915050565b60008115159050919050565b611a9d81611a88565b82525050565b6000602082019050611ab86000830184611a94565b92915050565b611ac78161178a565b8114611ad257600080fd5b50565b600081359050611ae481611abe565b92915050565b600060208284031215611b0057611aff6119f3565b5b6000611b0e84828501611ad5565b91505092915050565b611b208161178a565b82525050565b6000602082019050611b3b6000830184611b17565b92915050565b600082825260208201905092915050565b6000611b5d82611852565b611b678185611b41565b9350611b7781856020860161186e565b611b8081611898565b840191505092915050565b60006040820190508181036000830152611ba58185611b52565b90508181036020830152611bb98184611b52565b90509392505050565b611bcb81611a1d565b82525050565b6000602082019050611be66000830184611bc2565b92915050565b600081519050919050565b600082825260208201905092915050565b6000819050602082019050919050565b60006080830160008301518482036000860152611c3582826118a9565b9150506020830151611c4a6020860182611794565b506040830151611c5d6040860182611794565b506060830151611c706060860182611794565b508091505092915050565b6000611c878383611c18565b905092915050565b6000602082019050919050565b6000611ca782611bec565b611cb18185611bf7565b935083602082028501611cc385611c08565b8060005b85811015611cff5784840389528151611ce08582611c7b565b9450611ceb83611c8f565b925060208a01995050600181019050611cc7565b50829750879550505050505092915050565b60006040820190508181036000830152611d2b81856117c8565b90508181036020830152611d3f8184611c9c565b90509392505050565b60006080830160008301518482036000860152611d6582826118a9565b9150506020830151611d7a6020860182611794565b506040830151611d8d6040860182611794565b506060830151611da06060860182611794565b508091505092915050565b60006020820190508181036000830152611dc58184611d48565b905092915050565b60006040830160008301518482036000860152611dea82826118a9565b91505060208301518482036020860152611e0482826118a9565b9150508091505092915050565b60006020820190508181036000830152611e2b8184611dcd565b905092915050565b600080fd5b600060408284031215611e4e57611e4d611e33565b5b81905092915050565b60008060408385031215611e6e57611e6d6119f3565b5b6000611e7c85828601611ad5565b925050602083013567ffffffffffffffff811115611e9d57611e9c6119f8565b5b611ea985828601611e38565b9150509250929050565b600060808284031215611ec957611ec8611e33565b5b81905092915050565b60008060408385031215611ee957611ee86119f3565b5b6000611ef785828601611ad5565b925050602083013567ffffffffffffffff811115611f1857611f176119f8565b5b611f2485828601611eb3565b9150509250929050565b611f3781611a88565b8114611f4257600080fd5b50565b600081359050611f5481611f2e565b92915050565b60008060408385031215611f7157611f706119f3565b5b6000611f7f85828601611a46565b9250506020611f9085828601611f45565b9150509250929050565b60006080820190508181036000830152611fb48187611b52565b9050611fc36020830186611b17565b611fd06040830185611b17565b611fdd6060830184611b17565b95945050505050565b7f4e487b7100000000000000000000000000000000000000000000000000000000600052604160045260246000fd5b7f4e487b7100000000000000000000000000000000000000000000000000000000600052603260045260246000fd5b7f4e487b7100000000000000000000000000000000000000000000000000000000600052602260045260246000fd5b6000600282049050600182168061208b57607f821691505b60208210810361209e5761209d612044565b5b50919050565b7f4e6f7420617574686f72697a656420746f2075736520746869732066756e637460008201527f696f6e0000000000000000000000000000000000000000000000000000000000602082015250565b6000612100602383611b41565b915061210b826120a4565b604082019050919050565b6000602082019050818103600083015261212f816120f3565b9050919050565b7f4e487b7100000000000000000000000000000000000000000000000000000000600052601160045260246000fd5b60006121708261178a565b915061217b8361178a565b925082820390508181111561219357612192612136565b5b92915050565b7f4e487b7100000000000000000000000000000000000000000000000000000000600052603160045260246000fd5b7f4c6f74206e6f7420666f756e6400000000000000000000000000000000000000600082015250565b60006121fe600d83611b41565b9150612209826121c8565b602082019050919050565b6000602082019050818103600083015261222d816121f1565b9050919050565b7f50726f64756374206e6f7420666f756e64000000000000000000000000000000600082015250565b600061226a601183611b41565b915061227582612234565b602082019050919050565b600060208201905081810360008301526122998161225d565b9050919050565b7f4c6f7420646f6573206e6f742065786973747300000000000000000000000000600082015250565b60006122d6601383611b41565b91506122e1826122a0565b602082019050919050565b60006020820190508181036000830152612305816122c9565b9050919050565b7f50726f6475637420646f6573206e6f7420657869737473000000000000000000600082015250565b6000612342601783611b41565b915061234d8261230c565b602082019050919050565b6000602082019050818103600083015261237181612335565b9050919050565b7f50726f6475637420616c72656164792065786973747300000000000000000000600082015250565b60006123ae601683611b41565b91506123b982612378565b602082019050919050565b600060208201905081810360008301526123dd816123a1565b9050919050565b600080fd5b600080fd5b600080fd5b600080833560016020038436030381126124105761240f6123e4565b5b80840192508235915067ffffffffffffffff821115612432576124316123e9565b5b60208301925060018202360383131561244e5761244d6123ee565b5b509250929050565b600082905092915050565b60008190508160005260206000209050919050565b60006020601f8301049050919050565b600082821b905092915050565b6000600883026124c37fffffffffffffffffffffffffffffffffffffffffffffffffffffffffffffffff82612486565b6124cd8683612486565b95508019841693508086168417925050509392505050565b6000819050919050565b600061250a6125056125008461178a565b6124e5565b61178a565b9050919050565b6000819050919050565b612524836124ef565b61253861253082612511565b848454612493565b825550505050565b600090565b61254d612540565b61255881848461251b565b505050565b5b8181101561257c57612571600082612545565b60018101905061255e565b5050565b601f8211156125c15761259281612461565b61259b84612476565b810160208510156125aa578190505b6125be6125b685612476565b83018261255d565b50505b505050565b600082821c905092915050565b60006125e4600019846008026125c6565b1980831691505092915050565b60006125fd83836125d3565b9150826002028217905092915050565b6126178383612456565b67ffffffffffffffff8111156126305761262f611fe6565b5b61263a8254612073565b612645828285612580565b6000601f8311600181146126745760008415612662578287013590505b61266c85826125f1565b8655506126d4565b601f19841661268286612461565b60005b828110156126aa57848901358255600182019150602085019450602081019050612685565b868310156126c757848901356126c3601f8916826125d3565b8355505b6001600288020188555050505b50505050505050565b6126e883838361260d565b505050565b60008101600083016126ff81856123f3565b61270a8183866126dd565b50505050600181016020830161272081856123f3565b61272b8183866126dd565b505050505050565b61273d82826126ed565b5050565b600080fd5b600080fd5b600080fd5b6000808335600160200384360303811261276d5761276c61274b565b5b83810192508235915060208301925067ffffffffffffffff82111561279557612794612741565b5b6001820236038313156127ab576127aa612746565b5b509250929050565b82818337600083830152505050565b60006127ce838561185d565b93506127db8385846127b3565b6127e483611898565b840190509392505050565b6000604083016128026000840184612750565b85830360008701526128158382846127c2565b925050506128266020840184612750565b85830360208701526128398382846127c2565b925050508091505092915050565b6000602082019050818103600083015261286181846127ef565b905092915050565b7f4c6f7420616c7265616479206578697374730000000000000000000000000000600082015250565b600061289f601283611b41565b91506128aa82612869565b602082019050919050565b600060208201905081810360008301526128ce81612892565b9050919050565b600081356128e281611abe565b80915050919050565b60008160001b9050919050565b60007fffffffffffffffffffffffffffffffffffffffffffffffffffffffffffffffff612924846128eb565b9350801983169250808416831791505092915050565b612943826124ef565b61295661294f82612511565b83546128f8565b8255505050565b600081016000830161296f81856123f3565b61297a8183866126dd565b50505050600181016020830180612990816128d5565b905061299c818461293a565b5050506002810160408301806129b1816128d5565b90506129bd818461293a565b5050506003810160608301806129d2816128d5565b90506129de818461293a565b5050505050565b6129ef828261295d565b5050565b6000612a026020840184611ad5565b905092915050565b600060808301612a1d6000840184612750565b8583036000870152612a308382846127c2565b92505050612a4160208401846129f3565b612a4e6020860182611794565b50612a5c60408401846129f3565b612a696040860182611794565b50612a7760608401846129f3565b612a846060860182611794565b508091505092915050565b60006020820190508181036000830152612aa98184612a0a565b90509291505056fea2646970667358221220f66ef4ad4ef62c0828925704032dfbecf3c60fba503601243b8b28f171ab0c4f64736f6c634300081e0033",
  "linkReferences": {},
  "deployedLinkReferences": {}
}