{
  "_format": "hh-sol-artifact-1",
  "contractName": "TransactionManager",
  "sourceName": "contracts/implementation/TransactionManager.sol",
  "abi": [
    {
      "inputs": [
        {
          "internalType": "address",
          "name": "productManagerAddress",
          "type": "address"
        },
        {
          "internalType": "address",
          "name": "inventoryManagerAddress",
          "type": "address"
        },
        {
          "internalType": "address",
          "name": "cashbackTokenAddress",
          "type": "address"
        }
      ],
      "stateMutability": "nonpayable",
      "type": "constructor"
    },
    {
      "inputs": [
        {
          "internalType": "address",
          "name": "owner",
          "type": "address"
        }
      ],
      "name": "OwnableInvalidOwner",
      "type": "error"
    },
    {
      "inputs": [
        {
          "internalType": "address",
          "name": "account",
          "type": "address"
        }
      ],
      "name": "OwnableUnauthorizedAccount",
      "type": "error"
    },
    {
      "anonymous": false,
      "inputs": [
        {
          "indexed": true,
          "internalType": "address",
          "name": "from",
          "type": "address"
        },
        {
          "indexed": true,
          "internalType": "address",
          "name": "to",
          "type": "address"
        },
        {
          "indexed": true,
          "internalType": "bytes32",
          "name": "detailsHash",
          "type": "bytes32"
        },
        {
          "components": [
            {
              "internalType": "address",
              "name": "from",
              "type": "address"
            },
            {
              "internalType": "address",
              "name": "to",
              "type": "address"
            },
            {
              "internalType": "uint256[]",
              "name": "lotIds",
              "type": "uint256[]"
            },
            {
              "internalType": "uint256[]",
              "name": "quantities",
              "type": "uint256[]"
            },
            {
              "internalType": "uint256",
              "name": "timestamp",
              "type": "uint256"
            },
            {
              "internalType": "bytes32",
              "name": "detailsHash",
              "type": "bytes32"
            }
          ],
          "indexed": false,
          "internalType": "struct TransactionManager.Transaction",
          "name": "",
          "type": "tuple"
        }
      ],
      "name": "AcceptedTransaction",
      "type": "event"
    },
    {
      "anonymous": false,
      "inputs": [
        {
          "indexed": true,
          "internalType": "address",
          "name": "from",
          "type": "address"
        },
        {
          "indexed": true,
          "internalType": "address",
          "name": "to",
          "type": "address"
        },
        {
          "indexed": true,
          "internalType": "bytes32",
          "name": "detailsHash",
          "type": "bytes32"
        },
        {
          "components": [
            {
              "internalType": "address",
              "name": "from",
              "type": "address"
            },
            {
              "internalType": "address",
              "name": "to",
              "type": "address"
            },
            {
              "internalType": "uint256[]",
              "name": "lotIds",
              "type": "uint256[]"
            },
            {
              "internalType": "uint256[]",
              "name": "quantities",
              "type": "uint256[]"
            },
            {
              "internalType": "uint256",
              "name": "timestamp",
              "type": "uint256"
            },
            {
              "internalType": "bytes32",
              "name": "detailsHash",
              "type": "bytes32"
            }
          ],
          "indexed": false,
          "internalType": "struct TransactionManager.Transaction",
          "name": "",
          "type": "tuple"
        }
      ],
      "name": "AddedTransaction",
      "type": "event"
    },
    {
      "anonymous": false,
      "inputs": [
        {
          "indexed": true,
          "internalType": "address",
          "name": "previousOwner",
          "type": "address"
        },
        {
          "indexed": true,
          "internalType": "address",
          "name": "newOwner",
          "type": "address"
        }
      ],
      "name": "OwnershipTransferred",
      "type": "event"
    },
    {
      "anonymous": false,
      "inputs": [
        {
          "indexed": true,
          "internalType": "address",
          "name": "from",
          "type": "address"
        },
        {
          "indexed": true,
          "internalType": "address",
          "name": "to",
          "type": "address"
        },
        {
          "indexed": true,
          "internalType": "bytes32",
          "name": "detailsHash",
          "type": "bytes32"
        },
        {
          "components": [
            {
              "internalType": "address",
              "name": "from",
              "type": "address"
            },
            {
              "internalType": "address",
              "name": "to",
              "type": "address"
            },
            {
              "internalType": "uint256[]",
              "name": "lotIds",
              "type": "uint256[]"
            },
            {
              "internalType": "uint256[]",
              "name": "quantities",
              "type": "uint256[]"
            },
            {
              "internalType": "uint256",
              "name": "timestamp",
              "type": "uint256"
            },
            {
              "internalType": "bytes32",
              "name": "detailsHash",
              "type": "bytes32"
            }
          ],
          "indexed": false,
          "internalType": "struct TransactionManager.Transaction",
          "name": "",
          "type": "tuple"
        }
      ],
      "name": "RejectedTransaction",
      "type": "event"
    },
    {
      "anonymous": false,
      "inputs": [
        {
          "indexed": true,
          "internalType": "address",
          "name": "from",
          "type": "address"
        },
        {
          "indexed": true,
          "internalType": "address",
          "name": "to",
          "type": "address"
        },
        {
          "indexed": true,
          "internalType": "bytes32",
          "name": "detailsHash",
          "type": "bytes32"
        },
        {
          "components": [
            {
              "internalType": "address",
              "name": "from",
              "type": "address"
            },
            {
              "internalType": "address",
              "name": "to",
              "type": "address"
            },
            {
              "internalType": "uint256[]",
              "name": "lotIds",
              "type": "uint256[]"
            },
            {
              "internalType": "uint256[]",
              "name": "quantities",
              "type": "uint256[]"
            },
            {
              "internalType": "uint256",
              "name": "timestamp",
              "type": "uint256"
            },
            {
              "internalType": "bytes32",
              "name": "detailsHash",
              "type": "bytes32"
            }
          ],
          "indexed": false,
          "internalType": "struct TransactionManager.Transaction",
          "name": "",
          "type": "tuple"
        }
      ],
      "name": "RemovedTransaction",
      "type": "event"
    },
    {
      "anonymous": false,
      "inputs": [
        {
          "indexed": true,
          "internalType": "address",
          "name": "pharmacy",
          "type": "address"
        },
        {
          "indexed": false,
          "internalType": "uint256[]",
          "name": "lotIds",
          "type": "uint256[]"
        },
        {
          "indexed": false,
          "internalType": "uint256[]",
          "name": "quantities",
          "type": "uint256[]"
        },
        {
          "indexed": false,
          "internalType": "uint256",
          "name": "totalValue",
          "type": "uint256"
        }
      ],
      "name": "SaleToCustomer",
      "type": "event"
    },
    {
      "inputs": [
        {
          "internalType": "address",
          "name": "",
          "type": "address"
        }
      ],
      "name": "authorizedUsers",
      "outputs": [
        {
          "internalType": "bool",
          "name": "",
          "type": "bool"
        }
      ],
      "stateMutability": "view",
      "type": "function"
    },
    {
      "inputs": [],
      "name": "cashbackToken",
      "outputs": [
        {
          "internalType": "contract CashbackToken",
          "name": "",
          "type": "address"
        }
      ],
      "stateMutability": "view",
      "type": "function"
    },
    {
      "inputs": [],
      "name": "getIncomingTransactions",
      "outputs": [
        {
          "components": [
            {
              "internalType": "address",
              "name": "from",
              "type": "address"
            },
            {
              "internalType": "address",
              "name": "to",
              "type": "address"
            },
            {
              "internalType": "uint256[]",
              "name": "lotIds",
              "type": "uint256[]"
            },
            {
              "internalType": "uint256[]",
              "name": "quantities",
              "type": "uint256[]"
            },
            {
              "internalType": "uint256",
              "name": "timestamp",
              "type": "uint256"
            },
            {
              "internalType": "bytes32",
              "name": "detailsHash",
              "type": "bytes32"
            }
          ],
          "internalType": "struct TransactionManager.Transaction[]",
          "name": "",
          "type": "tuple[]"
        }
      ],
      "stateMutability": "view",
      "type": "function"
    },
    {
      "inputs": [],
      "name": "getOutgoingTransactions",
      "outputs": [
        {
          "components": [
            {
              "internalType": "address",
              "name": "from",
              "type": "address"
            },
            {
              "internalType": "address",
              "name": "to",
              "type": "address"
            },
            {
              "internalType": "uint256[]",
              "name": "lotIds",
              "type": "uint256[]"
            },
            {
              "internalType": "uint256[]",
              "name": "quantities",
              "type": "uint256[]"
            },
            {
              "internalType": "uint256",
              "name": "timestamp",
              "type": "uint256"
            },
            {
              "internalType": "bytes32",
              "name": "detailsHash",
              "type": "bytes32"
            }
          ],
          "internalType": "struct TransactionManager.Transaction[]",
          "name": "",
          "type": "tuple[]"
        }
      ],
      "stateMutability": "view",
      "type": "function"
    },
    {
      "inputs": [
        {
          "internalType": "address",
          "name": "",
          "type": "address"
        },
        {
          "internalType": "address",
          "name": "",
          "type": "address"
        }
      ],
      "name": "hasRelation",
      "outputs": [
        {
          "internalType": "bool",
          "name": "",
          "type": "bool"
        }
      ],
      "stateMutability": "view",
      "type": "function"
    },
    {
      "inputs": [],
      "name": "inventoryManager",
      "outputs": [
        {
          "internalType": "contract InventoryManager",
          "name": "",
          "type": "address"
        }
      ],
      "stateMutability": "view",
      "type": "function"
    },
    {
      "inputs": [],
      "name": "owner",
      "outputs": [
        {
          "internalType": "address",
          "name": "",
          "type": "address"
        }
      ],
      "stateMutability": "view",
      "type": "function"
    },
    {
      "inputs": [
        {
          "internalType": "address",
          "name": "",
          "type": "address"
        },
        {
          "internalType": "address",
          "name": "",
          "type": "address"
        },
        {
          "internalType": "uint256",
          "name": "",
          "type": "uint256"
        }
      ],
      "name": "pendingTransactions",
      "outputs": [
        {
          "internalType": "address",
          "name": "from",
          "type": "address"
        },
        {
          "internalType": "address",
          "name": "to",
          "type": "address"
        },
        {
          "internalType": "uint256",
          "name": "timestamp",
          "type": "uint256"
        },
        {
          "internalType": "bytes32",
          "name": "detailsHash",
          "type": "bytes32"
        }
      ],
      "stateMutability": "view",
      "type": "function"
    },
    {
      "inputs": [],
      "name": "productManager",
      "outputs": [
        {
          "internalType": "contract ProductManager",
          "name": "",
          "type": "address"
        }
      ],
      "stateMutability": "view",
      "type": "function"
    },
    {
      "inputs": [
        {
          "internalType": "address",
          "name": "to",
          "type": "address"
        },
        {
          "internalType": "uint256[]",
          "name": "lotIds",
          "type": "uint256[]"
        },
        {
          "internalType": "uint256[]",
          "name": "quantities",
          "type": "uint256[]"
        }
      ],
      "name": "proposeTransaction",
      "outputs": [],
      "stateMutability": "nonpayable",
      "type": "function"
    },
    {
      "inputs": [
        {
          "internalType": "uint256[]",
          "name": "lotIds",
          "type": "uint256[]"
        },
        {
          "internalType": "uint256[]",
          "name": "quantities",
          "type": "uint256[]"
        }
      ],
      "name": "registerSaleToCustomer",
      "outputs": [],
      "stateMutability": "nonpayable",
      "type": "function"
    },
    {
      "inputs": [
        {
          "internalType": "uint256",
          "name": "maxAge",
          "type": "uint256"
        }
      ],
      "name": "removeExpiredTransactions",
      "outputs": [],
      "stateMutability": "nonpayable",
      "type": "function"
    },
    {
      "inputs": [],
      "name": "renounceOwnership",
      "outputs": [],
      "stateMutability": "nonpayable",
      "type": "function"
    },
    {
      "inputs": [
        {
          "internalType": "address",
          "name": "from",
          "type": "address"
        },
        {
          "internalType": "bytes32",
          "name": "detailsHash",
          "type": "bytes32"
        },
        {
          "internalType": "bool",
          "name": "review",
          "type": "bool"
        }
      ],
      "name": "reviewTransaction",
      "outputs": [],
      "stateMutability": "nonpayable",
      "type": "function"
    },
    {
      "inputs": [],
      "name": "rewardMultiplier",
      "outputs": [
        {
          "internalType": "uint256",
          "name": "",
          "type": "uint256"
        }
      ],
      "stateMutability": "view",
      "type": "function"
    },
    {
      "inputs": [
        {
          "internalType": "uint256",
          "name": "",
          "type": "uint256"
        }
      ],
      "name": "senders",
      "outputs": [
        {
          "internalType": "address",
          "name": "",
          "type": "address"
        }
      ],
      "stateMutability": "view",
      "type": "function"
    },
    {
      "inputs": [
        {
          "internalType": "address",
          "name": "",
          "type": "address"
        },
        {
          "internalType": "uint256",
          "name": "",
          "type": "uint256"
        }
      ],
      "name": "sendersToReceivers",
      "outputs": [
        {
          "internalType": "address",
          "name": "",
          "type": "address"
        }
      ],
      "stateMutability": "view",
      "type": "function"
    },
    {
      "inputs": [
        {
          "internalType": "uint256",
          "name": "value",
          "type": "uint256"
        }
      ],
      "name": "setRewardMultiplier",
      "outputs": [],
      "stateMutability": "nonpayable",
      "type": "function"
    },
    {
      "inputs": [
        {
          "internalType": "address",
          "name": "wallet",
          "type": "address"
        },
        {
          "internalType": "bool",
          "name": "authorized",
          "type": "bool"
        }
      ],
      "name": "setUserAuth",
      "outputs": [],
      "stateMutability": "nonpayable",
      "type": "function"
    },
    {
      "inputs": [
        {
          "internalType": "address",
          "name": "newOwner",
          "type": "address"
        }
      ],
      "name": "transferOwnership",
      "outputs": [],
      "stateMutability": "nonpayable",
      "type": "function"
    }
  ],
  "bytecode": "0x6080604052606460055534801561001557600080fd5b50604051614bbc380380614bbc833981810160405281019061003791906102ac565b33600073ffffffffffffffffffffffffffffffffffffffff168173ffffffffffffffffffffffffffffffffffffffff16036100aa5760006040517f1e4fbdf70000000000000000000000000000000000000000000000000000000081526004016100a1919061030e565b60405180910390fd5b6100b98161018560201b60201c565b5082600160006101000a81548173ffffffffffffffffffffffffffffffffffffffff021916908373ffffffffffffffffffffffffffffffffffffffff16021790555081600260006101000a81548173ffffffffffffffffffffffffffffffffffffffff021916908373ffffffffffffffffffffffffffffffffffffffff16021790555080600360006101000a81548173ffffffffffffffffffffffffffffffffffffffff021916908373ffffffffffffffffffffffffffffffffffffffff160217905550505050610329565b60008060009054906101000a900473ffffffffffffffffffffffffffffffffffffffff169050816000806101000a81548173ffffffffffffffffffffffffffffffffffffffff021916908373ffffffffffffffffffffffffffffffffffffffff1602179055508173ffffffffffffffffffffffffffffffffffffffff168173ffffffffffffffffffffffffffffffffffffffff167f8be0079c531659141344cd1fd0a4f28419497f9722a3daafe3b4186f6b6457e060405160405180910390a35050565b600080fd5b600073ffffffffffffffffffffffffffffffffffffffff82169050919050565b60006102798261024e565b9050919050565b6102898161026e565b811461029457600080fd5b50565b6000815190506102a681610280565b92915050565b6000806000606084860312156102c5576102c4610249565b5b60006102d386828701610297565b93505060206102e486828701610297565b92505060406102f586828701610297565b9150509250925092565b6103088161026e565b82525050565b600060208201905061032360008301846102ff565b92915050565b614884806103386000396000f3fe608060405234801561001057600080fd5b506004361061012c5760003560e01c806375b882fb116100ad578063d82c6eb611610071578063d82c6eb614610332578063ea662b8a1461034e578063f2fde38b1461036c578063f426306f14610388578063f820f719146103a65761012c565b806375b882fb1461027c57806377ed4d50146102985780638da5cb5b146102c85780639977c78a146102e65780639f9b269f146103165761012c565b80635392a22b116100f45780635392a22b146101ea57806354b1325b1461020857806367fa5650146102385780636f2c590a14610254578063715018a6146102725761012c565b80630bd075a114610131578063144a16631461014d5780631828983a146101805780631aadb370146101b057806349749888146101ce575b600080fd5b61014b6004803603810190610146919061373e565b6103c4565b005b610167600480360381019061016291906137c9565b61049f565b6040516101779493929190613853565b60405180910390f35b61019a60048036038101906101959190613898565b610539565b6040516101a791906138e0565b60405180910390f35b6101b8610559565b6040516101c5919061395a565b60405180910390f35b6101e860048036038101906101e391906139da565b61057f565b005b6101f2610d22565b6040516101ff9190613a90565b60405180910390f35b610222600480360381019061021d9190613aab565b610d48565b60405161022f9190613aeb565b60405180910390f35b610252600480360381019061024d919061373e565b610d96565b005b61025c6114a8565b6040516102699190613b06565b60405180910390f35b61027a6114ae565b005b61029660048036038101906102919190613b79565b6114c2565b005b6102b260048036038101906102ad9190613bcc565b61241c565b6040516102bf91906138e0565b60405180910390f35b6102d061244b565b6040516102dd9190613aeb565b60405180910390f35b61030060048036038101906102fb919061373e565b612474565b60405161030d9190613aeb565b60405180910390f35b610330600480360381019061032b9190613c0c565b6124b3565b005b61034c60048036038101906103479190613c8d565b61288e565b005b6103566128f1565b6040516103639190613efb565b60405180910390f35b61038660048036038101906103819190613898565b612d7e565b005b610390612e04565b60405161039d9190613f3e565b60405180910390f35b6103ae612e2a565b6040516103bb9190613efb565b60405180910390f35b600460003373ffffffffffffffffffffffffffffffffffffffff1673ffffffffffffffffffffffffffffffffffffffff16815260200190815260200160002060009054906101000a900460ff16610450576040517f08c379a000000000000000000000000000000000000000000000000000000000815260040161044790613fdc565b60405180910390fd5b612710811115610495576040517f08c379a000000000000000000000000000000000000000000000000000000000815260040161048c9061406e565b60405180910390fd5b8060058190555050565b600660205282600052604060002060205281600052604060002081815481106104c757600080fd5b906000526020600020906006020160009250925050508060000160009054906101000a900473ffffffffffffffffffffffffffffffffffffffff16908060010160009054906101000a900473ffffffffffffffffffffffffffffffffffffffff16908060040154908060050154905084565b60046020528060005260406000206000915054906101000a900460ff1681565b600360009054906101000a900473ffffffffffffffffffffffffffffffffffffffff1681565b3373ffffffffffffffffffffffffffffffffffffffff168573ffffffffffffffffffffffffffffffffffffffff16036105ed576040517f08c379a00000000000000000000000000000000000000000000000000000000081526004016105e490614100565b60405180910390fd5b818190508484905014610635576040517f08c379a000000000000000000000000000000000000000000000000000000000815260040161062c9061416c565b60405180910390fd5b6000339050600260009054906101000a900473ffffffffffffffffffffffffffffffffffffffff1673ffffffffffffffffffffffffffffffffffffffff16639908124782878787876040518663ffffffff1660e01b815260040161069d959493929190614207565b60006040518083038186803b1580156106b557600080fd5b505afa1580156106c9573d6000803e3d6000fd5b5050505060005b858590508110156107ab57600260009054906101000a900473ffffffffffffffffffffffffffffffffffffffff1673ffffffffffffffffffffffffffffffffffffffff166360c068b08388888581811061072d5761072c614250565b5b9050602002013587878681811061074757610746614250565b5b905060200201356040518463ffffffff1660e01b815260040161076c9392919061427f565b600060405180830381600087803b15801561078657600080fd5b505af115801561079a573d6000803e3d6000fd5b5050505080806001019150506106d0565b5060006040518060c001604052808373ffffffffffffffffffffffffffffffffffffffff1681526020018873ffffffffffffffffffffffffffffffffffffffff168152602001878780806020026020016040519081016040528093929190818152602001838360200280828437600081840152601f19601f820116905080830192505050505050508152602001858580806020026020016040519081016040528093929190818152602001838360200280828437600081840152601f19601f820116905080830192505050505050508152602001428152602001878787874260405160200161089e9594939291906142b6565b604051602081830303815290604052805190602001208152509050600660008373ffffffffffffffffffffffffffffffffffffffff1673ffffffffffffffffffffffffffffffffffffffff16815260200190815260200160002060008873ffffffffffffffffffffffffffffffffffffffff1673ffffffffffffffffffffffffffffffffffffffff16815260200190815260200160002081908060018154018082558091505060019003906000526020600020906006020160009091909190915060008201518160000160006101000a81548173ffffffffffffffffffffffffffffffffffffffff021916908373ffffffffffffffffffffffffffffffffffffffff16021790555060208201518160010160006101000a81548173ffffffffffffffffffffffffffffffffffffffff021916908373ffffffffffffffffffffffffffffffffffffffff1602179055506040820151816002019080519060200190610a099291906135b2565b506060820151816003019080519060200190610a269291906135b2565b506080820151816004015560a082015181600501555050600960008373ffffffffffffffffffffffffffffffffffffffff1673ffffffffffffffffffffffffffffffffffffffff16815260200190815260200160002060008873ffffffffffffffffffffffffffffffffffffffff1673ffffffffffffffffffffffffffffffffffffffff16815260200190815260200160002060009054906101000a900460ff16610caf57600860008373ffffffffffffffffffffffffffffffffffffffff1673ffffffffffffffffffffffffffffffffffffffff168152602001908152602001600020879080600181540180825580915050600190039060005260206000200160009091909190916101000a81548173ffffffffffffffffffffffffffffffffffffffff021916908373ffffffffffffffffffffffffffffffffffffffff1602179055506001600860008473ffffffffffffffffffffffffffffffffffffffff1673ffffffffffffffffffffffffffffffffffffffff1681526020019081526020016000208054905003610c19576007829080600181540180825580915050600190039060005260206000200160009091909190916101000a81548173ffffffffffffffffffffffffffffffffffffffff021916908373ffffffffffffffffffffffffffffffffffffffff1602179055505b6001600960008473ffffffffffffffffffffffffffffffffffffffff1673ffffffffffffffffffffffffffffffffffffffff16815260200190815260200160002060008973ffffffffffffffffffffffffffffffffffffffff1673ffffffffffffffffffffffffffffffffffffffff16815260200190815260200160002060006101000a81548160ff0219169083151502179055505b8060a001518773ffffffffffffffffffffffffffffffffffffffff168373ffffffffffffffffffffffffffffffffffffffff167f58d353c824fe85a3b61371c984411981be1f874ea91fd45835b285bd6bf9107084604051610d11919061438f565b60405180910390a450505050505050565b600260009054906101000a900473ffffffffffffffffffffffffffffffffffffffff1681565b60086020528160005260406000208181548110610d6457600080fd5b906000526020600020016000915091509054906101000a900473ffffffffffffffffffffffffffffffffffffffff1681565b610d9e6132da565b600042905060005b6007805490508110156114a357600060078281548110610dc957610dc8614250565b5b9060005260206000200160009054906101000a900473ffffffffffffffffffffffffffffffffffffffff1690506000600860008373ffffffffffffffffffffffffffffffffffffffff1673ffffffffffffffffffffffffffffffffffffffff168152602001908152602001600020905060005b8180549050811015611493576000828281548110610e5d57610e5c614250565b5b9060005260206000200160009054906101000a900473ffffffffffffffffffffffffffffffffffffffff1690506000600660008673ffffffffffffffffffffffffffffffffffffffff1673ffffffffffffffffffffffffffffffffffffffff16815260200190815260200160002060008373ffffffffffffffffffffffffffffffffffffffff1673ffffffffffffffffffffffffffffffffffffffff168152602001908152602001600020905060005b81805490508110156113815788828281548110610f2d57610f2c614250565b5b90600052602060002090600602016004015489610f4a91906143e0565b111561136d576000828281548110610f6557610f64614250565b5b90600052602060002090600602016040518060c00160405290816000820160009054906101000a900473ffffffffffffffffffffffffffffffffffffffff1673ffffffffffffffffffffffffffffffffffffffff1673ffffffffffffffffffffffffffffffffffffffff1681526020016001820160009054906101000a900473ffffffffffffffffffffffffffffffffffffffff1673ffffffffffffffffffffffffffffffffffffffff1673ffffffffffffffffffffffffffffffffffffffff1681526020016002820180548060200260200160405190810160405280929190818152602001828054801561107957602002820191906000526020600020905b815481526020019060010190808311611065575b50505050508152602001600382018054806020026020016040519081016040528092919081815260200182805480156110d157602002820191906000526020600020905b8154815260200190600101908083116110bd575b50505050508152602001600482015481526020016005820154815250509050826001848054905061110291906143e0565b8154811061111357611112614250565b5b906000526020600020906006020183838154811061113457611133614250565b5b90600052602060002090600602016000820160009054906101000a900473ffffffffffffffffffffffffffffffffffffffff168160000160006101000a81548173ffffffffffffffffffffffffffffffffffffffff021916908373ffffffffffffffffffffffffffffffffffffffff1602179055506001820160009054906101000a900473ffffffffffffffffffffffffffffffffffffffff168160010160006101000a81548173ffffffffffffffffffffffffffffffffffffffff021916908373ffffffffffffffffffffffffffffffffffffffff16021790555060028201816002019080546112269291906135ff565b50600382018160030190805461123d9291906135ff565b5060048201548160040155600582015481600501559050508280548061126657611265614414565b5b6001900381819060005260206000209060060201600080820160006101000a81549073ffffffffffffffffffffffffffffffffffffffff02191690556001820160006101000a81549073ffffffffffffffffffffffffffffffffffffffff02191690556002820160006112d99190613651565b6003820160006112e99190613651565b60048201600090556005820160009055505090558060a001518473ffffffffffffffffffffffffffffffffffffffff168873ffffffffffffffffffffffffffffffffffffffff167f89357aa402631f91dde54aa3352d214c1fbb7d5d4fb9ffc8477c7f47751653808460405161135f919061438f565b60405180910390a45061137c565b808061137890614443565b9150505b610f0d565b6000828054905003611483576000600960008873ffffffffffffffffffffffffffffffffffffffff1673ffffffffffffffffffffffffffffffffffffffff16815260200190815260200160002060008573ffffffffffffffffffffffffffffffffffffffff1673ffffffffffffffffffffffffffffffffffffffff16815260200190815260200160002060006101000a81548160ff02191690831515021790555061142c8584613361565b6000600860008873ffffffffffffffffffffffffffffffffffffffff1673ffffffffffffffffffffffffffffffffffffffff168152602001908152602001600020805490500361148257611481600787613361565b5b5b5050508080600101915050610e3c565b5050508080600101915050610da6565b505050565b60055481565b6114b66132da565b6114c060006134e6565b565b6114ca613672565b6000339050600960008673ffffffffffffffffffffffffffffffffffffffff1673ffffffffffffffffffffffffffffffffffffffff16815260200190815260200160002060008273ffffffffffffffffffffffffffffffffffffffff1673ffffffffffffffffffffffffffffffffffffffff16815260200190815260200160002060009054906101000a900460ff16611598576040517f08c379a000000000000000000000000000000000000000000000000000000000815260040161158f906144d7565b60405180910390fd5b600080600090505b600660008873ffffffffffffffffffffffffffffffffffffffff1673ffffffffffffffffffffffffffffffffffffffff16815260200190815260200160002060008473ffffffffffffffffffffffffffffffffffffffff1673ffffffffffffffffffffffffffffffffffffffff168152602001908152602001600020805490508110156118fb57600660008873ffffffffffffffffffffffffffffffffffffffff1673ffffffffffffffffffffffffffffffffffffffff16815260200190815260200160002060008473ffffffffffffffffffffffffffffffffffffffff1673ffffffffffffffffffffffffffffffffffffffff16815260200190815260200160002081815481106116b5576116b4614250565b5b90600052602060002090600602016005015486036118ee57600660008873ffffffffffffffffffffffffffffffffffffffff1673ffffffffffffffffffffffffffffffffffffffff16815260200190815260200160002060008473ffffffffffffffffffffffffffffffffffffffff1673ffffffffffffffffffffffffffffffffffffffff168152602001908152602001600020818154811061175b5761175a614250565b5b90600052602060002090600602016040518060c00160405290816000820160009054906101000a900473ffffffffffffffffffffffffffffffffffffffff1673ffffffffffffffffffffffffffffffffffffffff1673ffffffffffffffffffffffffffffffffffffffff1681526020016001820160009054906101000a900473ffffffffffffffffffffffffffffffffffffffff1673ffffffffffffffffffffffffffffffffffffffff1673ffffffffffffffffffffffffffffffffffffffff1681526020016002820180548060200260200160405190810160405280929190818152602001828054801561186f57602002820191906000526020600020905b81548152602001906001019080831161185b575b50505050508152602001600382018054806020026020016040519081016040528092919081815260200182805480156118c757602002820191906000526020600020905b8154815260200190600101908083116118b3575b505050505081526020016004820154815260200160058201548152505093508091506118fb565b80806001019150506115a0565b506000801b8360a0015103611945576040517f08c379a000000000000000000000000000000000000000000000000000000000815260040161193c906144d7565b60405180910390fd5b600660008773ffffffffffffffffffffffffffffffffffffffff1673ffffffffffffffffffffffffffffffffffffffff16815260200190815260200160002060008373ffffffffffffffffffffffffffffffffffffffff1673ffffffffffffffffffffffffffffffffffffffff1681526020019081526020016000206001600660008973ffffffffffffffffffffffffffffffffffffffff1673ffffffffffffffffffffffffffffffffffffffff16815260200190815260200160002060008573ffffffffffffffffffffffffffffffffffffffff1673ffffffffffffffffffffffffffffffffffffffff16815260200190815260200160002080549050611a4d91906143e0565b81548110611a5e57611a5d614250565b5b9060005260206000209060060201600660008873ffffffffffffffffffffffffffffffffffffffff1673ffffffffffffffffffffffffffffffffffffffff16815260200190815260200160002060008473ffffffffffffffffffffffffffffffffffffffff1673ffffffffffffffffffffffffffffffffffffffff1681526020019081526020016000208281548110611afa57611af9614250565b5b90600052602060002090600602016000820160009054906101000a900473ffffffffffffffffffffffffffffffffffffffff168160000160006101000a81548173ffffffffffffffffffffffffffffffffffffffff021916908373ffffffffffffffffffffffffffffffffffffffff1602179055506001820160009054906101000a900473ffffffffffffffffffffffffffffffffffffffff168160010160006101000a81548173ffffffffffffffffffffffffffffffffffffffff021916908373ffffffffffffffffffffffffffffffffffffffff1602179055506002820181600201908054611bec9291906135ff565b506003820181600301908054611c039291906135ff565b506004820154816004015560058201548160050155905050600660008773ffffffffffffffffffffffffffffffffffffffff1673ffffffffffffffffffffffffffffffffffffffff16815260200190815260200160002060008373ffffffffffffffffffffffffffffffffffffffff1673ffffffffffffffffffffffffffffffffffffffff168152602001908152602001600020805480611ca757611ca6614414565b5b6001900381819060005260206000209060060201600080820160006101000a81549073ffffffffffffffffffffffffffffffffffffffff02191690556001820160006101000a81549073ffffffffffffffffffffffffffffffffffffffff0219169055600282016000611d1a9190613651565b600382016000611d2a9190613651565b60048201600090556005820160009055505090556000600660008873ffffffffffffffffffffffffffffffffffffffff1673ffffffffffffffffffffffffffffffffffffffff16815260200190815260200160002060008473ffffffffffffffffffffffffffffffffffffffff1673ffffffffffffffffffffffffffffffffffffffff1681526020019081526020016000208054905003611ef9576000600960008873ffffffffffffffffffffffffffffffffffffffff1673ffffffffffffffffffffffffffffffffffffffff16815260200190815260200160002060008473ffffffffffffffffffffffffffffffffffffffff1673ffffffffffffffffffffffffffffffffffffffff16815260200190815260200160002060006101000a81548160ff021916908315150217905550611ea2600860008873ffffffffffffffffffffffffffffffffffffffff1673ffffffffffffffffffffffffffffffffffffffff16815260200190815260200160002083613361565b6000600860008873ffffffffffffffffffffffffffffffffffffffff1673ffffffffffffffffffffffffffffffffffffffff1681526020019081526020016000208054905003611ef857611ef7600787613361565b5b5b83156122ba576000805b8460400151518110156120e757600260009054906101000a900473ffffffffffffffffffffffffffffffffffffffff1673ffffffffffffffffffffffffffffffffffffffff166357f2b3fe866020015187604001518481518110611f6a57611f69614250565b5b602002602001015188606001518581518110611f8957611f88614250565b5b60200260200101516040518463ffffffff1660e01b8152600401611faf9392919061427f565b600060405180830381600087803b158015611fc957600080fd5b505af1158015611fdd573d6000803e3d6000fd5b50505050600160009054906101000a900473ffffffffffffffffffffffffffffffffffffffff1673ffffffffffffffffffffffffffffffffffffffff1663ab995d128660400151838151811061203657612035614250565b5b60200260200101516040518263ffffffff1660e01b815260040161205a9190613b06565b600060405180830381865afa158015612077573d6000803e3d6000fd5b505050506040513d6000823e3d601f19601f820116820180604052508101906120a09190614706565b60400151856060015182815181106120bb576120ba614250565b5b60200260200101516120cd919061474f565b826120d89190614791565b91508080600101915050611f03565b50612710606460055483670de0b6b3a7640000612104919061474f565b61210e919061474f565b61211891906147f4565b61212291906147f4565b9050600360009054906101000a900473ffffffffffffffffffffffffffffffffffffffff1673ffffffffffffffffffffffffffffffffffffffff166340c10f198560000151836040518363ffffffff1660e01b8152600401612185929190614825565b600060405180830381600087803b15801561219f57600080fd5b505af11580156121b3573d6000803e3d6000fd5b50505050600360009054906101000a900473ffffffffffffffffffffffffffffffffffffffff1673ffffffffffffffffffffffffffffffffffffffff166340c10f198560200151836040518363ffffffff1660e01b8152600401612218929190614825565b600060405180830381600087803b15801561223257600080fd5b505af1158015612246573d6000803e3d6000fd5b505050508360a001518373ffffffffffffffffffffffffffffffffffffffff168873ffffffffffffffffffffffffffffffffffffffff167f5d1b03ef161c76c83d88bddf4257573b9c9ad7acc433afeb69fb0a95a2078c58876040516122ac919061438f565b60405180910390a450612414565b60005b8360400151518110156123a857600260009054906101000a900473ffffffffffffffffffffffffffffffffffffffff1673ffffffffffffffffffffffffffffffffffffffff166357f2b3fe85600001518660400151848151811061232457612323614250565b5b60200260200101518760600151858151811061234357612342614250565b5b60200260200101516040518463ffffffff1660e01b81526004016123699392919061427f565b600060405180830381600087803b15801561238357600080fd5b505af1158015612397573d6000803e3d6000fd5b5050505080806001019150506122bd565b508260a001518273ffffffffffffffffffffffffffffffffffffffff168773ffffffffffffffffffffffffffffffffffffffff167ffde131ae2c8d32bd787571fef890c3e5a520475eae06dce50a316b39717f0d1c8660405161240b919061438f565b60405180910390a45b505050505050565b60096020528160005260406000206020528060005260406000206000915091509054906101000a900460ff1681565b60008060009054906101000a900473ffffffffffffffffffffffffffffffffffffffff16905090565b6007818154811061248457600080fd5b906000526020600020016000915054906101000a900473ffffffffffffffffffffffffffffffffffffffff1681565b8181905084849050146124fb576040517f08c379a00000000000000000000000000000000000000000000000000000000081526004016124f29061416c565b60405180910390fd5b6000339050600260009054906101000a900473ffffffffffffffffffffffffffffffffffffffff1673ffffffffffffffffffffffffffffffffffffffff16639908124782878787876040518663ffffffff1660e01b8152600401612563959493929190614207565b60006040518083038186803b15801561257b57600080fd5b505afa15801561258f573d6000803e3d6000fd5b5050505060008060005b8787905081101561276357600260009054906101000a900473ffffffffffffffffffffffffffffffffffffffff1673ffffffffffffffffffffffffffffffffffffffff166360c068b0858a8a858181106125f6576125f5614250565b5b905060200201358989868181106126105761260f614250565b5b905060200201356040518463ffffffff1660e01b81526004016126359392919061427f565b600060405180830381600087803b15801561264f57600080fd5b505af1158015612663573d6000803e3d6000fd5b50505050600160009054906101000a900473ffffffffffffffffffffffffffffffffffffffff1673ffffffffffffffffffffffffffffffffffffffff1663ab995d128989848181106126b8576126b7614250565b5b905060200201356040518263ffffffff1660e01b81526004016126db9190613b06565b600060405180830381865afa1580156126f8573d6000803e3d6000fd5b505050506040513d6000823e3d601f19601f820116820180604052508101906127219190614706565b6040015186868381811061273857612737614250565b5b90506020020135612749919061474f565b836127549190614791565b92508080600101915050612599565b50612710606460055484670de0b6b3a7640000612780919061474f565b61278a919061474f565b61279491906147f4565b61279e91906147f4565b9050600360009054906101000a900473ffffffffffffffffffffffffffffffffffffffff1673ffffffffffffffffffffffffffffffffffffffff166340c10f1984836040518363ffffffff1660e01b81526004016127fd929190614825565b600060405180830381600087803b15801561281757600080fd5b505af115801561282b573d6000803e3d6000fd5b505050508273ffffffffffffffffffffffffffffffffffffffff167f47ee6b974f84d938f99898cab2333313c6713e6ed48bbf5b0af4e23565379dd1888888888760405161287d9594939291906142b6565b60405180910390a250505050505050565b6128966132da565b80600460008473ffffffffffffffffffffffffffffffffffffffff1673ffffffffffffffffffffffffffffffffffffffff16815260200190815260200160002060006101000a81548160ff0219169083151502179055505050565b606060003390506000600860008373ffffffffffffffffffffffffffffffffffffffff1673ffffffffffffffffffffffffffffffffffffffff1681526020019081526020016000208054806020026020016040519081016040528092919081815260200182805480156129b957602002820191906000526020600020905b8160009054906101000a900473ffffffffffffffffffffffffffffffffffffffff1673ffffffffffffffffffffffffffffffffffffffff168152602001906001019080831161296f575b505050505090506000805b8251811015612a8157600660008573ffffffffffffffffffffffffffffffffffffffff1673ffffffffffffffffffffffffffffffffffffffff1681526020019081526020016000206000848381518110612a2157612a20614250565b5b602002602001015173ffffffffffffffffffffffffffffffffffffffff1673ffffffffffffffffffffffffffffffffffffffff1681526020019081526020016000208054905082612a729190614791565b915080806001019150506129c4565b5060008167ffffffffffffffff811115612a9e57612a9d61450d565b5b604051908082528060200260200182016040528015612ad757816020015b612ac4613672565b815260200190600190039081612abc5790505b5090506000805b8451811015612d72576000600660008873ffffffffffffffffffffffffffffffffffffffff1673ffffffffffffffffffffffffffffffffffffffff1681526020019081526020016000206000878481518110612b3d57612b3c614250565b5b602002602001015173ffffffffffffffffffffffffffffffffffffffff1673ffffffffffffffffffffffffffffffffffffffff168152602001908152602001600020905060005b8180549050811015612d6357818181548110612ba357612ba2614250565b5b90600052602060002090600602016040518060c00160405290816000820160009054906101000a900473ffffffffffffffffffffffffffffffffffffffff1673ffffffffffffffffffffffffffffffffffffffff1673ffffffffffffffffffffffffffffffffffffffff1681526020016001820160009054906101000a900473ffffffffffffffffffffffffffffffffffffffff1673ffffffffffffffffffffffffffffffffffffffff1673ffffffffffffffffffffffffffffffffffffffff16815260200160028201805480602002602001604051908101604052809291908181526020018280548015612cb757602002820191906000526020600020905b815481526020019060010190808311612ca3575b5050505050815260200160038201805480602002602001604051908101604052809291908181526020018280548015612d0f57602002820191906000526020600020905b815481526020019060010190808311612cfb575b5050505050815260200160048201548152602001600582015481525050858580612d3890614443565b965081518110612d4b57612d4a614250565b5b60200260200101819052508080600101915050612b84565b50508080600101915050612ade565b50819550505050505090565b612d866132da565b600073ffffffffffffffffffffffffffffffffffffffff168173ffffffffffffffffffffffffffffffffffffffff1603612df85760006040517f1e4fbdf7000000000000000000000000000000000000000000000000000000008152600401612def9190613aeb565b60405180910390fd5b612e01816134e6565b50565b600160009054906101000a900473ffffffffffffffffffffffffffffffffffffffff1681565b606060003390506000805b600780549050811015612fb057600060078281548110612e5857612e57614250565b5b9060005260206000200160009054906101000a900473ffffffffffffffffffffffffffffffffffffffff169050600960008273ffffffffffffffffffffffffffffffffffffffff1673ffffffffffffffffffffffffffffffffffffffff16815260200190815260200160002060008573ffffffffffffffffffffffffffffffffffffffff1673ffffffffffffffffffffffffffffffffffffffff16815260200190815260200160002060009054906101000a900460ff1615612fa257600660008273ffffffffffffffffffffffffffffffffffffffff1673ffffffffffffffffffffffffffffffffffffffff16815260200190815260200160002060008573ffffffffffffffffffffffffffffffffffffffff1673ffffffffffffffffffffffffffffffffffffffff1681526020019081526020016000208054905083612f9f9190614791565b92505b508080600101915050612e35565b5060008167ffffffffffffffff811115612fcd57612fcc61450d565b5b60405190808252806020026020018201604052801561300657816020015b612ff3613672565b815260200190600190039081612feb5790505b5090506000805b6007805490508110156132cf576000600782815481106130305761302f614250565b5b9060005260206000200160009054906101000a900473ffffffffffffffffffffffffffffffffffffffff1690506000600660008373ffffffffffffffffffffffffffffffffffffffff1673ffffffffffffffffffffffffffffffffffffffff16815260200190815260200160002060008873ffffffffffffffffffffffffffffffffffffffff1673ffffffffffffffffffffffffffffffffffffffff168152602001908152602001600020905060005b81805490508110156132bf578181815481106130ff576130fe614250565b5b90600052602060002090600602016040518060c00160405290816000820160009054906101000a900473ffffffffffffffffffffffffffffffffffffffff1673ffffffffffffffffffffffffffffffffffffffff1673ffffffffffffffffffffffffffffffffffffffff1681526020016001820160009054906101000a900473ffffffffffffffffffffffffffffffffffffffff1673ffffffffffffffffffffffffffffffffffffffff1673ffffffffffffffffffffffffffffffffffffffff1681526020016002820180548060200260200160405190810160405280929190818152602001828054801561321357602002820191906000526020600020905b8154815260200190600101908083116131ff575b505050505081526020016003820180548060200260200160405190810160405280929190818152602001828054801561326b57602002820191906000526020600020905b815481526020019060010190808311613257575b505050505081526020016004820154815260200160058201548152505086868061329490614443565b9750815181106132a7576132a6614250565b5b602002602001018190525080806001019150506130e0565b505050808060010191505061300d565b508194505050505090565b6132e26135aa565b73ffffffffffffffffffffffffffffffffffffffff1661330061244b565b73ffffffffffffffffffffffffffffffffffffffff161461335f576133236135aa565b6040517f118cdaa70000000000000000000000000000000000000000000000000000000081526004016133569190613aeb565b60405180910390fd5b565b60005b82805490508110156134e1578173ffffffffffffffffffffffffffffffffffffffff1683828154811061339a57613399614250565b5b9060005260206000200160009054906101000a900473ffffffffffffffffffffffffffffffffffffffff1673ffffffffffffffffffffffffffffffffffffffff16036134d45782600184805490506133f291906143e0565b8154811061340357613402614250565b5b9060005260206000200160009054906101000a900473ffffffffffffffffffffffffffffffffffffffff1683828154811061344157613440614250565b5b9060005260206000200160006101000a81548173ffffffffffffffffffffffffffffffffffffffff021916908373ffffffffffffffffffffffffffffffffffffffff1602179055508280548061349a57613499614414565b5b6001900381819060005260206000200160006101000a81549073ffffffffffffffffffffffffffffffffffffffff021916905590556134e1565b8080600101915050613364565b505050565b60008060009054906101000a900473ffffffffffffffffffffffffffffffffffffffff169050816000806101000a81548173ffffffffffffffffffffffffffffffffffffffff021916908373ffffffffffffffffffffffffffffffffffffffff1602179055508173ffffffffffffffffffffffffffffffffffffffff168173ffffffffffffffffffffffffffffffffffffffff167f8be0079c531659141344cd1fd0a4f28419497f9722a3daafe3b4186f6b6457e060405160405180910390a35050565b600033905090565b8280548282559060005260206000209081019282156135ee579160200282015b828111156135ed5782518255916020019190600101906135d2565b5b5090506135fb91906136d7565b5090565b8280548282559060005260206000209081019282156136405760005260206000209182015b8281111561363f578254825591600101919060010190613624565b5b50905061364d91906136d7565b5090565b508054600082559060005260206000209081019061366f91906136d7565b50565b6040518060c00160405280600073ffffffffffffffffffffffffffffffffffffffff168152602001600073ffffffffffffffffffffffffffffffffffffffff168152602001606081526020016060815260200160008152602001600080191681525090565b5b808211156136f05760008160009055506001016136d8565b5090565b6000604051905090565b600080fd5b600080fd5b6000819050919050565b61371b81613708565b811461372657600080fd5b50565b60008135905061373881613712565b92915050565b600060208284031215613754576137536136fe565b5b600061376284828501613729565b91505092915050565b600073ffffffffffffffffffffffffffffffffffffffff82169050919050565b60006137968261376b565b9050919050565b6137a68161378b565b81146137b157600080fd5b50565b6000813590506137c38161379d565b92915050565b6000806000606084860312156137e2576137e16136fe565b5b60006137f0868287016137b4565b9350506020613801868287016137b4565b925050604061381286828701613729565b9150509250925092565b6138258161378b565b82525050565b61383481613708565b82525050565b6000819050919050565b61384d8161383a565b82525050565b6000608082019050613868600083018761381c565b613875602083018661381c565b613882604083018561382b565b61388f6060830184613844565b95945050505050565b6000602082840312156138ae576138ad6136fe565b5b60006138bc848285016137b4565b91505092915050565b60008115159050919050565b6138da816138c5565b82525050565b60006020820190506138f560008301846138d1565b92915050565b6000819050919050565b600061392061391b6139168461376b565b6138fb565b61376b565b9050919050565b600061393282613905565b9050919050565b600061394482613927565b9050919050565b61395481613939565b82525050565b600060208201905061396f600083018461394b565b92915050565b600080fd5b600080fd5b600080fd5b60008083601f84011261399a57613999613975565b5b8235905067ffffffffffffffff8111156139b7576139b661397a565b5b6020830191508360208202830111156139d3576139d261397f565b5b9250929050565b6000806000806000606086880312156139f6576139f56136fe565b5b6000613a04888289016137b4565b955050602086013567ffffffffffffffff811115613a2557613a24613703565b5b613a3188828901613984565b9450945050604086013567ffffffffffffffff811115613a5457613a53613703565b5b613a6088828901613984565b92509250509295509295909350565b6000613a7a82613927565b9050919050565b613a8a81613a6f565b82525050565b6000602082019050613aa56000830184613a81565b92915050565b60008060408385031215613ac257613ac16136fe565b5b6000613ad0858286016137b4565b9250506020613ae185828601613729565b9150509250929050565b6000602082019050613b00600083018461381c565b92915050565b6000602082019050613b1b600083018461382b565b92915050565b613b2a8161383a565b8114613b3557600080fd5b50565b600081359050613b4781613b21565b92915050565b613b56816138c5565b8114613b6157600080fd5b50565b600081359050613b7381613b4d565b92915050565b600080600060608486031215613b9257613b916136fe565b5b6000613ba0868287016137b4565b9350506020613bb186828701613b38565b9250506040613bc286828701613b64565b9150509250925092565b60008060408385031215613be357613be26136fe565b5b6000613bf1858286016137b4565b9250506020613c02858286016137b4565b9150509250929050565b60008060008060408587031215613c2657613c256136fe565b5b600085013567ffffffffffffffff811115613c4457613c43613703565b5b613c5087828801613984565b9450945050602085013567ffffffffffffffff811115613c7357613c72613703565b5b613c7f87828801613984565b925092505092959194509250565b60008060408385031215613ca457613ca36136fe565b5b6000613cb2858286016137b4565b9250506020613cc385828601613b64565b9150509250929050565b600081519050919050565b600082825260208201905092915050565b6000819050602082019050919050565b613d028161378b565b82525050565b600081519050919050565b600082825260208201905092915050565b6000819050602082019050919050565b613d3d81613708565b82525050565b6000613d4f8383613d34565b60208301905092915050565b6000602082019050919050565b6000613d7382613d08565b613d7d8185613d13565b9350613d8883613d24565b8060005b83811015613db9578151613da08882613d43565b9750613dab83613d5b565b925050600181019050613d8c565b5085935050505092915050565b613dcf8161383a565b82525050565b600060c083016000830151613ded6000860182613cf9565b506020830151613e006020860182613cf9565b5060408301518482036040860152613e188282613d68565b91505060608301518482036060860152613e328282613d68565b9150506080830151613e476080860182613d34565b5060a0830151613e5a60a0860182613dc6565b508091505092915050565b6000613e718383613dd5565b905092915050565b6000602082019050919050565b6000613e9182613ccd565b613e9b8185613cd8565b935083602082028501613ead85613ce9565b8060005b85811015613ee95784840389528151613eca8582613e65565b9450613ed583613e79565b925060208a01995050600181019050613eb1565b50829750879550505050505092915050565b60006020820190508181036000830152613f158184613e86565b905092915050565b6000613f2882613927565b9050919050565b613f3881613f1d565b82525050565b6000602082019050613f536000830184613f2f565b92915050565b600082825260208201905092915050565b7f4e6f7420617574686f72697a656420746f2075736520746869732066756e637460008201527f696f6e0000000000000000000000000000000000000000000000000000000000602082015250565b6000613fc6602383613f59565b9150613fd182613f6a565b604082019050919050565b60006020820190508181036000830152613ff581613fb9565b9050919050565b7f4d756c7469706c696572206d757374206265206c6f776572207468616e20313060008201527f30252028692e652e2076616c7565206c6f776572207468616e20313030303029602082015250565b6000614058604083613f59565b915061406382613ffc565b604082019050919050565b600060208201905081810360008301526140878161404b565b9050919050565b7f5472616e73616374696f6e7320746f77617264732073656c6620617265206e6f60008201527f7420616c6c6f7765640000000000000000000000000000000000000000000000602082015250565b60006140ea602983613f59565b91506140f58261408e565b604082019050919050565b60006020820190508181036000830152614119816140dd565b9050919050565b7f4172726179732073697a65206d757374206d6174636800000000000000000000600082015250565b6000614156601683613f59565b915061416182614120565b602082019050919050565b6000602082019050818103600083015261418581614149565b9050919050565b600082825260208201905092915050565b600080fd5b82818337505050565b60006141b7838561418c565b93507f07ffffffffffffffffffffffffffffffffffffffffffffffffffffffffffffff8311156141ea576141e961419d565b5b6020830292506141fb8385846141a2565b82840190509392505050565b600060608201905061421c600083018861381c565b818103602083015261422f8186886141ab565b905081810360408301526142448184866141ab565b90509695505050505050565b7f4e487b7100000000000000000000000000000000000000000000000000000000600052603260045260246000fd5b6000606082019050614294600083018661381c565b6142a1602083018561382b565b6142ae604083018461382b565b949350505050565b600060608201905081810360008301526142d18187896141ab565b905081810360208301526142e68185876141ab565b90506142f5604083018461382b565b9695505050505050565b600060c0830160008301516143176000860182613cf9565b50602083015161432a6020860182613cf9565b50604083015184820360408601526143428282613d68565b9150506060830151848203606086015261435c8282613d68565b91505060808301516143716080860182613d34565b5060a083015161438460a0860182613dc6565b508091505092915050565b600060208201905081810360008301526143a981846142ff565b905092915050565b7f4e487b7100000000000000000000000000000000000000000000000000000000600052601160045260246000fd5b60006143eb82613708565b91506143f683613708565b925082820390508181111561440e5761440d6143b1565b5b92915050565b7f4e487b7100000000000000000000000000000000000000000000000000000000600052603160045260246000fd5b600061444e82613708565b91507fffffffffffffffffffffffffffffffffffffffffffffffffffffffffffffffff82036144805761447f6143b1565b5b600182019050919050565b7f5472616e73616374696f6e206e6f7420666f756e642100000000000000000000600082015250565b60006144c1601683613f59565b91506144cc8261448b565b602082019050919050565b600060208201905081810360008301526144f0816144b4565b9050919050565b600080fd5b6000601f19601f8301169050919050565b7f4e487b7100000000000000000000000000000000000000000000000000000000600052604160045260246000fd5b614545826144fc565b810181811067ffffffffffffffff821117156145645761456361450d565b5b80604052505050565b60006145776136f4565b9050614583828261453c565b919050565b600080fd5b600080fd5b600067ffffffffffffffff8211156145ad576145ac61450d565b5b6145b6826144fc565b9050602081019050919050565b60005b838110156145e15780820151818401526020810190506145c6565b60008484015250505050565b60006146006145fb84614592565b61456d565b90508281526020810184848401111561461c5761461b61458d565b5b6146278482856145c3565b509392505050565b600082601f83011261464457614643613975565b5b81516146548482602086016145ed565b91505092915050565b60008151905061466c81613712565b92915050565b600060808284031215614688576146876144f7565b5b614692608061456d565b9050600082015167ffffffffffffffff8111156146b2576146b1614588565b5b6146be8482850161462f565b60008301525060206146d28482850161465d565b60208301525060406146e68482850161465d565b60408301525060606146fa8482850161465d565b60608301525092915050565b60006020828403121561471c5761471b6136fe565b5b600082015167ffffffffffffffff81111561473a57614739613703565b5b61474684828501614672565b91505092915050565b600061475a82613708565b915061476583613708565b925082820261477381613708565b9150828204841483151761478a576147896143b1565b5b5092915050565b600061479c82613708565b91506147a783613708565b92508282019050808211156147bf576147be6143b1565b5b92915050565b7f4e487b7100000000000000000000000000000000000000000000000000000000600052601260045260246000fd5b60006147ff82613708565b915061480a83613708565b92508261481a576148196147c5565b5b828204905092915050565b600060408201905061483a600083018561381c565b614847602083018461382b565b939250505056fea2646970667358221220482ec4b3c4815f347d96ac41dd7cc2d983a8b1c59546a8999d83408d778c34b164736f6c634300081e0033",
  "linkReferences": {},
  "deployedLinkReferences": {}
}