{
  "_format": "hh-sol-artifact-1",
  "contractName": "CashbackHandler",
  "sourceName": "contracts/implementation/CashbackHandler.sol",
  "abi": [
    {
      "inputs": [
        {
          "internalType": "address",
          "name": "cashbackTokenAddress",
          "type": "address"
        }
      ],
      "stateMutability": "nonpayable",
      "type": "constructor"
    },
    {
      "anonymous": false,
      "inputs": [
        {
          "indexed": true,
          "internalType": "address",
          "name": "user",
          "type": "address"
        },
        {
          "indexed": false,
          "internalType": "uint256",
          "name": "amount",
          "type": "uint256"
        }
      ],
      "name": "CashbackRedeemed",
      "type": "event"
    },
    {
      "inputs": [],
      "name": "MIN_CASHBACK_AMOUNT",
      "outputs": [
        {
          "internalType": "uint256",
          "name": "",
          "type": "uint256"
        }
      ],
      "stateMutability": "view",
      "type": "function"
    },
    {
      "inputs": [],
      "name": "cashbackToken",
      "outputs": [
        {
          "internalType": "contract CashbackToken",
          "name": "",
          "type": "address"
        }
      ],
      "stateMutability": "view",
      "type": "function"
    },
    {
      "inputs": [],
      "name": "redeemCashback",
      "outputs": [],
      "stateMutability": "nonpayable",
      "type": "function"
    }
  ],
  "bytecode": "0x608034607057601f61062a38819003918201601f19168301916001600160401b03831184841017607557808492602094604052833981010312607057516001600160a01b03811690819003607057600080546001600160a01b03191691909117905560405161059e908161008c8239f35b600080fd5b634e487b7160e01b600052604160045260246000fdfe608080604052600436101561001357600080fd5b600090813560e01c9081631aadb3701461042c575080632bddd94d146100685763e51b6e4f1461004257600080fd5b34610065578060031936011261006557602060405168056bc75e2d631000008152f35b80fd5b50346100655780600319360112610065578054604051636eb1769f60e11b815233600482015230602482015282916001600160a01b031690602081604481855afa9081156103c85783916103fa575b506040516395d89b4160e01b8152908382600481865afa908115610385576101609285926103d3575b5068056bc75e2d6310000090610159605060405180957f436f6e7472616374206d75737420626520617070726f76656420746f2073706560208301526f037321030ba103632b0b9ba10189818160851b60408301526101488151809260208686019101610488565b81010301601f198101855284610450565b1015610522565b6040516370a0823160e01b815233600482015290602082602481845afa9182156103c8578392610390575b506040516395d89b4160e01b81528381600481855afa801561038557602093610233928692610356575b5068056bc75e2d63100000906101596015603b60405180967f596f75206d7573742068617665206174206c65617374203130302000000000008b830152610204815180928d8686019101610488565b81017420746f2072656465656d206120636173686261636b60581b838201520301600a19810186520184610450565b6064604051809481936323b872dd60e01b835233600484015230602484015268056bc75e2d6310000060448401525af1801561034b57610313575b50805481906001600160a01b0316803b1561031057818091604460405180958193632770a7eb60e21b835230600484015268056bc75e2d6310000060248401525af18015610303576102f3575b60405168056bc75e2d6310000081527f7d57a29729ecf2f869c4c5edc24f0b5b8c90b5421b760c4e06c2222f26fdfe3760203392a280f35b6102fc91610450565b38816102bb565b50604051903d90823e3d90fd5b50fd5b6020813d602011610343575b8161032c60209383610450565b8101031261033f5751801515811461026e575b5080fd5b3d915061031f565b6040513d84823e3d90fd5b68056bc75e2d6310000091925061037e903d8089833e6103768183610450565b8101906104ab565b91906101b5565b6040513d86823e3d90fd5b9091506020813d6020116103c0575b816103ac60209383610450565b810103126103bc5751903861018b565b5050fd5b3d915061039f565b6040513d85823e3d90fd5b68056bc75e2d631000009192506103f3903d8088833e6103768183610450565b91906100e0565b90506020813d602011610424575b8161041560209383610450565b810103126103bc5751386100b7565b3d9150610408565b90503461033f578160031936011261033f5790546001600160a01b03168152602090f35b90601f8019910116810190811067ffffffffffffffff82111761047257604052565b634e487b7160e01b600052604160045260246000fd5b60005b83811061049b5750506000910152565b818101518382015260200161048b565b60208183031261051d5780519067ffffffffffffffff821161051d570181601f8201121561051d57805167ffffffffffffffff811161047257604051926104fc601f8301601f191660200185610450565b8184526020828401011161051d5761051a9160208085019101610488565b90565b600080fd5b1561052a5750565b6044604051809262461bcd60e51b82526020600483015261055a8151809281602486015260208686019101610488565b601f01601f19168101030190fdfea2646970667358221220a667917cf6375dbfdeda84622868513e915d164999145b9145859dcc2169723264736f6c634300081e0033",
  "linkReferences": {},
  "deployedLinkReferences": {}
}