{
  "_format": "hh-sol-artifact-1",
  "contractName": "CashbackHandler",
  "sourceName": "contracts/implementation/CashbackHandler.sol",
  "abi": [
    {
      "inputs": [
        {
          "internalType": "address",
          "name": "cashbackTokenAddress",
          "type": "address"
        }
      ],
      "stateMutability": "nonpayable",
      "type": "constructor"
    },
    {
      "anonymous": false,
      "inputs": [
        {
          "indexed": true,
          "internalType": "address",
          "name": "user",
          "type": "address"
        },
        {
          "indexed": false,
          "internalType": "uint256",
          "name": "amount",
          "type": "uint256"
        }
      ],
      "name": "CashbackRedeemed",
      "type": "event"
    },
    {
      "inputs": [],
      "name": "MIN_CASHBACK_AMOUNT",
      "outputs": [
        {
          "internalType": "uint256",
          "name": "",
          "type": "uint256"
        }
      ],
      "stateMutability": "view",
      "type": "function"
    },
    {
      "inputs": [],
      "name": "cashbackToken",
      "outputs": [
        {
          "internalType": "contract CashbackToken",
          "name": "",
          "type": "address"
        }
      ],
      "stateMutability": "view",
      "type": "function"
    },
    {
      "inputs": [],
      "name": "redeemCashback",
      "outputs": [],
      "stateMutability": "nonpayable",
      "type": "function"
    }
  ],
  "bytecode": "0x608060405234801561001057600080fd5b50604051610cb2380380610cb2833981810160405281019061003291906100db565b806000806101000a81548173ffffffffffffffffffffffffffffffffffffffff021916908373ffffffffffffffffffffffffffffffffffffffff16021790555050610108565b600080fd5b600073ffffffffffffffffffffffffffffffffffffffff82169050919050565b60006100a88261007d565b9050919050565b6100b88161009d565b81146100c357600080fd5b50565b6000815190506100d5816100af565b92915050565b6000602082840312156100f1576100f0610078565b5b60006100ff848285016100c6565b91505092915050565b610b9b806101176000396000f3fe608060405234801561001057600080fd5b50600436106100415760003560e01c80631aadb370146100465780632bddd94d14610064578063e51b6e4f1461006e575b600080fd5b61004e61008c565b60405161005b919061060d565b60405180910390f35b61006c6100b0565b005b610076610581565b6040516100839190610641565b60405180910390f35b60008054906101000a900473ffffffffffffffffffffffffffffffffffffffff1681565b68056bc75e2d6310000060008054906101000a900473ffffffffffffffffffffffffffffffffffffffff1673ffffffffffffffffffffffffffffffffffffffff1663dd62ed3e33306040518363ffffffff1660e01b815260040161011592919061067d565b602060405180830381865afa158015610132573d6000803e3d6000fd5b505050506040513d601f19601f8201168201806040525081019061015691906106e6565b101560008054906101000a900473ffffffffffffffffffffffffffffffffffffffff1673ffffffffffffffffffffffffffffffffffffffff166395d89b416040518163ffffffff1660e01b8152600401600060405180830381865afa1580156101c3573d6000803e3d6000fd5b505050506040513d6000823e3d601f19601f820116820180604052508101906101ec9190610874565b6040516020016101fc9190610976565b6040516020818303038152906040529061024c576040517f08c379a000000000000000000000000000000000000000000000000000000000815260040161024391906109e2565b60405180910390fd5b5068056bc75e2d6310000060008054906101000a900473ffffffffffffffffffffffffffffffffffffffff1673ffffffffffffffffffffffffffffffffffffffff166370a08231336040518263ffffffff1660e01b81526004016102b09190610a04565b602060405180830381865afa1580156102cd573d6000803e3d6000fd5b505050506040513d601f19601f820116820180604052508101906102f191906106e6565b101560008054906101000a900473ffffffffffffffffffffffffffffffffffffffff1673ffffffffffffffffffffffffffffffffffffffff166395d89b416040518163ffffffff1660e01b8152600401600060405180830381865afa15801561035e573d6000803e3d6000fd5b505050506040513d6000823e3d601f19601f820116820180604052508101906103879190610874565b6040516020016103979190610a6b565b604051602081830303815290604052906103e7576040517f08c379a00000000000000000000000000000000000000000000000000000000081526004016103de91906109e2565b60405180910390fd5b5060008054906101000a900473ffffffffffffffffffffffffffffffffffffffff1673ffffffffffffffffffffffffffffffffffffffff166323b872dd333068056bc75e2d631000006040518463ffffffff1660e01b815260040161044e93929190610aa0565b6020604051808303816000875af115801561046d573d6000803e3d6000fd5b505050506040513d601f19601f820116820180604052508101906104919190610b0f565b5060008054906101000a900473ffffffffffffffffffffffffffffffffffffffff1673ffffffffffffffffffffffffffffffffffffffff16639dc29fac3068056bc75e2d631000006040518363ffffffff1660e01b81526004016104f6929190610b3c565b600060405180830381600087803b15801561051057600080fd5b505af1158015610524573d6000803e3d6000fd5b505050503373ffffffffffffffffffffffffffffffffffffffff167f7d57a29729ecf2f869c4c5edc24f0b5b8c90b5421b760c4e06c2222f26fdfe3768056bc75e2d631000006040516105779190610641565b60405180910390a2565b68056bc75e2d6310000081565b600073ffffffffffffffffffffffffffffffffffffffff82169050919050565b6000819050919050565b60006105d36105ce6105c98461058e565b6105ae565b61058e565b9050919050565b60006105e5826105b8565b9050919050565b60006105f7826105da565b9050919050565b610607816105ec565b82525050565b600060208201905061062260008301846105fe565b92915050565b6000819050919050565b61063b81610628565b82525050565b60006020820190506106566000830184610632565b92915050565b60006106678261058e565b9050919050565b6106778161065c565b82525050565b6000604082019050610692600083018561066e565b61069f602083018461066e565b9392505050565b6000604051905090565b600080fd5b600080fd5b6106c381610628565b81146106ce57600080fd5b50565b6000815190506106e0816106ba565b92915050565b6000602082840312156106fc576106fb6106b0565b5b600061070a848285016106d1565b91505092915050565b600080fd5b600080fd5b6000601f19601f8301169050919050565b7f4e487b7100000000000000000000000000000000000000000000000000000000600052604160045260246000fd5b6107668261071d565b810181811067ffffffffffffffff821117156107855761078461072e565b5b80604052505050565b60006107986106a6565b90506107a4828261075d565b919050565b600067ffffffffffffffff8211156107c4576107c361072e565b5b6107cd8261071d565b9050602081019050919050565b60005b838110156107f85780820151818401526020810190506107dd565b60008484015250505050565b6000610817610812846107a9565b61078e565b90508281526020810184848401111561083357610832610718565b5b61083e8482856107da565b509392505050565b600082601f83011261085b5761085a610713565b5b815161086b848260208601610804565b91505092915050565b60006020828403121561088a576108896106b0565b5b600082015167ffffffffffffffff8111156108a8576108a76106b5565b5b6108b484828501610846565b91505092915050565b600081905092915050565b7f436f6e7472616374206d75737420626520617070726f76656420746f2073706560008201527f6e64206174206c65617374203130302000000000000000000000000000000000602082015250565b60006109246030836108bd565b915061092f826108c8565b603082019050919050565b600081519050919050565b60006109508261093a565b61095a81856108bd565b935061096a8185602086016107da565b80840191505092915050565b600061098182610917565b915061098d8284610945565b915081905092915050565b600082825260208201905092915050565b60006109b48261093a565b6109be8185610998565b93506109ce8185602086016107da565b6109d78161071d565b840191505092915050565b600060208201905081810360008301526109fc81846109a9565b905092915050565b6000602082019050610a19600083018461066e565b92915050565b7f596f75206d7573742068617665206174206c6561737420313030200000000000815250565b7f20746f2072656465656d206120636173686261636b0000000000000000000000815250565b6000610a7682610a1f565b601b82019150610a868284610945565b9150610a9182610a45565b60158201915081905092915050565b6000606082019050610ab5600083018661066e565b610ac2602083018561066e565b610acf6040830184610632565b949350505050565b60008115159050919050565b610aec81610ad7565b8114610af757600080fd5b50565b600081519050610b0981610ae3565b92915050565b600060208284031215610b2557610b246106b0565b5b6000610b3384828501610afa565b91505092915050565b6000604082019050610b51600083018561066e565b610b5e6020830184610632565b939250505056fea2646970667358221220a7583e4f8d868833de19bbe92e284f6f2a358287aad0d704ba8191ce70934f0e64736f6c634300081e0033",
  "linkReferences": {},
  "deployedLinkReferences": {}
}