{
  "_format": "hh-sol-artifact-1",
  "contractName": "InventoryManager",
  "sourceName": "contracts/implementation/InventoryManager.sol",
  "abi": [
    {
      "inputs": [
        {
          "internalType": "address",
          "name": "productManagerAddress",
          "type": "address"
        }
      ],
      "stateMutability": "nonpayable",
      "type": "constructor"
    },
    {
      "inputs": [
        {
          "internalType": "address",
          "name": "owner",
          "type": "address"
        }
      ],
      "name": "OwnableInvalidOwner",
      "type": "error"
    },
    {
      "inputs": [
        {
          "internalType": "address",
          "name": "account",
          "type": "address"
        }
      ],
      "name": "OwnableUnauthorizedAccount",
      "type": "error"
    },
    {
      "anonymous": false,
      "inputs": [
        {
          "indexed": true,
          "internalType": "address",
          "name": "manufacturer",
          "type": "address"
        },
        {
          "indexed": true,
          "internalType": "uint256",
          "name": "lotId",
          "type": "uint256"
        },
        {
          "indexed": false,
          "internalType": "uint256",
          "name": "quantity",
          "type": "uint256"
        }
      ],
      "name": "AddedToManufacturerInventory",
      "type": "event"
    },
    {
      "anonymous": false,
      "inputs": [
        {
          "indexed": true,
          "internalType": "address",
          "name": "previousOwner",
          "type": "address"
        },
        {
          "indexed": true,
          "internalType": "address",
          "name": "newOwner",
          "type": "address"
        }
      ],
      "name": "OwnershipTransferred",
      "type": "event"
    },
    {
      "inputs": [
        {
          "internalType": "address",
          "name": "account",
          "type": "address"
        },
        {
          "internalType": "uint256",
          "name": "lotId",
          "type": "uint256"
        },
        {
          "internalType": "uint256",
          "name": "quantity",
          "type": "uint256"
        }
      ],
      "name": "addToInventory",
      "outputs": [],
      "stateMutability": "nonpayable",
      "type": "function"
    },
    {
      "inputs": [
        {
          "internalType": "uint256",
          "name": "lotId",
          "type": "uint256"
        }
      ],
      "name": "addToManufacturerInventory",
      "outputs": [],
      "stateMutability": "nonpayable",
      "type": "function"
    },
    {
      "inputs": [
        {
          "internalType": "address",
          "name": "",
          "type": "address"
        }
      ],
      "name": "authorizedUsers",
      "outputs": [
        {
          "internalType": "bool",
          "name": "",
          "type": "bool"
        }
      ],
      "stateMutability": "view",
      "type": "function"
    },
    {
      "inputs": [
        {
          "internalType": "address",
          "name": "account",
          "type": "address"
        }
      ],
      "name": "getInventory",
      "outputs": [
        {
          "internalType": "uint256[]",
          "name": "lotIds",
          "type": "uint256[]"
        },
        {
          "internalType": "uint256[]",
          "name": "quantities",
          "type": "uint256[]"
        }
      ],
      "stateMutability": "view",
      "type": "function"
    },
    {
      "inputs": [],
      "name": "getMyInventory",
      "outputs": [
        {
          "internalType": "uint256[]",
          "name": "lotIds",
          "type": "uint256[]"
        },
        {
          "internalType": "uint256[]",
          "name": "quantities",
          "type": "uint256[]"
        }
      ],
      "stateMutability": "view",
      "type": "function"
    },
    {
      "inputs": [
        {
          "internalType": "address",
          "name": "account",
          "type": "address"
        },
        {
          "internalType": "uint256[]",
          "name": "lotIds",
          "type": "uint256[]"
        },
        {
          "internalType": "uint256[]",
          "name": "quantities",
          "type": "uint256[]"
        }
      ],
      "name": "hasSufficientInventory",
      "outputs": [],
      "stateMutability": "view",
      "type": "function"
    },
    {
      "inputs": [
        {
          "internalType": "address",
          "name": "",
          "type": "address"
        }
      ],
      "name": "manufacturerUsers",
      "outputs": [
        {
          "internalType": "bool",
          "name": "",
          "type": "bool"
        }
      ],
      "stateMutability": "view",
      "type": "function"
    },
    {
      "inputs": [],
      "name": "owner",
      "outputs": [
        {
          "internalType": "address",
          "name": "",
          "type": "address"
        }
      ],
      "stateMutability": "view",
      "type": "function"
    },
    {
      "inputs": [],
      "name": "productManager",
      "outputs": [
        {
          "internalType": "contract ProductManager",
          "name": "",
          "type": "address"
        }
      ],
      "stateMutability": "view",
      "type": "function"
    },
    {
      "inputs": [
        {
          "internalType": "address",
          "name": "account",
          "type": "address"
        },
        {
          "internalType": "uint256",
          "name": "lotId",
          "type": "uint256"
        },
        {
          "internalType": "uint256",
          "name": "quantity",
          "type": "uint256"
        }
      ],
      "name": "removeFromInventory",
      "outputs": [],
      "stateMutability": "nonpayable",
      "type": "function"
    },
    {
      "inputs": [],
      "name": "renounceOwnership",
      "outputs": [],
      "stateMutability": "nonpayable",
      "type": "function"
    },
    {
      "inputs": [
        {
          "internalType": "address",
          "name": "wallet",
          "type": "address"
        },
        {
          "internalType": "bool",
          "name": "authorized",
          "type": "bool"
        }
      ],
      "name": "setManufacturerAuth",
      "outputs": [],
      "stateMutability": "nonpayable",
      "type": "function"
    },
    {
      "inputs": [
        {
          "internalType": "address",
          "name": "wallet",
          "type": "address"
        },
        {
          "internalType": "bool",
          "name": "authorized",
          "type": "bool"
        }
      ],
      "name": "setUserAuth",
      "outputs": [],
      "stateMutability": "nonpayable",
      "type": "function"
    },
    {
      "inputs": [
        {
          "internalType": "address",
          "name": "newOwner",
          "type": "address"
        }
      ],
      "name": "transferOwnership",
      "outputs": [],
      "stateMutability": "nonpayable",
      "type": "function"
    }
  ],
  "bytecode": "0x60803460d157601f61138538819003918201601f19168301916001600160401b0383118484101760d65780849260209460405283398101031260d157516001600160a01b0381169081900360d157331560bb5760008054336001600160a01b0319821681178355604051939290916001600160a01b0316907f8be0079c531659141344cd1fd0a4f28419497f9722a3daafe3b4186f6b6457e09080a3600180546001600160a01b03191691909117905561129890816100ed8239f35b631e4fbdf760e01b600052600060045260246000fd5b600080fd5b634e487b7160e01b600052604160045260246000fdfe608080604052600436101561001357600080fd5b600090813560e01c908163076188ff14610810575080631828983a146107d157806327457b3b1461071157806357f2b3fe1461062857806360c068b0146105f8578063715018a61461059e5780638b87c544146104b15780638da5cb5b1461048a5780639251f7bd1461044b57806399081247146101ed578063d82c6eb6146101ab578063e1a46b551461016c578063f2fde38b146100e65763f426306f146100bb57600080fd5b346100e357806003193601126100e3576001546040516001600160a01b039091168152602090f35b80fd5b50346100e35760203660031901126100e357610100610a39565b610108611239565b6001600160a01b031680156101585781546001600160a01b03198116821783556001600160a01b03167f8be0079c531659141344cd1fd0a4f28419497f9722a3daafe3b4186f6b6457e08380a380f35b631e4fbdf760e01b82526004829052602482fd5b50346100e35760203660031901126100e35760209060ff906040906001600160a01b03610197610a39565b168152600384522054166040519015158152f35b50346100e3576101ea6101bd36610ada565b906101c6611239565b60018060a01b031683526002602052604083209060ff801983541691151516179055565b80f35b50346100e35760603660031901126100e357610207610a39565b60243567ffffffffffffffff811161044757610227903690600401610b09565b60449291923567ffffffffffffffff81116104435761024a903690600401610b09565b939091848103610405576001546001600160a01b0390811695941693865b828110610273578780f35b61027e8184866110ba565b6040516355ccae8960e11b81529035600482015288816024818b5afa80156103fa576103da575b508588526004602052604088206102bd8285876110ba565b35895260205260408820546102d38284886110ba565b35116102e157600101610268565b6103be600186602061033860408d8a61032c898f9a61031c6103108f926103d69f61031661031083878b6110ba565b356110ca565b9c6110ba565b9b855260048852858520936110ba565b358252845220546110ca565b6103a761039a60026031604051998a9770028bab0b73a34ba3c903337b9103637ba1607d1b888a0152610373815180928a868d019101610b8e565b880161040560f31b83820152610392825180938a603385019101610b8e565b010101610dfa565b9182815194859201610b8e565b01602960f81b815203601e19810184520182610b3a565b60405162461bcd60e51b815291829160048301610e36565b0390fd5b6103f5903d808b833e6103ed8183610b3a565b810190610bf3565b6102a5565b6040513d8b823e3d90fd5b60405162461bcd60e51b8152602060048201526016602482015275082e4e4c2f2e640e6d2f4ca40daeae6e840dac2e8c6d60531b6044820152606490fd5b8480fd5b8280fd5b50346100e3576101ea61045d36610ada565b90610466611239565b60018060a01b031683526003602052604083209060ff801983541691151516179055565b50346100e357806003193601126100e357546040516001600160a01b039091168152602090f35b50346100e35760203660031901126100e3576104cb610a39565b33825260026020526104e360ff604084205416610da2565b60018060a01b031690818152600560205260408120906040518083602082955493848152019084526020842092845b81811061058557505061052792500383610b3a565b81519061053382610d5c565b93815b838110610550576040518061054c888883610a88565b0390f35b6001908284526004602052604084206105698288610d8e565b518552602052604084205461057e8289610d8e565b5201610536565b8454835260019485019487945060209093019201610512565b50346100e357806003193601126100e3576105b7611239565b80546001600160a01b03198116825581906001600160a01b03167f8be0079c531659141344cd1fd0a4f28419497f9722a3daafe3b4186f6b6457e08280a380f35b50346100e3576101ea61060a36610ab0565b91338552600260205261062360ff604087205416610da2565b610e62565b50346100e35761063736610ab0565b91338452600260205261065060ff604086205416610da2565b6001546040516355ccae8960e11b815260048101849052908590829060249082906001600160a01b03165afa8015610706576106ee575b506001600160a01b0316808452600460209081526040808620848752909152842054156106d4575b83526004602052604083209083526020526106cf60408320918254610d21565b905580f35b80845260056020526106e98260408620610cde565b6106af565b610701903d8087833e6103ed8183610b3a565b610687565b6040513d87823e3d90fd5b50346100e357806003193601126100e3573381526005602052604081206040518082602082945493848152019085526020852092855b8181106107b857505061075c92500382610b3a565b805161076781610d5c565b92805b8281106107835750505061054c60405192839283610a88565b60019033835260046020526040832061079c8287610d8e565b51845260205260408320546107b18288610d8e565b520161076a565b8454835260019485019486945060209093019201610747565b50346100e35760203660031901126100e35760209060ff906040906001600160a01b036107fc610a39565b168152600284522054166040519015158152f35b9050346109525760203660031901126109525760043590338352600360205260ff604084205416156109d957506001546040516355ccae8960e11b815260048101839052908390829060249082906001600160a01b03165afa9081156109ce5783916109b4575b5060a081015161096f5760409033845260046020528184208385526020528184205415610956575b0180513384526004602052604084208385526020526108c360408520918254610d21565b905560015483906001600160a01b0316803b15610952578190602460405180948193630c2eb28b60e41b83528860048401525af1801561094757610933575b50516040519081527f05aeb47ba2543aeaa51d0fa38b63a7ea6130827f507bb6733b542a2b7e4e118e60203392a380f35b8361094091949294610b3a565b9138610902565b6040513d86823e3d90fd5b5080fd5b338452600560205261096a83838620610cde565b61089f565b60405162461bcd60e51b815260206004820152601d60248201527f4c6f742068617320616c7265616479206265656e2070726f64756365640000006044820152606490fd5b6109c891503d8085833e6103ed8183610b3a565b38610877565b6040513d85823e3d90fd5b62461bcd60e51b815260206004820152603560248201527f4f6e6c7920746865206d616e75666163747572657220697320616c6c6f776564604482015274103a37903ab9b2903a3434b990333ab731ba34b7b760591b6064820152608490fd5b600435906001600160a01b0382168203610a4f57565b600080fd5b906020808351928381520192019060005b818110610a725750505090565b8251845260209384019390920191600101610a65565b9091610a9f610aad93604084526040840190610a54565b916020818403910152610a54565b90565b6060906003190112610a4f576004356001600160a01b0381168103610a4f57906024359060443590565b6040906003190112610a4f576004356001600160a01b0381168103610a4f57906024358015158103610a4f5790565b9181601f84011215610a4f5782359167ffffffffffffffff8311610a4f576020808501948460051b010111610a4f57565b90601f8019910116810190811067ffffffffffffffff821117610b5c57604052565b634e487b7160e01b600052604160045260246000fd5b67ffffffffffffffff8111610b5c57601f01601f191660200190565b60005b838110610ba15750506000910152565b8181015183820152602001610b91565b81601f82011215610a4f578051610bc781610b72565b92610bd56040519485610b3a565b81845260208284010111610a4f57610aad9160208085019101610b8e565b602081830312610a4f5780519067ffffffffffffffff8211610a4f57019060c082820312610a4f576040519160c0830183811067ffffffffffffffff821117610b5c57604052805167ffffffffffffffff8111610a4f5782610c56918301610bb1565b8352602081015167ffffffffffffffff8111610a4f5760a092610c7a918301610bb1565b602084015260408101516040840152606081015160608401526080810151608084015201518015158103610a4f5760a082015290565b8054821015610cc85760005260206000200190600090565b634e487b7160e01b600052603260045260246000fd5b9081549168010000000000000000831015610b5c5782610d06916001610d1f95018155610cb0565b90919082549060031b91821b91600019901b1916179055565b565b91908201809211610d2e57565b634e487b7160e01b600052601160045260246000fd5b67ffffffffffffffff8111610b5c5760051b60200190565b90610d6682610d44565b610d736040519182610b3a565b8281528092610d84601f1991610d44565b0190602036910137565b8051821015610cc85760209160051b010190565b15610da957565b60405162461bcd60e51b815260206004820152602360248201527f4e6f7420617574686f72697a656420746f2075736520746869732066756e637460448201526234b7b760e91b6064820152608490fd5b7f2920697320626967676572207468616e2074686520616d6f756e7420696e20698152690dceccadce8dee4f240560b31b6020820152602a0190565b60409160208252610e568151809281602086015260208686019101610b8e565b601f01601f1916010190565b6001546040516355ccae8960e11b81526004810184905292939290600090829060249082906001600160a01b03165afa80156110ae57611095575b5060018060a01b031690816000526004602052604060002083600052602052602a8160406000205410610f486001610ed4856110ca565b8660005260046020526040600020886000526020526020610ef96040600020546110ca565b610f3161039a604051988995690a2eac2dce8d2e8f240560b31b86880152610f298151809288858b019101610b8e565b860101610dfa565b01602960f81b815203601e19810185520183610b3a565b611079575081600052600460205260406000208360005260205260406000208054918203918211610d2e575580600052600460205260406000208260005260205260406000205415610f98575050565b60005b8160005260056020526040600020548110156110745781600052600560205282610fc9826040600020610cb0565b90549060031b1c14610fdd57600101610f9b565b60008281526005602052604090208054929350916000198101908111610d2e5761100d610d069161102894610cb0565b90549060031b1c918460005260056020526040600020610cb0565b600052600560205260406000208054801561105e57600019019061104c8282610cb0565b8154906000199060031b1b1916905555565b634e487b7160e01b600052603160045260246000fd5b505050565b60405162461bcd60e51b81529081906103d69060048301610e36565b6110a9903d806000833e6103ed8183610b3a565b610e9d565b6040513d6000823e3d90fd5b9190811015610cc85760051b0190565b8060009172184f03e93ff9f4daa797ed6e38ed64bf6a1f0160401b821015611216575b806d04ee2d6d415b85acef8100000000600a9210156111fb575b662386f26fc100008110156111e7575b6305f5e1008110156111d6575b6127108110156111c7575b60648110156111b9575b10156111ae575b600a6021600184019361115285610b72565b946111606040519687610b3a565b80865261116f601f1991610b72565b013660208701378401015b60001901916f181899199a1a9b1b9c1cb0b131b232b360811b8282061a83530480156111a957600a909161117a565b505090565b600190910190611140565b606460029104930192611139565b6127106004910493019261112f565b6305f5e10060089104930192611124565b662386f26fc1000060109104930192611117565b6d04ee2d6d415b85acef810000000060209104930192611107565b506040915072184f03e93ff9f4daa797ed6e38ed64bf6a1f0160401b81046110ed565b6000546001600160a01b0316330361124d57565b63118cdaa760e01b6000523360045260246000fdfea26469706673582212206bf1a582a0afae3ca02383fa796c717f3ffbe7f10a3ba35575a407166e35f56c64736f6c634300081e0033",
  "linkReferences": {},
  "deployedLinkReferences": {}
}