{
  "_format": "hh-sol-artifact-1",
  "contractName": "ProductManager",
  "sourceName": "contracts/implementation/ProductManager.sol",
  "abi": [
    {
      "inputs": [],
      "stateMutability": "nonpayable",
      "type": "constructor"
    },
    {
      "inputs": [
        {
          "internalType": "address",
          "name": "owner",
          "type": "address"
        }
      ],
      "name": "OwnableInvalidOwner",
      "type": "error"
    },
    {
      "inputs": [
        {
          "internalType": "address",
          "name": "account",
          "type": "address"
        }
      ],
      "name": "OwnableUnauthorizedAccount",
      "type": "error"
    },
    {
      "anonymous": false,
      "inputs": [
        {
          "indexed": true,
          "internalType": "uint256",
          "name": "lotId",
          "type": "uint256"
        },
        {
          "indexed": true,
          "internalType": "uint256",
          "name": "productId",
          "type": "uint256"
        },
        {
          "components": [
            {
              "internalType": "string",
              "name": "timestamp",
              "type": "string"
            },
            {
              "internalType": "string",
              "name": "expirationDate",
              "type": "string"
            },
            {
              "internalType": "uint256",
              "name": "totalQuantity",
              "type": "uint256"
            },
            {
              "internalType": "uint256",
              "name": "unitPrice",
              "type": "uint256"
            },
            {
              "internalType": "uint256",
              "name": "productId",
              "type": "uint256"
            },
            {
              "internalType": "bool",
              "name": "hasBeenProduced",
              "type": "bool"
            }
          ],
          "indexed": false,
          "internalType": "struct ProductManager.LotDetails",
          "name": "lotdetails",
          "type": "tuple"
        }
      ],
      "name": "LotCreated",
      "type": "event"
    },
    {
      "anonymous": false,
      "inputs": [
        {
          "indexed": true,
          "internalType": "uint256",
          "name": "lotId",
          "type": "uint256"
        }
      ],
      "name": "LotRemoved",
      "type": "event"
    },
    {
      "anonymous": false,
      "inputs": [
        {
          "indexed": true,
          "internalType": "address",
          "name": "previousOwner",
          "type": "address"
        },
        {
          "indexed": true,
          "internalType": "address",
          "name": "newOwner",
          "type": "address"
        }
      ],
      "name": "OwnershipTransferred",
      "type": "event"
    },
    {
      "anonymous": false,
      "inputs": [
        {
          "indexed": true,
          "internalType": "uint256",
          "name": "productId",
          "type": "uint256"
        },
        {
          "components": [
            {
              "internalType": "uint256",
              "name": "productIdentification",
              "type": "uint256"
            },
            {
              "internalType": "uint256",
              "name": "materials",
              "type": "uint256"
            },
            {
              "internalType": "uint256",
              "name": "design",
              "type": "uint256"
            },
            {
              "internalType": "uint256",
              "name": "specifications",
              "type": "uint256"
            },
            {
              "internalType": "uint256",
              "name": "lifecycle",
              "type": "uint256"
            },
            {
              "internalType": "uint256",
              "name": "installation_maintenance",
              "type": "uint256"
            },
            {
              "internalType": "uint256",
              "name": "composition",
              "type": "uint256"
            },
            {
              "internalType": "uint256",
              "name": "microplastics",
              "type": "uint256"
            },
            {
              "internalType": "uint256",
              "name": "env_impact",
              "type": "uint256"
            },
            {
              "internalType": "uint256",
              "name": "transport_packaging",
              "type": "uint256"
            },
            {
              "internalType": "uint256",
              "name": "sustainability",
              "type": "uint256"
            },
            {
              "internalType": "uint256",
              "name": "maintenance",
              "type": "uint256"
            },
            {
              "internalType": "uint256",
              "name": "warranty",
              "type": "uint256"
            },
            {
              "internalType": "uint256",
              "name": "energy_recovery",
              "type": "uint256"
            },
            {
              "internalType": "uint256",
              "name": "substance_of_concern",
              "type": "uint256"
            }
          ],
          "indexed": false,
          "internalType": "struct ProductManager.DPP",
          "name": "dpp",
          "type": "tuple"
        }
      ],
      "name": "ProductCreated",
      "type": "event"
    },
    {
      "anonymous": false,
      "inputs": [
        {
          "indexed": true,
          "internalType": "uint256",
          "name": "productId",
          "type": "uint256"
        }
      ],
      "name": "ProductRemoved",
      "type": "event"
    },
    {
      "inputs": [
        {
          "internalType": "address",
          "name": "",
          "type": "address"
        }
      ],
      "name": "authorizedUsers",
      "outputs": [
        {
          "internalType": "bool",
          "name": "",
          "type": "bool"
        }
      ],
      "stateMutability": "view",
      "type": "function"
    },
    {
      "inputs": [
        {
          "internalType": "uint256",
          "name": "lotId",
          "type": "uint256"
        },
        {
          "internalType": "string",
          "name": "timestamp",
          "type": "string"
        },
        {
          "internalType": "string",
          "name": "expirationDate",
          "type": "string"
        },
        {
          "internalType": "uint256",
          "name": "totalQuantity",
          "type": "uint256"
        },
        {
          "internalType": "uint256",
          "name": "unitPrice",
          "type": "uint256"
        },
        {
          "internalType": "uint256",
          "name": "productId",
          "type": "uint256"
        }
      ],
      "name": "createLot",
      "outputs": [],
      "stateMutability": "nonpayable",
      "type": "function"
    },
    {
      "inputs": [
        {
          "internalType": "uint256",
          "name": "productId",
          "type": "uint256"
        },
        {
          "components": [
            {
              "internalType": "uint256",
              "name": "productIdentification",
              "type": "uint256"
            },
            {
              "internalType": "uint256",
              "name": "materials",
              "type": "uint256"
            },
            {
              "internalType": "uint256",
              "name": "design",
              "type": "uint256"
            },
            {
              "internalType": "uint256",
              "name": "specifications",
              "type": "uint256"
            },
            {
              "internalType": "uint256",
              "name": "lifecycle",
              "type": "uint256"
            },
            {
              "internalType": "uint256",
              "name": "installation_maintenance",
              "type": "uint256"
            },
            {
              "internalType": "uint256",
              "name": "composition",
              "type": "uint256"
            },
            {
              "internalType": "uint256",
              "name": "microplastics",
              "type": "uint256"
            },
            {
              "internalType": "uint256",
              "name": "env_impact",
              "type": "uint256"
            },
            {
              "internalType": "uint256",
              "name": "transport_packaging",
              "type": "uint256"
            },
            {
              "internalType": "uint256",
              "name": "sustainability",
              "type": "uint256"
            },
            {
              "internalType": "uint256",
              "name": "maintenance",
              "type": "uint256"
            },
            {
              "internalType": "uint256",
              "name": "warranty",
              "type": "uint256"
            },
            {
              "internalType": "uint256",
              "name": "energy_recovery",
              "type": "uint256"
            },
            {
              "internalType": "uint256",
              "name": "substance_of_concern",
              "type": "uint256"
            }
          ],
          "internalType": "struct ProductManager.DPP",
          "name": "dpp",
          "type": "tuple"
        }
      ],
      "name": "createProduct",
      "outputs": [],
      "stateMutability": "nonpayable",
      "type": "function"
    },
    {
      "inputs": [],
      "name": "getAllLots",
      "outputs": [
        {
          "internalType": "uint256[]",
          "name": "",
          "type": "uint256[]"
        },
        {
          "components": [
            {
              "internalType": "string",
              "name": "timestamp",
              "type": "string"
            },
            {
              "internalType": "string",
              "name": "expirationDate",
              "type": "string"
            },
            {
              "internalType": "uint256",
              "name": "totalQuantity",
              "type": "uint256"
            },
            {
              "internalType": "uint256",
              "name": "unitPrice",
              "type": "uint256"
            },
            {
              "internalType": "uint256",
              "name": "productId",
              "type": "uint256"
            },
            {
              "internalType": "bool",
              "name": "hasBeenProduced",
              "type": "bool"
            }
          ],
          "internalType": "struct ProductManager.LotDetails[]",
          "name": "",
          "type": "tuple[]"
        }
      ],
      "stateMutability": "view",
      "type": "function"
    },
    {
      "inputs": [],
      "name": "getAllProducts",
      "outputs": [
        {
          "internalType": "uint256[]",
          "name": "",
          "type": "uint256[]"
        },
        {
          "components": [
            {
              "internalType": "uint256",
              "name": "productIdentification",
              "type": "uint256"
            },
            {
              "internalType": "uint256",
              "name": "materials",
              "type": "uint256"
            },
            {
              "internalType": "uint256",
              "name": "design",
              "type": "uint256"
            },
            {
              "internalType": "uint256",
              "name": "specifications",
              "type": "uint256"
            },
            {
              "internalType": "uint256",
              "name": "lifecycle",
              "type": "uint256"
            },
            {
              "internalType": "uint256",
              "name": "installation_maintenance",
              "type": "uint256"
            },
            {
              "internalType": "uint256",
              "name": "composition",
              "type": "uint256"
            },
            {
              "internalType": "uint256",
              "name": "microplastics",
              "type": "uint256"
            },
            {
              "internalType": "uint256",
              "name": "env_impact",
              "type": "uint256"
            },
            {
              "internalType": "uint256",
              "name": "transport_packaging",
              "type": "uint256"
            },
            {
              "internalType": "uint256",
              "name": "sustainability",
              "type": "uint256"
            },
            {
              "internalType": "uint256",
              "name": "maintenance",
              "type": "uint256"
            },
            {
              "internalType": "uint256",
              "name": "warranty",
              "type": "uint256"
            },
            {
              "internalType": "uint256",
              "name": "energy_recovery",
              "type": "uint256"
            },
            {
              "internalType": "uint256",
              "name": "substance_of_concern",
              "type": "uint256"
            }
          ],
          "internalType": "struct ProductManager.DPP[]",
          "name": "",
          "type": "tuple[]"
        }
      ],
      "stateMutability": "view",
      "type": "function"
    },
    {
      "inputs": [
        {
          "internalType": "uint256",
          "name": "lotId",
          "type": "uint256"
        }
      ],
      "name": "getLot",
      "outputs": [
        {
          "components": [
            {
              "internalType": "string",
              "name": "timestamp",
              "type": "string"
            },
            {
              "internalType": "string",
              "name": "expirationDate",
              "type": "string"
            },
            {
              "internalType": "uint256",
              "name": "totalQuantity",
              "type": "uint256"
            },
            {
              "internalType": "uint256",
              "name": "unitPrice",
              "type": "uint256"
            },
            {
              "internalType": "uint256",
              "name": "productId",
              "type": "uint256"
            },
            {
              "internalType": "bool",
              "name": "hasBeenProduced",
              "type": "bool"
            }
          ],
          "internalType": "struct ProductManager.LotDetails",
          "name": "",
          "type": "tuple"
        }
      ],
      "stateMutability": "view",
      "type": "function"
    },
    {
      "inputs": [
        {
          "internalType": "uint256",
          "name": "productId",
          "type": "uint256"
        }
      ],
      "name": "getProduct",
      "outputs": [
        {
          "components": [
            {
              "internalType": "uint256",
              "name": "productIdentification",
              "type": "uint256"
            },
            {
              "internalType": "uint256",
              "name": "materials",
              "type": "uint256"
            },
            {
              "internalType": "uint256",
              "name": "design",
              "type": "uint256"
            },
            {
              "internalType": "uint256",
              "name": "specifications",
              "type": "uint256"
            },
            {
              "internalType": "uint256",
              "name": "lifecycle",
              "type": "uint256"
            },
            {
              "internalType": "uint256",
              "name": "installation_maintenance",
              "type": "uint256"
            },
            {
              "internalType": "uint256",
              "name": "composition",
              "type": "uint256"
            },
            {
              "internalType": "uint256",
              "name": "microplastics",
              "type": "uint256"
            },
            {
              "internalType": "uint256",
              "name": "env_impact",
              "type": "uint256"
            },
            {
              "internalType": "uint256",
              "name": "transport_packaging",
              "type": "uint256"
            },
            {
              "internalType": "uint256",
              "name": "sustainability",
              "type": "uint256"
            },
            {
              "internalType": "uint256",
              "name": "maintenance",
              "type": "uint256"
            },
            {
              "internalType": "uint256",
              "name": "warranty",
              "type": "uint256"
            },
            {
              "internalType": "uint256",
              "name": "energy_recovery",
              "type": "uint256"
            },
            {
              "internalType": "uint256",
              "name": "substance_of_concern",
              "type": "uint256"
            }
          ],
          "internalType": "struct ProductManager.DPP",
          "name": "",
          "type": "tuple"
        }
      ],
      "stateMutability": "view",
      "type": "function"
    },
    {
      "inputs": [
        {
          "internalType": "address",
          "name": "",
          "type": "address"
        }
      ],
      "name": "inventoryManager",
      "outputs": [
        {
          "internalType": "bool",
          "name": "",
          "type": "bool"
        }
      ],
      "stateMutability": "view",
      "type": "function"
    },
    {
      "inputs": [
        {
          "internalType": "uint256",
          "name": "",
          "type": "uint256"
        }
      ],
      "name": "lots",
      "outputs": [
        {
          "internalType": "string",
          "name": "timestamp",
          "type": "string"
        },
        {
          "internalType": "string",
          "name": "expirationDate",
          "type": "string"
        },
        {
          "internalType": "uint256",
          "name": "totalQuantity",
          "type": "uint256"
        },
        {
          "internalType": "uint256",
          "name": "unitPrice",
          "type": "uint256"
        },
        {
          "internalType": "uint256",
          "name": "productId",
          "type": "uint256"
        },
        {
          "internalType": "bool",
          "name": "hasBeenProduced",
          "type": "bool"
        }
      ],
      "stateMutability": "view",
      "type": "function"
    },
    {
      "inputs": [
        {
          "internalType": "uint256",
          "name": "",
          "type": "uint256"
        }
      ],
      "name": "lotsIds",
      "outputs": [
        {
          "internalType": "uint256",
          "name": "",
          "type": "uint256"
        }
      ],
      "stateMutability": "view",
      "type": "function"
    },
    {
      "inputs": [
        {
          "internalType": "uint256",
          "name": "lotId",
          "type": "uint256"
        }
      ],
      "name": "markLotAsProduced",
      "outputs": [],
      "stateMutability": "nonpayable",
      "type": "function"
    },
    {
      "inputs": [],
      "name": "owner",
      "outputs": [
        {
          "internalType": "address",
          "name": "",
          "type": "address"
        }
      ],
      "stateMutability": "view",
      "type": "function"
    },
    {
      "inputs": [
        {
          "internalType": "uint256",
          "name": "",
          "type": "uint256"
        }
      ],
      "name": "products",
      "outputs": [
        {
          "internalType": "uint256",
          "name": "productIdentification",
          "type": "uint256"
        },
        {
          "internalType": "uint256",
          "name": "materials",
          "type": "uint256"
        },
        {
          "internalType": "uint256",
          "name": "design",
          "type": "uint256"
        },
        {
          "internalType": "uint256",
          "name": "specifications",
          "type": "uint256"
        },
        {
          "internalType": "uint256",
          "name": "lifecycle",
          "type": "uint256"
        },
        {
          "internalType": "uint256",
          "name": "installation_maintenance",
          "type": "uint256"
        },
        {
          "internalType": "uint256",
          "name": "composition",
          "type": "uint256"
        },
        {
          "internalType": "uint256",
          "name": "microplastics",
          "type": "uint256"
        },
        {
          "internalType": "uint256",
          "name": "env_impact",
          "type": "uint256"
        },
        {
          "internalType": "uint256",
          "name": "transport_packaging",
          "type": "uint256"
        },
        {
          "internalType": "uint256",
          "name": "sustainability",
          "type": "uint256"
        },
        {
          "internalType": "uint256",
          "name": "maintenance",
          "type": "uint256"
        },
        {
          "internalType": "uint256",
          "name": "warranty",
          "type": "uint256"
        },
        {
          "internalType": "uint256",
          "name": "energy_recovery",
          "type": "uint256"
        },
        {
          "internalType": "uint256",
          "name": "substance_of_concern",
          "type": "uint256"
        }
      ],
      "stateMutability": "view",
      "type": "function"
    },
    {
      "inputs": [
        {
          "internalType": "uint256",
          "name": "",
          "type": "uint256"
        }
      ],
      "name": "productsIds",
      "outputs": [
        {
          "internalType": "uint256",
          "name": "",
          "type": "uint256"
        }
      ],
      "stateMutability": "view",
      "type": "function"
    },
    {
      "inputs": [
        {
          "internalType": "uint256",
          "name": "lotId",
          "type": "uint256"
        }
      ],
      "name": "removeLot",
      "outputs": [],
      "stateMutability": "nonpayable",
      "type": "function"
    },
    {
      "inputs": [
        {
          "internalType": "uint256",
          "name": "productId",
          "type": "uint256"
        }
      ],
      "name": "removeProduct",
      "outputs": [],
      "stateMutability": "nonpayable",
      "type": "function"
    },
    {
      "inputs": [],
      "name": "renounceOwnership",
      "outputs": [],
      "stateMutability": "nonpayable",
      "type": "function"
    },
    {
      "inputs": [
        {
          "internalType": "address",
          "name": "wallet",
          "type": "address"
        },
        {
          "internalType": "bool",
          "name": "authorized",
          "type": "bool"
        }
      ],
      "name": "setInventoryManager",
      "outputs": [],
      "stateMutability": "nonpayable",
      "type": "function"
    },
    {
      "inputs": [
        {
          "internalType": "address",
          "name": "wallet",
          "type": "address"
        },
        {
          "internalType": "bool",
          "name": "authorized",
          "type": "bool"
        }
      ],
      "name": "setUserAuth",
      "outputs": [],
      "stateMutability": "nonpayable",
      "type": "function"
    },
    {
      "inputs": [
        {
          "internalType": "address",
          "name": "newOwner",
          "type": "address"
        }
      ],
      "name": "transferOwnership",
      "outputs": [],
      "stateMutability": "nonpayable",
      "type": "function"
    }
  ],
  "bytecode": "0x608080604052346075573315605f5760008054336001600160a01b0319821681178355916001600160a01b03909116907f8be0079c531659141344cd1fd0a4f28419497f9722a3daafe3b4186f6b6457e09080a3611a8a908161007b8239f35b631e4fbdf760e01b600052600060045260246000fd5b600080fdfe6080604052600436101561001257600080fd5b60003560e01c806302ee3a521461101c5780631828983a14610fdd5780631e8a2a8514610bd05780635a4cbe5114610b9a5780635ee95cae14610b64578063712611dd14610b3b578063715018a614610ae25780637acc0b2014610a185780638da5cb5b146109ef5780638e3bea6f1461081b57806395213b0714610603578063ab995d121461050f578063af9e2b0d146104d7578063b259330a14610497578063b9db15b41461039f578063c2eb28b01461029a578063d82c6eb614610258578063f07d46f414610219578063f1648e84146101865763f2fde38b146100f857600080fd5b34610181576020366003190112610181576101116112e6565b610119611a2b565b6001600160a01b0316801561016b57600080546001600160a01b03198116831782556001600160a01b0316907f8be0079c531659141344cd1fd0a4f28419497f9722a3daafe3b4186f6b6457e09080a3005b631e4fbdf760e01b600052600060045260246000fd5b600080fd5b346101815760203660031901126101815760043560005260056020526101f060406000206101b3816114e8565b906101c0600182016114e8565b60028201549160038101546101fe60ff60056004850154940154169360405197889760c0895260c089019061138e565b90878203602089015261138e565b93604086015260608501526080840152151560a08301520390f35b34610181576020366003190112610181576001600160a01b0361023a6112e6565b166000526002602052602060ff604060002054166040519015158152f35b346101815761029861026936611424565b90610272611a2b565b60018060a01b0316600052600160205260406000209060ff801983541691151516179055565b005b34610181576020366003190112610181576004353360005260026020526102c860ff60406000205416611626565b8060005260056020526102e2600160406000200154611453565b156103655780600052600560205260ff600560406000200154166103205760005260056020526005604060002001600160ff19825416179055600080f35b60405162461bcd60e51b815260206004820152601e60248201527f4c6f7420616c7265616479206d61726b65642061732070726f647563656400006044820152606490fd5b60405162461bcd60e51b8152602060048201526012602482015271131bdd08191bd95cc81b9bdd08195e1a5cdd60721b6044820152606490fd5b34610181576020366003190112610181576004356103bb6115a4565b508060005260036020526103d5604060002054151561167e565b60005260036020526101e06040600020600e604051916103f48361148d565b8054835260018101546020840152600281015460408401526003810154606084015260048101546080840152600581015460a0840152600681015460c0840152600781015460e084015260088101546101008401526009810154610120840152600a810154610140840152600b810154610160840152600c810154610180840152600d8101546101a084015201546101c08201526104956040518092611248565bf35b34610181576102986104a836611424565b906104b1611a2b565b60018060a01b0316600052600260205260406000209060ff801983541691151516179055565b34610181576020366003190112610181576004356006548110156101815761050060209161135b565b90549060031b1c604051908152f35b346101815760203660031901126101815760043561052b6119f8565b50806000526005602052610546600160406000200154611453565b156105c85760005260056020526105c4604060002060ff60056040519261056c846114aa565b610575816114e8565b8452610583600182016114e8565b6020850152600281015460408501526003810154606085015260048101546080850152015416151560a08201526040519182916020835260208301906113cf565b0390f35b60405162461bcd60e51b81526020600482015260136024820152724c6f7420646f6573206e6f742065786973747360681b6044820152606490fd5b3461018157610200366003190112610181576101e03660231901126101815733600052600160205261063c60ff60406000205416611626565b60043560005260036020526040600020546107dd576004356000526003602052604060002060243590818155604435600182015560643580600283015560843580600384015560a4359081600485015560c4359283600586015560e4359485600682015561010435600782015561012435600882015561014435600982015561016435600a82015561018435600b8201556101a435600c8201556101c435600d820155600e6101e435910155600454600160401b8110156107c75761070c81600161072693016004556004611376565b6004359082549060031b91821b91600019901b1916179055565b604051958652604435602087015260408601526060850152608084015260a083015260c08201526101043560e0820152610124356101008201526101443561012082015261016435610140820152610184356101608201526101a4356101808201526101c4356101a08201526101e4356101c08201527fe390706e2a1a4dfb1e129961d8a2c23a507834667cbd9dd7b8499061aff832846101e060043592a2005b634e487b7160e01b600052604160045260246000fd5b60405162461bcd60e51b815260206004820152601660248201527550726f6475637420616c72656164792065786973747360501b6044820152606490fd5b34610181576000366003190112610181576006546108388161158c565b9061084660405192836114c6565b808252601f196108558261158c565b0160005b8181106109d857505060005b81811061094857604051600680548083526000918252859160208401917ff652222313e28459528d920b65115c16c04f3efc82aaedc97be59f3f377c0d3f915b818110610932576108d186866108bd828803836114c6565b604051928392604084526040840190611214565b8281036020840152815180825260208201916020808360051b8301019401926000915b8383106109015786860387f35b919395509193602080610920600193601f1986820301875289516113cf565b970193019301909286959492936108f4565b82548452602090930192600192830192016108a5565b8061095460019261135b565b90549060031b1c6000526005602052604060002060ff600560405192610979846114aa565b610982816114e8565b845261098f8682016114e8565b6020850152600281015460408501526003810154606085015260048101546080850152015416151560a08201526109c68286611612565b526109d18185611612565b5001610865565b6020906109e36119f8565b82828701015201610859565b34610181576000366003190112610181576000546040516001600160a01b039091168152602090f35b3461018157602036600319011261018157600435600052600360205260406000208054600182015491600281015460038201546004830154600584015460068501546007860154600887015491600988015493600a89015495600b8a015497600c8b015499600d8c01549b600e01549c6040519e8f91825260208201526040015260608d015260808c015260a08b015260c08a015260e08901526101008801526101208701526101408601526101608501526101808401526101a08301526101c08201526101e090f35b3461018157600036600319011261018157610afb611a2b565b600080546001600160a01b0319811682556001600160a01b03167f8be0079c531659141344cd1fd0a4f28419497f9722a3daafe3b4186f6b6457e08280a3005b34610181576020366003190112610181576004356004548110156101815761050060209161132a565b3461018157602036600319011261018157336000526001602052610b8f60ff60406000205416611626565b6102986004356118bf565b3461018157602036600319011261018157336000526001602052610bc560ff60406000205416611626565b610298600435611777565b346101815760c03660031901126101815760043560243567ffffffffffffffff811161018157610c049036906004016112fc565b60449291923567ffffffffffffffff811161018157610c279036906004016112fc565b939060a43594336000526001602052610c4760ff60406000205416611626565b846000526005602052610c61600160406000200154611453565b610fa357610c99610ca293876000526003602052610c85604060002054151561167e565b60405195610c92876114aa565b36916116ca565b845236916116ca565b60208201908152604082016064358152606083016084358152608084019086825260a085019260008452866000526005602052604060002094865180519067ffffffffffffffff82116107c757610cf98854611453565b601f8111610f71575b50602090601f8311600114610f0a57610d34929160009183610eff575b50508160011b916000199060031b1c19161790565b86555b518051600187019167ffffffffffffffff82116107c757610d588354611453565b601f8111610ec2575b50602090601f8311600114610e5057826005979593610dc99a99979593610d9e93600092610e455750508160011b916000199060031b1c19161790565b90555b51600286015551600385015551600484015551151591019060ff801983541691151516179055565b600654600160401b8110156107c7577ff3c6f04cc4d42c7020c7b050b085b7c72613229eb0d44dc5d697833d0ce2461d91610e2c84610e13846001610e4096016006556006611376565b90919082549060031b91821b91600019901b1916179055565b6040519182916020835260208301906113cf565b0390a3005b015190508e80610d1f565b90601f1983169184600052816000209260005b818110610eaa575092600192859260059a9896610dc99d9c9a989610610e91575b505050811b019055610da1565b015160001960f88460031b161c191690558d8080610e84565b92936020600181928786015181550195019301610e63565b610eef90846000526020600020601f850160051c81019160208610610ef5575b601f0160051c0190611711565b8b610d61565b9091508190610ee2565b015190508c80610d1f565b90601f1983169189600052816000209260005b818110610f595750908460019594939210610f40575b505050811b018655610d37565b015160001960f88460031b161c191690558b8080610f33565b92936020600181928786015181550195019301610f1d565b610f9d90896000526020600020601f850160051c81019160208610610ef557601f0160051c0190611711565b8b610d02565b60405162461bcd60e51b81526020600482015260126024820152714c6f7420616c72656164792065786973747360701b6044820152606490fd5b34610181576020366003190112610181576001600160a01b03610ffe6112e6565b166000526001602052602060ff604060002054166040519015158152f35b34610181576000366003190112610181576004546110398161158c565b9061104760405192836114c6565b808252601f196110568261158c565b0160005b8181106111fd57505060005b81811061111f57604051600480548083526000918252859160208401917f8a35acfbc15ff81a39ae7d344fd709f28e8600b4aa8c65c6b64bfe7fe36bd19b915b818110611109576110be86866108bd828803836114c6565b82810360208401526020808351928381520192019060005b8181106110e4575050500390f35b9193509160206101e0826110fb6001948851611248565b0194019101918493926110d6565b82548452602090930192600192830192016110a6565b8061112b60019261132a565b90549060031b1c60005260036020526040600020600e6040519161114e8361148d565b80548352848101546020840152600281015460408401526003810154606084015260048101546080840152600581015460a0840152600681015460c0840152600781015460e084015260088101546101008401526009810154610120840152600a810154610140840152600b810154610160840152600c810154610180840152600d8101546101a084015201546101c08201526111eb8286611612565b526111f68185611612565b5001611066565b6020906112086115a4565b8282870101520161105a565b906020808351928381520192019060005b8181106112325750505090565b8251845260209384019390920191600101611225565b6101c08091805184526020810151602085015260408101516040850152606081015160608501526080810151608085015260a081015160a085015260c081015160c085015260e081015160e08501526101008101516101008501526101208101516101208501526101408101516101408501526101608101516101608501526101808101516101808501526101a08101516101a08501520151910152565b600435906001600160a01b038216820361018157565b9181601f840112156101815782359167ffffffffffffffff8311610181576020838186019501011161018157565b60045481101561134557600460005260206000200190600090565b634e487b7160e01b600052603260045260246000fd5b60065481101561134557600660005260206000200190600090565b80548210156113455760005260206000200190600090565b919082519283825260005b8481106113ba575050826000602080949584010152601f8019910116010190565b80602080928401015182828601015201611399565b9060a0806113fb6113e9855160c0865260c086019061138e565b6020860151858203602087015261138e565b936040810151604085015260608101516060850152608081015160808501520151151591015290565b6040906003190112610181576004356001600160a01b0381168103610181579060243580151581036101815790565b90600182811c92168015611483575b602083101461146d57565b634e487b7160e01b600052602260045260246000fd5b91607f1691611462565b6101e0810190811067ffffffffffffffff8211176107c757604052565b60c0810190811067ffffffffffffffff8211176107c757604052565b90601f8019910116810190811067ffffffffffffffff8211176107c757604052565b90604051918260008254926114fc84611453565b808452936001811690811561156a5750600114611523575b50611521925003836114c6565b565b90506000929192526020600020906000915b81831061154e5750509060206115219282010138611514565b6020919350806001915483858901015201910190918492611535565b90506020925061152194915060ff191682840152151560051b82010138611514565b67ffffffffffffffff81116107c75760051b60200190565b604051906115b18261148d565b60006101c0838281528260208201528260408201528260608201528260808201528260a08201528260c08201528260e08201528261010082015282610120820152826101408201528261016082015282610180820152826101a08201520152565b80518210156113455760209160051b010190565b1561162d57565b60405162461bcd60e51b815260206004820152602360248201527f4e6f7420617574686f72697a656420746f2075736520746869732066756e637460448201526234b7b760e91b6064820152608490fd5b1561168557565b60405162461bcd60e51b815260206004820152601760248201527f50726f6475637420646f6573206e6f74206578697374730000000000000000006044820152606490fd5b92919267ffffffffffffffff82116107c757604051916116f4601f8201601f1916602001846114c6565b829481845281830111610181578281602093846000960137010152565b81811061171c575050565b60008155600101611711565b6117328154611453565b908161173c575050565b81601f6000931160011461174e575055565b8183526020832061176a91601f0160051c810190600101611711565b8082528160208120915555565b806000526005602052600060056040822061179181611728565b61179d60018201611728565b826002820155826003820155826004820155015560005b600654908181101561188a57826117ca8261135b565b90549060031b1c146117e05760019150016117b4565b600019820191821161187457610e136117fb6118089361135b565b90549060031b1c9161135b565b600654801561185e5760001901611834611823826006611376565b8154906000199060031b1b19169055565b6006557f50ff6c8267104354ffd393edb06d421ec439784c4a2c0595e11e5fb6b1ecbf43600080a2565b634e487b7160e01b600052603160045260246000fd5b634e487b7160e01b600052601160045260246000fd5b60405162461bcd60e51b815260206004820152600d60248201526c131bdd081b9bdd08199bdd5b99609a1b6044820152606490fd5b8060005260036020526000600e6040822082815582600182015582600282015582600382015582600482015582600582015582600682015582600782015582600882015582600982015582600a82015582600b82015582600c82015582600d820155015560005b60045490818110156119bf578261193c8261132a565b90549060031b1c14611952576001915001611926565b600019820191821161187457610e1361196d61197a9361132a565b90549060031b1c9161132a565b600454801561185e5760001901611995611823826004611376565b6004557f07015631cff457b5b13492c2045e70c6305a0a4aa773e432e79abbe2cf52c1eb600080a2565b60405162461bcd60e51b8152602060048201526011602482015270141c9bd91d58dd081b9bdd08199bdd5b99607a1b6044820152606490fd5b60405190611a05826114aa565b600060a08360608152606060208201528260408201528260608201528260808201520152565b6000546001600160a01b03163303611a3f57565b63118cdaa760e01b6000523360045260246000fdfea2646970667358221220f994b2e4411e694bf355d4cb837abfea85bb28fd9304a85ec045fc4fc9d688f764736f6c634300081e0033",
  "linkReferences": {},
  "deployedLinkReferences": {}
}