{
  "_format": "hh-sol-artifact-1",
  "contractName": "TransactionManager",
  "sourceName": "contracts/implementation/TransactionManager.sol",
  "abi": [
    {
      "inputs": [
        {
          "internalType": "address",
          "name": "productManagerAddress",
          "type": "address"
        },
        {
          "internalType": "address",
          "name": "inventoryManagerAddress",
          "type": "address"
        },
        {
          "internalType": "address",
          "name": "cashbackTokenAddress",
          "type": "address"
        }
      ],
      "stateMutability": "nonpayable",
      "type": "constructor"
    },
    {
      "inputs": [
        {
          "internalType": "address",
          "name": "owner",
          "type": "address"
        }
      ],
      "name": "OwnableInvalidOwner",
      "type": "error"
    },
    {
      "inputs": [
        {
          "internalType": "address",
          "name": "account",
          "type": "address"
        }
      ],
      "name": "OwnableUnauthorizedAccount",
      "type": "error"
    },
    {
      "anonymous": false,
      "inputs": [
        {
          "indexed": true,
          "internalType": "address",
          "name": "from",
          "type": "address"
        },
        {
          "indexed": true,
          "internalType": "address",
          "name": "to",
          "type": "address"
        },
        {
          "indexed": true,
          "internalType": "bytes32",
          "name": "detailsHash",
          "type": "bytes32"
        },
        {
          "components": [
            {
              "internalType": "address",
              "name": "from",
              "type": "address"
            },
            {
              "internalType": "address",
              "name": "to",
              "type": "address"
            },
            {
              "internalType": "uint256[]",
              "name": "lotIds",
              "type": "uint256[]"
            },
            {
              "internalType": "uint256[]",
              "name": "quantities",
              "type": "uint256[]"
            },
            {
              "internalType": "uint256",
              "name": "timestamp",
              "type": "uint256"
            },
            {
              "internalType": "bytes32",
              "name": "detailsHash",
              "type": "bytes32"
            }
          ],
          "indexed": false,
          "internalType": "struct TransactionManager.Transaction",
          "name": "",
          "type": "tuple"
        }
      ],
      "name": "AcceptedTransaction",
      "type": "event"
    },
    {
      "anonymous": false,
      "inputs": [
        {
          "indexed": true,
          "internalType": "address",
          "name": "from",
          "type": "address"
        },
        {
          "indexed": true,
          "internalType": "address",
          "name": "to",
          "type": "address"
        },
        {
          "indexed": true,
          "internalType": "bytes32",
          "name": "detailsHash",
          "type": "bytes32"
        },
        {
          "components": [
            {
              "internalType": "address",
              "name": "from",
              "type": "address"
            },
            {
              "internalType": "address",
              "name": "to",
              "type": "address"
            },
            {
              "internalType": "uint256[]",
              "name": "lotIds",
              "type": "uint256[]"
            },
            {
              "internalType": "uint256[]",
              "name": "quantities",
              "type": "uint256[]"
            },
            {
              "internalType": "uint256",
              "name": "timestamp",
              "type": "uint256"
            },
            {
              "internalType": "bytes32",
              "name": "detailsHash",
              "type": "bytes32"
            }
          ],
          "indexed": false,
          "internalType": "struct TransactionManager.Transaction",
          "name": "",
          "type": "tuple"
        }
      ],
      "name": "AddedTransaction",
      "type": "event"
    },
    {
      "anonymous": false,
      "inputs": [
        {
          "indexed": true,
          "internalType": "address",
          "name": "previousOwner",
          "type": "address"
        },
        {
          "indexed": true,
          "internalType": "address",
          "name": "newOwner",
          "type": "address"
        }
      ],
      "name": "OwnershipTransferred",
      "type": "event"
    },
    {
      "anonymous": false,
      "inputs": [
        {
          "indexed": true,
          "internalType": "address",
          "name": "from",
          "type": "address"
        },
        {
          "indexed": true,
          "internalType": "address",
          "name": "to",
          "type": "address"
        },
        {
          "indexed": true,
          "internalType": "bytes32",
          "name": "detailsHash",
          "type": "bytes32"
        },
        {
          "components": [
            {
              "internalType": "address",
              "name": "from",
              "type": "address"
            },
            {
              "internalType": "address",
              "name": "to",
              "type": "address"
            },
            {
              "internalType": "uint256[]",
              "name": "lotIds",
              "type": "uint256[]"
            },
            {
              "internalType": "uint256[]",
              "name": "quantities",
              "type": "uint256[]"
            },
            {
              "internalType": "uint256",
              "name": "timestamp",
              "type": "uint256"
            },
            {
              "internalType": "bytes32",
              "name": "detailsHash",
              "type": "bytes32"
            }
          ],
          "indexed": false,
          "internalType": "struct TransactionManager.Transaction",
          "name": "",
          "type": "tuple"
        }
      ],
      "name": "RejectedTransaction",
      "type": "event"
    },
    {
      "anonymous": false,
      "inputs": [
        {
          "indexed": true,
          "internalType": "address",
          "name": "from",
          "type": "address"
        },
        {
          "indexed": true,
          "internalType": "address",
          "name": "to",
          "type": "address"
        },
        {
          "indexed": true,
          "internalType": "bytes32",
          "name": "detailsHash",
          "type": "bytes32"
        },
        {
          "components": [
            {
              "internalType": "address",
              "name": "from",
              "type": "address"
            },
            {
              "internalType": "address",
              "name": "to",
              "type": "address"
            },
            {
              "internalType": "uint256[]",
              "name": "lotIds",
              "type": "uint256[]"
            },
            {
              "internalType": "uint256[]",
              "name": "quantities",
              "type": "uint256[]"
            },
            {
              "internalType": "uint256",
              "name": "timestamp",
              "type": "uint256"
            },
            {
              "internalType": "bytes32",
              "name": "detailsHash",
              "type": "bytes32"
            }
          ],
          "indexed": false,
          "internalType": "struct TransactionManager.Transaction",
          "name": "",
          "type": "tuple"
        }
      ],
      "name": "RemovedTransaction",
      "type": "event"
    },
    {
      "anonymous": false,
      "inputs": [
        {
          "indexed": true,
          "internalType": "address",
          "name": "pharmacy",
          "type": "address"
        },
        {
          "indexed": false,
          "internalType": "uint256[]",
          "name": "lotIds",
          "type": "uint256[]"
        },
        {
          "indexed": false,
          "internalType": "uint256[]",
          "name": "quantities",
          "type": "uint256[]"
        },
        {
          "indexed": false,
          "internalType": "uint256",
          "name": "totalValue",
          "type": "uint256"
        }
      ],
      "name": "SaleToCustomer",
      "type": "event"
    },
    {
      "inputs": [
        {
          "internalType": "address",
          "name": "",
          "type": "address"
        }
      ],
      "name": "authorizedUsers",
      "outputs": [
        {
          "internalType": "bool",
          "name": "",
          "type": "bool"
        }
      ],
      "stateMutability": "view",
      "type": "function"
    },
    {
      "inputs": [],
      "name": "cashbackToken",
      "outputs": [
        {
          "internalType": "contract CashbackToken",
          "name": "",
          "type": "address"
        }
      ],
      "stateMutability": "view",
      "type": "function"
    },
    {
      "inputs": [],
      "name": "getIncomingTransactions",
      "outputs": [
        {
          "components": [
            {
              "internalType": "address",
              "name": "from",
              "type": "address"
            },
            {
              "internalType": "address",
              "name": "to",
              "type": "address"
            },
            {
              "internalType": "uint256[]",
              "name": "lotIds",
              "type": "uint256[]"
            },
            {
              "internalType": "uint256[]",
              "name": "quantities",
              "type": "uint256[]"
            },
            {
              "internalType": "uint256",
              "name": "timestamp",
              "type": "uint256"
            },
            {
              "internalType": "bytes32",
              "name": "detailsHash",
              "type": "bytes32"
            }
          ],
          "internalType": "struct TransactionManager.Transaction[]",
          "name": "",
          "type": "tuple[]"
        }
      ],
      "stateMutability": "view",
      "type": "function"
    },
    {
      "inputs": [],
      "name": "getOutgoingTransactions",
      "outputs": [
        {
          "components": [
            {
              "internalType": "address",
              "name": "from",
              "type": "address"
            },
            {
              "internalType": "address",
              "name": "to",
              "type": "address"
            },
            {
              "internalType": "uint256[]",
              "name": "lotIds",
              "type": "uint256[]"
            },
            {
              "internalType": "uint256[]",
              "name": "quantities",
              "type": "uint256[]"
            },
            {
              "internalType": "uint256",
              "name": "timestamp",
              "type": "uint256"
            },
            {
              "internalType": "bytes32",
              "name": "detailsHash",
              "type": "bytes32"
            }
          ],
          "internalType": "struct TransactionManager.Transaction[]",
          "name": "",
          "type": "tuple[]"
        }
      ],
      "stateMutability": "view",
      "type": "function"
    },
    {
      "inputs": [
        {
          "internalType": "address",
          "name": "",
          "type": "address"
        },
        {
          "internalType": "address",
          "name": "",
          "type": "address"
        }
      ],
      "name": "hasRelation",
      "outputs": [
        {
          "internalType": "bool",
          "name": "",
          "type": "bool"
        }
      ],
      "stateMutability": "view",
      "type": "function"
    },
    {
      "inputs": [],
      "name": "inventoryManager",
      "outputs": [
        {
          "internalType": "contract InventoryManager",
          "name": "",
          "type": "address"
        }
      ],
      "stateMutability": "view",
      "type": "function"
    },
    {
      "inputs": [],
      "name": "owner",
      "outputs": [
        {
          "internalType": "address",
          "name": "",
          "type": "address"
        }
      ],
      "stateMutability": "view",
      "type": "function"
    },
    {
      "inputs": [
        {
          "internalType": "address",
          "name": "",
          "type": "address"
        },
        {
          "internalType": "address",
          "name": "",
          "type": "address"
        },
        {
          "internalType": "uint256",
          "name": "",
          "type": "uint256"
        }
      ],
      "name": "pendingTransactions",
      "outputs": [
        {
          "internalType": "address",
          "name": "from",
          "type": "address"
        },
        {
          "internalType": "address",
          "name": "to",
          "type": "address"
        },
        {
          "internalType": "uint256",
          "name": "timestamp",
          "type": "uint256"
        },
        {
          "internalType": "bytes32",
          "name": "detailsHash",
          "type": "bytes32"
        }
      ],
      "stateMutability": "view",
      "type": "function"
    },
    {
      "inputs": [],
      "name": "productManager",
      "outputs": [
        {
          "internalType": "contract ProductManager",
          "name": "",
          "type": "address"
        }
      ],
      "stateMutability": "view",
      "type": "function"
    },
    {
      "inputs": [
        {
          "internalType": "address",
          "name": "to",
          "type": "address"
        },
        {
          "internalType": "uint256[]",
          "name": "lotIds",
          "type": "uint256[]"
        },
        {
          "internalType": "uint256[]",
          "name": "quantities",
          "type": "uint256[]"
        }
      ],
      "name": "proposeTransaction",
      "outputs": [],
      "stateMutability": "nonpayable",
      "type": "function"
    },
    {
      "inputs": [
        {
          "internalType": "uint256[]",
          "name": "lotIds",
          "type": "uint256[]"
        },
        {
          "internalType": "uint256[]",
          "name": "quantities",
          "type": "uint256[]"
        }
      ],
      "name": "registerSaleToCustomer",
      "outputs": [],
      "stateMutability": "nonpayable",
      "type": "function"
    },
    {
      "inputs": [
        {
          "internalType": "uint256",
          "name": "maxAge",
          "type": "uint256"
        }
      ],
      "name": "removeExpiredTransactions",
      "outputs": [],
      "stateMutability": "nonpayable",
      "type": "function"
    },
    {
      "inputs": [],
      "name": "renounceOwnership",
      "outputs": [],
      "stateMutability": "nonpayable",
      "type": "function"
    },
    {
      "inputs": [
        {
          "internalType": "address",
          "name": "from",
          "type": "address"
        },
        {
          "internalType": "bytes32",
          "name": "detailsHash",
          "type": "bytes32"
        },
        {
          "internalType": "bool",
          "name": "review",
          "type": "bool"
        }
      ],
      "name": "reviewTransaction",
      "outputs": [],
      "stateMutability": "nonpayable",
      "type": "function"
    },
    {
      "inputs": [],
      "name": "rewardMultiplier",
      "outputs": [
        {
          "internalType": "uint256",
          "name": "",
          "type": "uint256"
        }
      ],
      "stateMutability": "view",
      "type": "function"
    },
    {
      "inputs": [
        {
          "internalType": "uint256",
          "name": "",
          "type": "uint256"
        }
      ],
      "name": "senders",
      "outputs": [
        {
          "internalType": "address",
          "name": "",
          "type": "address"
        }
      ],
      "stateMutability": "view",
      "type": "function"
    },
    {
      "inputs": [
        {
          "internalType": "address",
          "name": "",
          "type": "address"
        },
        {
          "internalType": "uint256",
          "name": "",
          "type": "uint256"
        }
      ],
      "name": "sendersToReceivers",
      "outputs": [
        {
          "internalType": "address",
          "name": "",
          "type": "address"
        }
      ],
      "stateMutability": "view",
      "type": "function"
    },
    {
      "inputs": [
        {
          "internalType": "uint256",
          "name": "value",
          "type": "uint256"
        }
      ],
      "name": "setRewardMultiplier",
      "outputs": [],
      "stateMutability": "nonpayable",
      "type": "function"
    },
    {
      "inputs": [
        {
          "internalType": "address",
          "name": "wallet",
          "type": "address"
        },
        {
          "internalType": "bool",
          "name": "authorized",
          "type": "bool"
        }
      ],
      "name": "setUserAuth",
      "outputs": [],
      "stateMutability": "nonpayable",
      "type": "function"
    },
    {
      "inputs": [
        {
          "internalType": "address",
          "name": "newOwner",
          "type": "address"
        }
      ],
      "name": "transferOwnership",
      "outputs": [],
      "stateMutability": "nonpayable",
      "type": "function"
    }
  ],
  "bytecode": "0x60803461011557601f61243738819003918201601f19168301916001600160401b0383118484101761011a578084926060946040528339810103126101155761004781610130565b90610060604061005960208401610130565b9201610130565b9033156100ff5760008054336001600160a01b0319821681178355604051959290916001600160a01b0316907f8be0079c531659141344cd1fd0a4f28419497f9722a3daafe3b4186f6b6457e09080a36064600555600180546001600160a01b03199081166001600160a01b0393841617909155600280548216938316939093179092556003805490921692169190911790556122f290816101458239f35b631e4fbdf760e01b600052600060045260246000fd5b600080fd5b634e487b7160e01b600052604160045260246000fd5b51906001600160a01b03821682036101155756fe608080604052600436101561001357600080fd5b600090813560e01c9081630bd075a11461189a57508063144a1663146117ff5780631828983a146117c05780631aadb3701461179757806349749888146112575780635392a22b1461122e57806354b1325b146111e657806367fa565014610eff5780636f2c590a14610ee1578063715018a614610e8757806375b882fb1461085557806377ed4d50146107fb5780638da5cb5b146107d45780639977c78a146107905780639f9b269f146104b3578063d82c6eb61461045c578063ea662b8a146102eb578063f2fde38b14610265578063f426306f1461023c5763f820f719146100fd57600080fd5b34610239578060031936011261023957600754339180805b8381106101cc5750610126906120fc565b928190825b84811061014457604051806101408882611aeb565b0390f35b61014d81611a21565b905460039190911b1c6001600160a01b03168452600660209081526040808620600085815292529020805490855b82811061018d5750505060010161012b565b806101c56101b28b6101be6101a4600196886119bf565b509a6101b881948592611d7f565b9c611ddb565b92611fc3565b528b611fc3565b500161017b565b6101d581611a21565b60018060a01b0391549060031b1c16808452600960205260ff604080862060009089825260205220541661020d575b50600101610115565b60019192610232918552600660205260408086206000908982526020522054906120ef565b9190610204565b80fd5b50346102395780600319360112610239576001546040516001600160a01b039091168152602090f35b50346102395760203660031901126102395761027f61198e565b61028761214c565b6001600160a01b031680156102d75781546001600160a01b03198116821783556001600160a01b03167f8be0079c531659141344cd1fd0a4f28419497f9722a3daafe3b4186f6b6457e08380a380f35b631e4fbdf760e01b82526004829052602482fd5b50346102395780600319360112610239573381526008602052604081206040518082602082945493848152019085526020852092855b81811061043a57505061033692500382611bc1565b81805b825182101561038c57338452600660205260408085206001926103849290916001600160a01b0361036a8789611fc3565b511690600091868060a01b031682526020522054906120ef565b910190610339565b61039691506120fc565b9180815b835181101561042c57338352600660205260408084206001600160a01b036103c28488611fc3565b51166001600160a01b0316600090815260209190915220805490845b8281106103f05750505060010161039a565b80610425610400600193856119bf565b509661041461040e82611d7f565b98611ddb565b61041e828d611fc3565b528a611fc3565b50016103de565b604051806101408782611aeb565b84546001600160a01b0316835260019485019486945060209093019201610321565b50346102395760403660031901126102395761047661198e565b602435908115158092036104af5761048c61214c565b60018060a01b031682526004602052604082209060ff8019835416911617905580f35b8280fd5b5034610239576040366003190112610239576004356001600160401b03811161078c576104e49036906004016119f1565b6024356001600160401b03811161076f576105039036906004016119f1565b9161050f838214611b4b565b60025485906001600160a01b0316803b1561078c57604051639908124760e01b8152908290829081806105498a8a8a8e3360048701611c06565b03915afa801561062f57610773575b5092855b82811061064e575083670de0b6b3a764000002670de0b6b3a76400008104850361063a576127106064610593899360055490611cdf565b040460018060a01b0360035416803b156104af576040516340c10f1960e01b8152336004820152602481019290925282908290604490829084905af1801561062f57610616575b50507f47ee6b974f84d938f99898cab2333313c6713e6ed48bbf5b0af4e23565379dd19361061091604051948594339886611c4d565b0390a280f35b8161062091611bc1565b61062b5785386105da565b8580fd5b6040513d84823e3d90fd5b634e487b7160e01b87526011600452602487fd5b60025490949087906001600160a01b031661066a87868a611c3d565b35610676888689611c3d565b35823b1561076f5760405163060c068b60e41b8152336004820152602481019290925260448201529082908290606490829084905af1801561062f57610756575b50506106c4858386611c3d565b359060018060a01b036001541690886106de88878b611c3d565b356024604051809581936355ccae8960e11b835260048301525afa801561074b57600193606061071c92610722958d91610729575b50015190611cdf565b906120ef565b940161055c565b61074591503d808f833e61073d8183611bc1565b810190612046565b38610713565b6040513d8b823e3d90fd5b8161076091611bc1565b61076b5786386106b7565b8680fd5b8380fd5b8161077d91611bc1565b610788578438610558565b8480fd5b5080fd5b503461023957602036600319011261023957600435906007548210156102395760206107bb83611a21565b905460405160039290921b1c6001600160a01b03168152f35b5034610239578060031936011261023957546040516001600160a01b039091168152602090f35b503461023957604036600319011261023957604061081761198e565b916108206119a9565b9260018060a01b031681526009602052209060018060a01b0316600052602052602060ff604060002054166040519015158152f35b50346102395760603660031901126102395761086f61198e565b60243560443591821515830361076f57610887611f91565b6001600160a01b038216808652600960209081526040808820336000908152925290205491949092909160ff1615610e3f578594339490865b85895260066020526040808a206000908982526020522054811015610e7d5785895260066020526005610901826040808d206000908c8252602052206119bf565b5001548314610912576001016108c0565b96505050828652600660205261093f610939866040808a20600090898252602052206119bf565b50611ddb565b94935b60a0860194855115610e3f5784885260066020526040882082600052602052604060002085895260066020526040892083600052602052604060002054906000198201918211610e2b57916109c06109a16109c6938c989796956119bf565b50918888526006602052604088208560005260205260406000206119bf565b90611ea0565b848452600660205260408420816000526020526109e66040600020611f2f565b8484526006602052604084208160005260205260406000205415610dce575b505015610cd4579184925b6040850180518051861015610b585760025460208801516001600160a01b03918216929116908990610a43908990611fc3565b519160608a0193610a558a8651611fc3565b5190803b1561076f57604051632bf959ff60e11b81526001600160a01b03939093166004840152602483019490945260448201529181908390606490829084905af1918215610b4b578892610b2e575b5050610ab19151611fc3565b519187610aca8760018060a01b03600154169451611fc3565b516024604051809581936355ccae8960e11b835260048301525afa8015610b2357600193606061071c92610b07958c91610b0f5750015190611cdf565b930192610a10565b61074591503d808e833e61073d8183611bc1565b6040513d8a823e3d90fd5b81925090610b3b91611bc1565b610b4757858838610aa5565b8780fd5b50604051903d90823e3d90fd5b5050909193925080670de0b6b3a76400000290670de0b6b3a7640000820403610cc0576127106064610b8e879360055490611cdf565b040460018060a01b036003541660018060a01b0385511690803b1561076f576040516340c10f1960e01b81526001600160a01b039290921660048301526024820183905283908290604490829084905af1908115610cb5578391610ca0575b505060035460208501516001600160a01b0391821692911690823b1561076f576040516340c10f1960e01b81526001600160a01b0392909216600483015260248201529082908290604490829084905af1801561062f57610c8b575b505051917f5d1b03ef161c76c83d88bddf4257573b9c9ad7acc433afeb69fb0a95a2078c586040516020815280610c8533956020830190611a88565b0390a480f35b81610c9591611bc1565b61076f578338610c49565b81610caa91611bc1565b61078c578138610bed565b6040513d85823e3d90fd5b634e487b7160e01b85526011600452602485fd5b9092815b60408201518051821015610d8f5760025483516001600160a01b0391821692911690610d05908490611fc3565b5191610d15846060870151611fc3565b5190803b1561076b57604051632bf959ff60e11b81526001600160a01b03939093166004840152602483019390935260448201529084908290606490829084905af1908115610d84578491610d6f575b5050600101610cd8565b81610d7991611bc1565b6104af578238610d65565b6040513d86823e3d90fd5b505091905051917ffde131ae2c8d32bd787571fef890c3e5a520475eae06dce50a316b39717f0d1c6040516020815280610c8533956020830190611a88565b84845260096020526040842090600052602052604060002060ff1981541690558383526008602052610e033360408520612225565b8383526008602052604083205415610e1c575b80610a05565b610e2590612175565b38610e16565b634e487b7160e01b8a52601160045260248afd5b60405162461bcd60e51b81526020600482015260166024820152755472616e73616374696f6e206e6f7420666f756e642160501b6044820152606490fd5b5095949050610942565b5034610239578060031936011261023957610ea061214c565b80546001600160a01b03198116825581906001600160a01b03167f8be0079c531659141344cd1fd0a4f28419497f9722a3daafe3b4186f6b6457e08280a380f35b50346102395780600319360112610239576020600554604051908152f35b50346102395760203660031901126102395760043590610f1d61214c565b805b6007548110156111e257610f3281611a21565b60018060a01b0391549060031b1c16908183526008602052604083209383945b80548610156111d557610f688682979497611a3c565b60018060a01b0391549060031b1c16908486526006602052604080872060009060018060a01b0385168252602052209286945b8454861015611162576004610fb087876119bf565b500154420342811161114e5782101561113d57875b6002610fd188886119bf565b5001548110156110b5576002546001600160a01b0316610ff188886119bf565b50546001600160a01b03169061101483600261100d8c8c6119bf565b5001611a3c565b90549060031b1c61102b84600361100d8d8d6119bf565b90549060031b1c92823b156110b157604051632bf959ff60e11b81526001600160a01b03919091166004820152602481019190915260448101929092528a908290606490829084905af180156110a657908a9161108d575b5050600101610fc5565b8161109791611bc1565b6110a2578838611083565b8880fd5b6040513d8c823e3d90fd5b8c80fd5b50976110c461093987876119bf565b85546000198101908111610e2b576110df6110ea91886119bf565b506109c089896119bf565b6110f386611f2f565b84887f89357aa402631f91dde54aa3352d214c1fbb7d5d4fb9ffc8477c7f477516538061113360a085015194604051918291602083526020830190611a88565b0390a45b97610f9b565b979461114890611d7f565b94611137565b634e487b7160e01b89526011600452602489fd5b9195969794509291600192541561117e575b5001949392610f52565b6111ae9087895260096020526040808a20600090868060a01b03841682526020522060ff19815416905586612225565b85875260086020526040872054156111c7575b38611174565b6111d086612175565b6111c1565b5093506001019050610f1f565b5080f35b50346102395760403660031901126102395761120061198e565b6001600160a01b03168152600860205260408120805460243592908310156102395760206107bb8484611a3c565b50346102395780600319360112610239576002546040516001600160a01b039091168152602090f35b50346102395760603660031901126102395761127161198e565b6024356001600160401b0381116104af576112909036906004016119f1565b6044929192356001600160401b038111610788576112b29036906004016119f1565b6001600160a01b038416939192903385146117405781156116e5576112d8818314611b4b565b6002546001600160a01b031687813b1561023957604051639908124760e01b8152918290818061130f878b8a8f3360048701611c06565b03915afa8015610b23576116d1575b50865b82811061164c575061138a6040516020810190611355816113478b878b8a429389611c4d565b03601f198101835282611bc1565b5190209461137b604051986113698a611b90565b338a5260208a01958987523691611c93565b92604089019384523691611c93565b60608701908152608087019142835260a0880195865233895260066020526040808a2060009089825260205220805490600160401b82101561162457906113d6916001820181556119bf565b94909461163857885185546001600160a01b03199081166001600160a01b03928316178755915160018701805490931691161790555180519060028501906001600160401b0383116116245760209061142f8484611d3c565b01908a5260208a208a5b8381106116105750505050600383019051908151916001600160401b0383116115fc576020906114698484611d3c565b0190895260208920895b8381106115e85750505050516004820155600583519101553385526009602052604085208360005260205260ff60406000205416156114e8575b5051917f58d353c824fe85a3b61371c984411981be1f874ea91fd45835b285bd6bf910706040516020815280610c8533946020830190611a88565b338552600860205260408520805490600160401b8210156115d4578161151791600161153b9594018155611a3c565b81546001600160a01b0393841660039290921b91821b9390911b1916919091179055565b33845260086020526001604085205414611579575b338452600960205260408420826000526020526040600020600160ff19825416179055386114ad565b600754600160401b8110156115c05761159d8160016115bb93016007556007611a3c565b81546001600160a01b0360039290921b91821b19163390911b179055565b611550565b634e487b7160e01b85526041600452602485fd5b634e487b7160e01b87526041600452602487fd5b600190602084519401938184015501611473565b634e487b7160e01b8a52604160045260248afd5b600190602084519401938184015501611439565b634e487b7160e01b8b52604160045260248bfd5b634e487b7160e01b8a5260048a905260248afd5b60025488906001600160a01b031661166583868b611c3d565b3561167184868a611c3d565b35823b1561076f5760405163060c068b60e41b8152336004820152602481019290925260448201529082908290606490829084905af1801561062f576116bc575b5050600101611321565b816116c691611bc1565b610b475787386116b2565b876116de91989298611bc1565b953861131e565b60405162461bcd60e51b815260206004820152602d60248201527f43616e6e6f7420637265617465207472616e73616374696f6e2077697468206560448201526c1b5c1d1e481b1bdd081b1a5cdd609a1b6064820152608490fd5b60405162461bcd60e51b815260206004820152602960248201527f5472616e73616374696f6e7320746f77617264732073656c6620617265206e6f6044820152681d08185b1b1bddd95960ba1b6064820152608490fd5b50346102395780600319360112610239576003546040516001600160a01b039091168152602090f35b50346102395760203660031901126102395760209060ff906040906001600160a01b036117eb61198e565b168152600484522054166040519015158152f35b50346102395760603660031901126102395761181961198e565b906118226119a9565b6001600160a01b039283168252600660209081526040808420929094168352529081208054604435929083101561023957608061185f84846119bf565b50805460018201546004830154600590930154604080516001600160a01b039485168152929093166020830152918101929092526060820152f35b90503461078c57602036600319011261078c5760043590338352600460205260ff60408420541615611940575061271081116118d65760055580f35b608460405162461bcd60e51b815260206004820152604060248201527f4d756c7469706c696572206d757374206265206c6f776572207468616e20313060448201527f30252028692e652e2076616c7565206c6f776572207468616e203130303030296064820152fd5b62461bcd60e51b815260206004820152602360248201527f4e6f7420617574686f72697a656420746f2075736520746869732066756e637460448201526234b7b760e91b6064820152608490fd5b600435906001600160a01b03821682036119a457565b600080fd5b602435906001600160a01b03821682036119a457565b80548210156119db576000526006602060002091020190600090565b634e487b7160e01b600052603260045260246000fd5b9181601f840112156119a4578235916001600160401b0383116119a4576020808501948460051b0101116119a457565b6007548110156119db57600760005260206000200190600090565b80548210156119db5760005260206000200190600090565b906020808351928381520192019060005b818110611a725750505090565b8251845260209384019390920191600101611a65565b9060018060a01b03825116815260018060a01b03602083015116602082015260a080611ad8611ac6604086015160c0604087015260c0860190611a54565b60608601518582036060870152611a54565b9360808101516080850152015191015290565b602081016020825282518091526040820191602060408360051b8301019401926000915b838310611b1e57505050505090565b9091929394602080611b3c600193603f198682030187528951611a88565b97019301930191939290611b0f565b15611b5257565b60405162461bcd60e51b8152602060048201526016602482015275082e4e4c2f2e640e6d2f4ca40daeae6e840dac2e8c6d60531b6044820152606490fd5b60c081019081106001600160401b03821117611bab57604052565b634e487b7160e01b600052604160045260246000fd5b90601f801991011681019081106001600160401b03821117611bab57604052565b81835290916001600160fb1b0383116119a45760209260051b809284830137010190565b9391611c3a9593611c2c9260018060a01b03168652606060208701526060860191611be2565b926040818503910152611be2565b90565b91908110156119db5760051b0190565b959493611c6960409492611c779460608a5260608a0191611be2565b918783036020890152611be2565b930152565b6001600160401b038111611bab5760051b60200190565b929190611c9f81611c7c565b93611cad6040519586611bc1565b602085838152019160051b81019283116119a457905b828210611ccf57505050565b8135815260209182019101611cc3565b81810292918115918404141715611cf257565b634e487b7160e01b600052601160045260246000fd5b8054906000815581611d18575050565b6000526020600020908101905b818110611d30575050565b60008155600101611d25565b90600160401b8111611bab57815491818155828210611d5a57505050565b600052602060002091820191015b818110611d73575050565b60008155600101611d68565b6000198114611cf25760010190565b906040519182815491828252602082019060005260206000209260005b818110611dc2575050611dc092500383611bc1565b565b8454835260019485019487945060209093019201611dab565b90604051611de881611b90565b82546001600160a01b039081168252600184015416602082015291829060a090600590611e1760028201611d8e565b6040850152611e2860038201611d8e565b6060850152600481015460808501520154910152565b818114611e9c578154916001600160401b038311611bab57611e608383611d3c565b60005260206000209060005260206000208154916000925b848410611e86575050505050565b6001809192019384549281850155019290611e78565b5050565b9190611f1957808203611eb1575050565b805482546001600160a01b039182166001600160a01b031991821617845560018084015490850180549190931691161790556005908190611ef86002808301908601611e3e565b611f086003820160038601611e3e565b600481015460048501550154910155565b634e487b7160e01b600052600060045260246000fd5b80548015611f7b576000190190611f4682826119bf565b611f19576005816000809355826001820155611f6460028201611d08565b611f7060038201611d08565b826004820155015555565b634e487b7160e01b600052603160045260246000fd5b60405190611f9e82611b90565b600060a083828152826020820152606060408201526060808201528260808201520152565b80518210156119db5760209160051b010190565b81601f820112156119a4578051906001600160401b038211611bab576040519261200b601f8401601f191660200185611bc1565b828452602083830101116119a45760005b82811061203157505060206000918301015290565b8060208092840101518282870101520161201c565b6020818303126119a4578051906001600160401b0382116119a457019060c0828203126119a4576040519161207a83611b90565b80516001600160401b0381116119a45782612096918301611fd7565b835260208101516001600160401b0381116119a45760a0926120b9918301611fd7565b6020840152604081015160408401526060810151606084015260808101516080840152015180151581036119a45760a082015290565b91908201809211611cf257565b9061210682611c7c565b6121136040519182611bc1565b8281528092612124601f1991611c7c565b019060005b82811061213557505050565b602090612140611f91565b82828501015201612129565b6000546001600160a01b0316330361216057565b63118cdaa760e01b6000523360045260246000fd5b60005b600754808210156122205761218e826007611a3c565b905460039190911b1c6001600160a01b03908116908416146121b35750600101612178565b600019810192508211611cf2576115176121d16121eb936007611a3c565b905460039190911b1c6001600160a01b0316916007611a3c565b6007548015611f7b576000190161221b612206826007611a3c565b81549060018060a01b039060031b1b19169055565b600755565b505050565b60005b8154808210156122b65761223c8284611a3c565b905460039190911b1c6001600160a01b03908116908516146122615750600101612228565b9192506000198201918211611cf2576115176122806122999385611a3c565b905460039190911b1c6001600160a01b03169184611a3c565b80548015611f7b5760001901906122b36122068383611a3c565b55565b5050505056fea2646970667358221220c6c8cf570dfa0e999889d2329643a9445708a7a1e7b9e74cd224b4f984e1024b64736f6c634300081e0033",
  "linkReferences": {},
  "deployedLinkReferences": {}
}