{
  "_format": "hh-sol-artifact-1",
  "contractName": "InventoryManager",
  "sourceName": "contracts/implementation/InventoryManager.sol",
  "abi": [
    {
      "inputs": [
        {
          "internalType": "address",
          "name": "productManagerAddress",
          "type": "address"
        }
      ],
      "stateMutability": "nonpayable",
      "type": "constructor"
    },
    {
      "inputs": [
        {
          "internalType": "address",
          "name": "owner",
          "type": "address"
        }
      ],
      "name": "OwnableInvalidOwner",
      "type": "error"
    },
    {
      "inputs": [
        {
          "internalType": "address",
          "name": "account",
          "type": "address"
        }
      ],
      "name": "OwnableUnauthorizedAccount",
      "type": "error"
    },
    {
      "anonymous": false,
      "inputs": [
        {
          "indexed": true,
          "internalType": "address",
          "name": "manufacturer",
          "type": "address"
        },
        {
          "indexed": true,
          "internalType": "uint256",
          "name": "lotId",
          "type": "uint256"
        },
        {
          "indexed": false,
          "internalType": "uint256",
          "name": "quantity",
          "type": "uint256"
        }
      ],
      "name": "AddedToManufacturerInventory",
      "type": "event"
    },
    {
      "anonymous": false,
      "inputs": [
        {
          "indexed": true,
          "internalType": "address",
          "name": "previousOwner",
          "type": "address"
        },
        {
          "indexed": true,
          "internalType": "address",
          "name": "newOwner",
          "type": "address"
        }
      ],
      "name": "OwnershipTransferred",
      "type": "event"
    },
    {
      "inputs": [
        {
          "internalType": "address",
          "name": "account",
          "type": "address"
        },
        {
          "internalType": "uint256",
          "name": "lotId",
          "type": "uint256"
        },
        {
          "internalType": "uint256",
          "name": "quantity",
          "type": "uint256"
        }
      ],
      "name": "addToInventory",
      "outputs": [],
      "stateMutability": "nonpayable",
      "type": "function"
    },
    {
      "inputs": [
        {
          "internalType": "uint256",
          "name": "lotId",
          "type": "uint256"
        },
        {
          "internalType": "uint256",
          "name": "quantity",
          "type": "uint256"
        }
      ],
      "name": "addToManufacturerInventory",
      "outputs": [],
      "stateMutability": "nonpayable",
      "type": "function"
    },
    {
      "inputs": [
        {
          "internalType": "address",
          "name": "",
          "type": "address"
        }
      ],
      "name": "authorizedUsers",
      "outputs": [
        {
          "internalType": "bool",
          "name": "",
          "type": "bool"
        }
      ],
      "stateMutability": "view",
      "type": "function"
    },
    {
      "inputs": [
        {
          "internalType": "address",
          "name": "account",
          "type": "address"
        }
      ],
      "name": "getInventory",
      "outputs": [
        {
          "internalType": "uint256[]",
          "name": "lotIds",
          "type": "uint256[]"
        },
        {
          "internalType": "uint256[]",
          "name": "quantities",
          "type": "uint256[]"
        }
      ],
      "stateMutability": "view",
      "type": "function"
    },
    {
      "inputs": [],
      "name": "getMyInventory",
      "outputs": [
        {
          "internalType": "uint256[]",
          "name": "lotIds",
          "type": "uint256[]"
        },
        {
          "internalType": "uint256[]",
          "name": "quantities",
          "type": "uint256[]"
        }
      ],
      "stateMutability": "view",
      "type": "function"
    },
    {
      "inputs": [
        {
          "internalType": "address",
          "name": "account",
          "type": "address"
        },
        {
          "internalType": "uint256[]",
          "name": "lotIds",
          "type": "uint256[]"
        },
        {
          "internalType": "uint256[]",
          "name": "quantities",
          "type": "uint256[]"
        }
      ],
      "name": "hasSufficientInventory",
      "outputs": [],
      "stateMutability": "view",
      "type": "function"
    },
    {
      "inputs": [
        {
          "internalType": "address",
          "name": "",
          "type": "address"
        }
      ],
      "name": "manufacturerUsers",
      "outputs": [
        {
          "internalType": "bool",
          "name": "",
          "type": "bool"
        }
      ],
      "stateMutability": "view",
      "type": "function"
    },
    {
      "inputs": [],
      "name": "owner",
      "outputs": [
        {
          "internalType": "address",
          "name": "",
          "type": "address"
        }
      ],
      "stateMutability": "view",
      "type": "function"
    },
    {
      "inputs": [],
      "name": "productManager",
      "outputs": [
        {
          "internalType": "contract ProductManager",
          "name": "",
          "type": "address"
        }
      ],
      "stateMutability": "view",
      "type": "function"
    },
    {
      "inputs": [
        {
          "internalType": "address",
          "name": "account",
          "type": "address"
        },
        {
          "internalType": "uint256",
          "name": "lotId",
          "type": "uint256"
        },
        {
          "internalType": "uint256",
          "name": "quantity",
          "type": "uint256"
        }
      ],
      "name": "removeFromInventory",
      "outputs": [],
      "stateMutability": "nonpayable",
      "type": "function"
    },
    {
      "inputs": [],
      "name": "renounceOwnership",
      "outputs": [],
      "stateMutability": "nonpayable",
      "type": "function"
    },
    {
      "inputs": [
        {
          "internalType": "address",
          "name": "wallet",
          "type": "address"
        },
        {
          "internalType": "bool",
          "name": "authorized",
          "type": "bool"
        }
      ],
      "name": "setManufacturerAuth",
      "outputs": [],
      "stateMutability": "nonpayable",
      "type": "function"
    },
    {
      "inputs": [
        {
          "internalType": "address",
          "name": "wallet",
          "type": "address"
        },
        {
          "internalType": "bool",
          "name": "authorized",
          "type": "bool"
        }
      ],
      "name": "setUserAuth",
      "outputs": [],
      "stateMutability": "nonpayable",
      "type": "function"
    },
    {
      "inputs": [
        {
          "internalType": "address",
          "name": "newOwner",
          "type": "address"
        }
      ],
      "name": "transferOwnership",
      "outputs": [],
      "stateMutability": "nonpayable",
      "type": "function"
    }
  ],
  "bytecode": "0x608060405234801561001057600080fd5b506040516127c23803806127c283398181016040528101906100329190610223565b33600073ffffffffffffffffffffffffffffffffffffffff168173ffffffffffffffffffffffffffffffffffffffff16036100a55760006040517f1e4fbdf700000000000000000000000000000000000000000000000000000000815260040161009c919061025f565b60405180910390fd5b6100b4816100fc60201b60201c565b5080600160006101000a81548173ffffffffffffffffffffffffffffffffffffffff021916908373ffffffffffffffffffffffffffffffffffffffff1602179055505061027a565b60008060009054906101000a900473ffffffffffffffffffffffffffffffffffffffff169050816000806101000a81548173ffffffffffffffffffffffffffffffffffffffff021916908373ffffffffffffffffffffffffffffffffffffffff1602179055508173ffffffffffffffffffffffffffffffffffffffff168173ffffffffffffffffffffffffffffffffffffffff167f8be0079c531659141344cd1fd0a4f28419497f9722a3daafe3b4186f6b6457e060405160405180910390a35050565b600080fd5b600073ffffffffffffffffffffffffffffffffffffffff82169050919050565b60006101f0826101c5565b9050919050565b610200816101e5565b811461020b57600080fd5b50565b60008151905061021d816101f7565b92915050565b600060208284031215610239576102386101c0565b5b60006102478482850161020e565b91505092915050565b610259816101e5565b82525050565b60006020820190506102746000830184610250565b92915050565b612539806102896000396000f3fe608060405234801561001057600080fd5b50600436106100ea5760003560e01c80638da5cb5b1161008c578063d82c6eb611610066578063d82c6eb614610223578063e1a46b551461023f578063f2fde38b1461026f578063f426306f1461028b576100ea565b80638da5cb5b146101cd5780639251f7bd146101eb5780639908124714610207576100ea565b806357f2b3fe116100c857806357f2b3fe1461015a57806360c068b014610176578063715018a6146101925780638b87c5441461019c576100ea565b806315242beb146100ef5780631828983a1461010b57806327457b3b1461013b575b600080fd5b61010960048036038101906101049190611907565b6102a9565b005b610125600480360381019061012091906119a5565b610550565b60405161013291906119ed565b60405180910390f35b610143610570565b604051610151929190611ac6565b60405180910390f35b610174600480360381019061016f9190611afd565b610702565b005b610190600480360381019061018b9190611afd565b61095b565b005b61019a610e98565b005b6101b660048036038101906101b191906119a5565b610eac565b6040516101c4929190611ac6565b60405180910390f35b6101d56110cb565b6040516101e29190611b5f565b60405180910390f35b61020560048036038101906102009190611ba6565b6110f4565b005b610221600480360381019061021c9190611c4b565b611157565b005b61023d60048036038101906102389190611ba6565b61141a565b005b610259600480360381019061025491906119a5565b61147d565b60405161026691906119ed565b60405180910390f35b610289600480360381019061028491906119a5565b61149d565b005b610293611523565b6040516102a09190611d3f565b60405180910390f35b600360003373ffffffffffffffffffffffffffffffffffffffff1673ffffffffffffffffffffffffffffffffffffffff16815260200190815260200160002060009054906101000a900460ff16610335576040517f08c379a000000000000000000000000000000000000000000000000000000000815260040161032c90611ddd565b60405180910390fd5b600160009054906101000a900473ffffffffffffffffffffffffffffffffffffffff1673ffffffffffffffffffffffffffffffffffffffff1663ab995d12836040518263ffffffff1660e01b81526004016103909190611e0c565b600060405180830381865afa1580156103ad573d6000803e3d6000fd5b505050506040513d6000823e3d601f19601f820116820180604052508101906103d69190612036565b506000600460003373ffffffffffffffffffffffffffffffffffffffff1673ffffffffffffffffffffffffffffffffffffffff1681526020019081526020016000206000848152602001908152602001600020540361049657600560003373ffffffffffffffffffffffffffffffffffffffff1673ffffffffffffffffffffffffffffffffffffffff1681526020019081526020016000208290806001815401808255809150506001900390600052602060002001600090919091909150555b80600460003373ffffffffffffffffffffffffffffffffffffffff1673ffffffffffffffffffffffffffffffffffffffff168152602001908152602001600020600084815260200190815260200160002060008282546104f691906120ae565b92505081905550813373ffffffffffffffffffffffffffffffffffffffff167f05aeb47ba2543aeaa51d0fa38b63a7ea6130827f507bb6733b542a2b7e4e118e836040516105449190611e0c565b60405180910390a35050565b60026020528060005260406000206000915054906101000a900460ff1681565b6060806000600560003373ffffffffffffffffffffffffffffffffffffffff1673ffffffffffffffffffffffffffffffffffffffff1681526020019081526020016000208054806020026020016040519081016040528092919081815260200182805480156105fe57602002820191906000526020600020905b8154815260200190600101908083116105ea575b505050505090506000815190508067ffffffffffffffff81111561062557610624611e3d565b5b6040519080825280602002602001820160405280156106535781602001602082028036833780820191505090505b50925060005b818110156106f857600460003373ffffffffffffffffffffffffffffffffffffffff1673ffffffffffffffffffffffffffffffffffffffff16815260200190815260200160002060008483815181106106b5576106b46120e2565b5b60200260200101518152602001908152602001600020548482815181106106df576106de6120e2565b5b6020026020010181815250508080600101915050610659565b5081935050509091565b600260003373ffffffffffffffffffffffffffffffffffffffff1673ffffffffffffffffffffffffffffffffffffffff16815260200190815260200160002060009054906101000a900460ff1661078e576040517f08c379a000000000000000000000000000000000000000000000000000000000815260040161078590612183565b60405180910390fd5b600160009054906101000a900473ffffffffffffffffffffffffffffffffffffffff1673ffffffffffffffffffffffffffffffffffffffff1663ab995d12836040518263ffffffff1660e01b81526004016107e99190611e0c565b600060405180830381865afa158015610806573d6000803e3d6000fd5b505050506040513d6000823e3d601f19601f8201168201806040525081019061082f9190612036565b506000600460008573ffffffffffffffffffffffffffffffffffffffff1673ffffffffffffffffffffffffffffffffffffffff168152602001908152602001600020600084815260200190815260200160002054036108ef57600560008473ffffffffffffffffffffffffffffffffffffffff1673ffffffffffffffffffffffffffffffffffffffff1681526020019081526020016000208290806001815401808255809150506001900390600052602060002001600090919091909150555b80600460008573ffffffffffffffffffffffffffffffffffffffff1673ffffffffffffffffffffffffffffffffffffffff1681526020019081526020016000206000848152602001908152602001600020600082825461094f91906120ae565b92505081905550505050565b600260003373ffffffffffffffffffffffffffffffffffffffff1673ffffffffffffffffffffffffffffffffffffffff16815260200190815260200160002060009054906101000a900460ff166109e7576040517f08c379a00000000000000000000000000000000000000000000000000000000081526004016109de90612183565b60405180910390fd5b600160009054906101000a900473ffffffffffffffffffffffffffffffffffffffff1673ffffffffffffffffffffffffffffffffffffffff1663ab995d12836040518263ffffffff1660e01b8152600401610a429190611e0c565b600060405180830381865afa158015610a5f573d6000803e3d6000fd5b505050506040513d6000823e3d601f19601f82011682018060405250810190610a889190612036565b5080600460008573ffffffffffffffffffffffffffffffffffffffff1673ffffffffffffffffffffffffffffffffffffffff1681526020019081526020016000206000848152602001908152602001600020541015610ae682611549565b610b3f600460008773ffffffffffffffffffffffffffffffffffffffff1673ffffffffffffffffffffffffffffffffffffffff168152602001908152602001600020600086815260200190815260200160002054611549565b604051602001610b509291906122a8565b60405160208183030381529060405290610ba0576040517f08c379a0000000000000000000000000000000000000000000000000000000008152600401610b97919061232e565b60405180910390fd5b5080600460008573ffffffffffffffffffffffffffffffffffffffff1673ffffffffffffffffffffffffffffffffffffffff16815260200190815260200160002060008481526020019081526020016000206000828254610c019190612350565b925050819055506000600460008573ffffffffffffffffffffffffffffffffffffffff1673ffffffffffffffffffffffffffffffffffffffff16815260200190815260200160002060008481526020019081526020016000205403610e925760005b600560008573ffffffffffffffffffffffffffffffffffffffff1673ffffffffffffffffffffffffffffffffffffffff16815260200190815260200160002080549050811015610e905782600560008673ffffffffffffffffffffffffffffffffffffffff1673ffffffffffffffffffffffffffffffffffffffff1681526020019081526020016000208281548110610cff57610cfe6120e2565b5b906000526020600020015403610e8357600560008573ffffffffffffffffffffffffffffffffffffffff1673ffffffffffffffffffffffffffffffffffffffff1681526020019081526020016000206001600560008773ffffffffffffffffffffffffffffffffffffffff1673ffffffffffffffffffffffffffffffffffffffff16815260200190815260200160002080549050610d9d9190612350565b81548110610dae57610dad6120e2565b5b9060005260206000200154600560008673ffffffffffffffffffffffffffffffffffffffff1673ffffffffffffffffffffffffffffffffffffffff1681526020019081526020016000208281548110610e0a57610e096120e2565b5b9060005260206000200181905550600560008573ffffffffffffffffffffffffffffffffffffffff1673ffffffffffffffffffffffffffffffffffffffff168152602001908152602001600020805480610e6757610e66612384565b5b6001900381819060005260206000200160009055905550610e93565b8080600101915050610c63565b505b5b505050565b610ea0611617565b610eaa600061169e565b565b606080600260003373ffffffffffffffffffffffffffffffffffffffff1673ffffffffffffffffffffffffffffffffffffffff16815260200190815260200160002060009054906101000a900460ff16610f3b576040517f08c379a0000000000000000000000000000000000000000000000000000000008152600401610f3290612183565b60405180910390fd5b6000600560008573ffffffffffffffffffffffffffffffffffffffff1673ffffffffffffffffffffffffffffffffffffffff168152602001908152602001600020805480602002602001604051908101604052809291908181526020018280548015610fc657602002820191906000526020600020905b815481526020019060010190808311610fb2575b505050505090506000815190508067ffffffffffffffff811115610fed57610fec611e3d565b5b60405190808252806020026020018201604052801561101b5781602001602082028036833780820191505090505b50925060005b818110156110c057600460008773ffffffffffffffffffffffffffffffffffffffff1673ffffffffffffffffffffffffffffffffffffffff168152602001908152602001600020600084838151811061107d5761107c6120e2565b5b60200260200101518152602001908152602001600020548482815181106110a7576110a66120e2565b5b6020026020010181815250508080600101915050611021565b508193505050915091565b60008060009054906101000a900473ffffffffffffffffffffffffffffffffffffffff16905090565b6110fc611617565b80600360008473ffffffffffffffffffffffffffffffffffffffff1673ffffffffffffffffffffffffffffffffffffffff16815260200190815260200160002060006101000a81548160ff0219169083151502179055505050565b81819050848490501461119f576040517f08c379a0000000000000000000000000000000000000000000000000000000008152600401611196906123ff565b60405180910390fd5b60005b8484905081101561141257600160009054906101000a900473ffffffffffffffffffffffffffffffffffffffff1673ffffffffffffffffffffffffffffffffffffffff1663ab995d128686848181106111fe576111fd6120e2565b5b905060200201356040518263ffffffff1660e01b81526004016112219190611e0c565b600060405180830381865afa15801561123e573d6000803e3d6000fd5b505050506040513d6000823e3d601f19601f820116820180604052508101906112679190612036565b5082828281811061127b5761127a6120e2565b5b90506020020135600460008873ffffffffffffffffffffffffffffffffffffffff1673ffffffffffffffffffffffffffffffffffffffff16815260200190815260200160002060008787858181106112d6576112d56120e2565b5b90506020020135815260200190815260200160002054101561140557611314858583818110611308576113076120e2565b5b90506020020135611549565b61133684848481811061132a576113296120e2565b5b90506020020135611549565b6113a8600460008a73ffffffffffffffffffffffffffffffffffffffff1673ffffffffffffffffffffffffffffffffffffffff168152602001908152602001600020600089898781811061138d5761138c6120e2565b5b90506020020135815260200190815260200160002054611549565b6040516020016113ba9392919061246b565b6040516020818303038152906040526040517f08c379a00000000000000000000000000000000000000000000000000000000081526004016113fc919061232e565b60405180910390fd5b80806001019150506111a2565b505050505050565b611422611617565b80600260008473ffffffffffffffffffffffffffffffffffffffff1673ffffffffffffffffffffffffffffffffffffffff16815260200190815260200160002060006101000a81548160ff0219169083151502179055505050565b60036020528060005260406000206000915054906101000a900460ff1681565b6114a5611617565b600073ffffffffffffffffffffffffffffffffffffffff168173ffffffffffffffffffffffffffffffffffffffff16036115175760006040517f1e4fbdf700000000000000000000000000000000000000000000000000000000815260040161150e9190611b5f565b60405180910390fd5b6115208161169e565b50565b600160009054906101000a900473ffffffffffffffffffffffffffffffffffffffff1681565b60606000600161155884611762565b01905060008167ffffffffffffffff81111561157757611576611e3d565b5b6040519080825280601f01601f1916602001820160405280156115a95781602001600182028036833780820191505090505b509050600082602001820190505b60011561160c578080600190039150507f3031323334353637383961626364656600000000000000000000000000000000600a86061a8153600a8581611600576115ff6124d4565b5b049450600085036115b7575b819350505050919050565b61161f6118b5565b73ffffffffffffffffffffffffffffffffffffffff1661163d6110cb565b73ffffffffffffffffffffffffffffffffffffffff161461169c576116606118b5565b6040517f118cdaa70000000000000000000000000000000000000000000000000000000081526004016116939190611b5f565b60405180910390fd5b565b60008060009054906101000a900473ffffffffffffffffffffffffffffffffffffffff169050816000806101000a81548173ffffffffffffffffffffffffffffffffffffffff021916908373ffffffffffffffffffffffffffffffffffffffff1602179055508173ffffffffffffffffffffffffffffffffffffffff168173ffffffffffffffffffffffffffffffffffffffff167f8be0079c531659141344cd1fd0a4f28419497f9722a3daafe3b4186f6b6457e060405160405180910390a35050565b600080600090507a184f03e93ff9f4daa797ed6e38ed64bf6a1f01000000000000000083106117c0577a184f03e93ff9f4daa797ed6e38ed64bf6a1f01000000000000000083816117b6576117b56124d4565b5b0492506040810190505b6d04ee2d6d415b85acef810000000083106117fd576d04ee2d6d415b85acef810000000083816117f3576117f26124d4565b5b0492506020810190505b662386f26fc10000831061182c57662386f26fc100008381611822576118216124d4565b5b0492506010810190505b6305f5e1008310611855576305f5e100838161184b5761184a6124d4565b5b0492506008810190505b612710831061187a5761271083816118705761186f6124d4565b5b0492506004810190505b6064831061189d5760648381611893576118926124d4565b5b0492506002810190505b600a83106118ac576001810190505b80915050919050565b600033905090565b6000604051905090565b600080fd5b600080fd5b6000819050919050565b6118e4816118d1565b81146118ef57600080fd5b50565b600081359050611901816118db565b92915050565b6000806040838503121561191e5761191d6118c7565b5b600061192c858286016118f2565b925050602061193d858286016118f2565b9150509250929050565b600073ffffffffffffffffffffffffffffffffffffffff82169050919050565b600061197282611947565b9050919050565b61198281611967565b811461198d57600080fd5b50565b60008135905061199f81611979565b92915050565b6000602082840312156119bb576119ba6118c7565b5b60006119c984828501611990565b91505092915050565b60008115159050919050565b6119e7816119d2565b82525050565b6000602082019050611a0260008301846119de565b92915050565b600081519050919050565b600082825260208201905092915050565b6000819050602082019050919050565b611a3d816118d1565b82525050565b6000611a4f8383611a34565b60208301905092915050565b6000602082019050919050565b6000611a7382611a08565b611a7d8185611a13565b9350611a8883611a24565b8060005b83811015611ab9578151611aa08882611a43565b9750611aab83611a5b565b925050600181019050611a8c565b5085935050505092915050565b60006040820190508181036000830152611ae08185611a68565b90508181036020830152611af48184611a68565b90509392505050565b600080600060608486031215611b1657611b156118c7565b5b6000611b2486828701611990565b9350506020611b35868287016118f2565b9250506040611b46868287016118f2565b9150509250925092565b611b5981611967565b82525050565b6000602082019050611b746000830184611b50565b92915050565b611b83816119d2565b8114611b8e57600080fd5b50565b600081359050611ba081611b7a565b92915050565b60008060408385031215611bbd57611bbc6118c7565b5b6000611bcb85828601611990565b9250506020611bdc85828601611b91565b9150509250929050565b600080fd5b600080fd5b600080fd5b60008083601f840112611c0b57611c0a611be6565b5b8235905067ffffffffffffffff811115611c2857611c27611beb565b5b602083019150836020820283011115611c4457611c43611bf0565b5b9250929050565b600080600080600060608688031215611c6757611c666118c7565b5b6000611c7588828901611990565b955050602086013567ffffffffffffffff811115611c9657611c956118cc565b5b611ca288828901611bf5565b9450945050604086013567ffffffffffffffff811115611cc557611cc46118cc565b5b611cd188828901611bf5565b92509250509295509295909350565b6000819050919050565b6000611d05611d00611cfb84611947565b611ce0565b611947565b9050919050565b6000611d1782611cea565b9050919050565b6000611d2982611d0c565b9050919050565b611d3981611d1e565b82525050565b6000602082019050611d546000830184611d30565b92915050565b600082825260208201905092915050565b7f4f6e6c7920746865206d616e75666163747572657220697320616c6c6f77656460008201527f20746f2075736520746869732066756e6374696f6e0000000000000000000000602082015250565b6000611dc7603583611d5a565b9150611dd282611d6b565b604082019050919050565b60006020820190508181036000830152611df681611dba565b9050919050565b611e06816118d1565b82525050565b6000602082019050611e216000830184611dfd565b92915050565b600080fd5b6000601f19601f8301169050919050565b7f4e487b7100000000000000000000000000000000000000000000000000000000600052604160045260246000fd5b611e7582611e2c565b810181811067ffffffffffffffff82111715611e9457611e93611e3d565b5b80604052505050565b6000611ea76118bd565b9050611eb38282611e6c565b919050565b600080fd5b600080fd5b600067ffffffffffffffff821115611edd57611edc611e3d565b5b611ee682611e2c565b9050602081019050919050565b60005b83811015611f11578082015181840152602081019050611ef6565b60008484015250505050565b6000611f30611f2b84611ec2565b611e9d565b905082815260208101848484011115611f4c57611f4b611ebd565b5b611f57848285611ef3565b509392505050565b600082601f830112611f7457611f73611be6565b5b8151611f84848260208601611f1d565b91505092915050565b600081519050611f9c816118db565b92915050565b600060808284031215611fb857611fb7611e27565b5b611fc26080611e9d565b9050600082015167ffffffffffffffff811115611fe257611fe1611eb8565b5b611fee84828501611f5f565b600083015250602061200284828501611f8d565b602083015250604061201684828501611f8d565b604083015250606061202a84828501611f8d565b60608301525092915050565b60006020828403121561204c5761204b6118c7565b5b600082015167ffffffffffffffff81111561206a576120696118cc565b5b61207684828501611fa2565b91505092915050565b7f4e487b7100000000000000000000000000000000000000000000000000000000600052601160045260246000fd5b60006120b9826118d1565b91506120c4836118d1565b92508282019050808211156120dc576120db61207f565b5b92915050565b7f4e487b7100000000000000000000000000000000000000000000000000000000600052603260045260246000fd5b7f4e6f7420617574686f72697a656420746f2075736520746869732066756e637460008201527f696f6e0000000000000000000000000000000000000000000000000000000000602082015250565b600061216d602383611d5a565b915061217882612111565b604082019050919050565b6000602082019050818103600083015261219c81612160565b9050919050565b7f5175616e74697479202800000000000000000000000000000000000000000000815250565b600081519050919050565b600081905092915050565b60006121ea826121c9565b6121f481856121d4565b9350612204818560208601611ef3565b80840191505092915050565b7f2920697320626967676572207468616e2074686520616d6f756e7420696e206960008201527f6e76656e746f7279202800000000000000000000000000000000000000000000602082015250565b600061226c602a836121d4565b915061227782612210565b602a82019050919050565b7f2900000000000000000000000000000000000000000000000000000000000000815250565b60006122b3826121a3565b600a820191506122c382856121df565b91506122ce8261225f565b91506122da82846121df565b91506122e582612282565b6001820191508190509392505050565b6000612300826121c9565b61230a8185611d5a565b935061231a818560208601611ef3565b61232381611e2c565b840191505092915050565b6000602082019050818103600083015261234881846122f5565b905092915050565b600061235b826118d1565b9150612366836118d1565b925082820390508181111561237e5761237d61207f565b5b92915050565b7f4e487b7100000000000000000000000000000000000000000000000000000000600052603160045260246000fd5b7f4172726179732073697a65206d757374206d6174636800000000000000000000600082015250565b60006123e9601683611d5a565b91506123f4826123b3565b602082019050919050565b60006020820190508181036000830152612418816123dc565b9050919050565b7f5175616e7469747920666f72206c6f7420000000000000000000000000000000815250565b7f2028000000000000000000000000000000000000000000000000000000000000815250565b60006124768261241f565b60118201915061248682866121df565b915061249182612445565b6002820191506124a182856121df565b91506124ac8261225f565b91506124b882846121df565b91506124c382612282565b600182019150819050949350505050565b7f4e487b7100000000000000000000000000000000000000000000000000000000600052601260045260246000fdfea2646970667358221220c3e527bfc49b75b6158bfb9c50e6956977f2687c9fd763d4ab1592e8bc290d4e64736f6c634300081e0033",
  "linkReferences": {},
  "deployedLinkReferences": {}
}