{
  "_format": "hh-sol-artifact-1",
  "contractName": "ProductManager",
  "sourceName": "contracts/implementation/ProductManager.sol",
  "abi": [
    {
      "inputs": [],
      "stateMutability": "nonpayable",
      "type": "constructor"
    },
    {
      "inputs": [
        {
          "internalType": "address",
          "name": "owner",
          "type": "address"
        }
      ],
      "name": "OwnableInvalidOwner",
      "type": "error"
    },
    {
      "inputs": [
        {
          "internalType": "address",
          "name": "account",
          "type": "address"
        }
      ],
      "name": "OwnableUnauthorizedAccount",
      "type": "error"
    },
    {
      "anonymous": false,
      "inputs": [
        {
          "indexed": true,
          "internalType": "uint256",
          "name": "lotId",
          "type": "uint256"
        },
        {
          "indexed": true,
          "internalType": "uint256",
          "name": "productId",
          "type": "uint256"
        },
        {
          "components": [
            {
              "internalType": "string",
              "name": "expirationDate",
              "type": "string"
            },
            {
              "internalType": "uint256",
              "name": "totalQuantity",
              "type": "uint256"
            },
            {
              "internalType": "uint256",
              "name": "unitPrice",
              "type": "uint256"
            },
            {
              "internalType": "uint256",
              "name": "productId",
              "type": "uint256"
            }
          ],
          "indexed": false,
          "internalType": "struct ProductManager.LotDetails",
          "name": "lotdetails",
          "type": "tuple"
        }
      ],
      "name": "LotCreated",
      "type": "event"
    },
    {
      "anonymous": false,
      "inputs": [
        {
          "indexed": true,
          "internalType": "uint256",
          "name": "lotId",
          "type": "uint256"
        }
      ],
      "name": "LotRemoved",
      "type": "event"
    },
    {
      "anonymous": false,
      "inputs": [
        {
          "indexed": true,
          "internalType": "address",
          "name": "previousOwner",
          "type": "address"
        },
        {
          "indexed": true,
          "internalType": "address",
          "name": "newOwner",
          "type": "address"
        }
      ],
      "name": "OwnershipTransferred",
      "type": "event"
    },
    {
      "anonymous": false,
      "inputs": [
        {
          "indexed": true,
          "internalType": "uint256",
          "name": "productId",
          "type": "uint256"
        },
        {
          "components": [
            {
              "internalType": "string",
              "name": "productIdentification",
              "type": "string"
            },
            {
              "internalType": "string",
              "name": "materials",
              "type": "string"
            }
          ],
          "indexed": false,
          "internalType": "struct ProductManager.DPP",
          "name": "dpp",
          "type": "tuple"
        }
      ],
      "name": "ProductCreated",
      "type": "event"
    },
    {
      "anonymous": false,
      "inputs": [
        {
          "indexed": true,
          "internalType": "uint256",
          "name": "productId",
          "type": "uint256"
        }
      ],
      "name": "ProductRemoved",
      "type": "event"
    },
    {
      "inputs": [
        {
          "internalType": "address",
          "name": "",
          "type": "address"
        }
      ],
      "name": "authorizedUsers",
      "outputs": [
        {
          "internalType": "bool",
          "name": "",
          "type": "bool"
        }
      ],
      "stateMutability": "view",
      "type": "function"
    },
    {
      "inputs": [
        {
          "internalType": "uint256",
          "name": "lotId",
          "type": "uint256"
        },
        {
          "components": [
            {
              "internalType": "string",
              "name": "expirationDate",
              "type": "string"
            },
            {
              "internalType": "uint256",
              "name": "totalQuantity",
              "type": "uint256"
            },
            {
              "internalType": "uint256",
              "name": "unitPrice",
              "type": "uint256"
            },
            {
              "internalType": "uint256",
              "name": "productId",
              "type": "uint256"
            }
          ],
          "internalType": "struct ProductManager.LotDetails",
          "name": "lotDetails",
          "type": "tuple"
        }
      ],
      "name": "createLot",
      "outputs": [],
      "stateMutability": "nonpayable",
      "type": "function"
    },
    {
      "inputs": [
        {
          "internalType": "uint256",
          "name": "productId",
          "type": "uint256"
        },
        {
          "components": [
            {
              "internalType": "string",
              "name": "productIdentification",
              "type": "string"
            },
            {
              "internalType": "string",
              "name": "materials",
              "type": "string"
            }
          ],
          "internalType": "struct ProductManager.DPP",
          "name": "dpp",
          "type": "tuple"
        }
      ],
      "name": "createProduct",
      "outputs": [],
      "stateMutability": "nonpayable",
      "type": "function"
    },
    {
      "inputs": [
        {
          "internalType": "uint256",
          "name": "lotId",
          "type": "uint256"
        }
      ],
      "name": "getLot",
      "outputs": [
        {
          "components": [
            {
              "internalType": "string",
              "name": "expirationDate",
              "type": "string"
            },
            {
              "internalType": "uint256",
              "name": "totalQuantity",
              "type": "uint256"
            },
            {
              "internalType": "uint256",
              "name": "unitPrice",
              "type": "uint256"
            },
            {
              "internalType": "uint256",
              "name": "productId",
              "type": "uint256"
            }
          ],
          "internalType": "struct ProductManager.LotDetails",
          "name": "",
          "type": "tuple"
        }
      ],
      "stateMutability": "view",
      "type": "function"
    },
    {
      "inputs": [
        {
          "internalType": "uint256",
          "name": "productId",
          "type": "uint256"
        }
      ],
      "name": "getProduct",
      "outputs": [
        {
          "components": [
            {
              "internalType": "string",
              "name": "productIdentification",
              "type": "string"
            },
            {
              "internalType": "string",
              "name": "materials",
              "type": "string"
            }
          ],
          "internalType": "struct ProductManager.DPP",
          "name": "",
          "type": "tuple"
        }
      ],
      "stateMutability": "view",
      "type": "function"
    },
    {
      "inputs": [
        {
          "internalType": "uint256",
          "name": "",
          "type": "uint256"
        }
      ],
      "name": "lots",
      "outputs": [
        {
          "internalType": "string",
          "name": "expirationDate",
          "type": "string"
        },
        {
          "internalType": "uint256",
          "name": "totalQuantity",
          "type": "uint256"
        },
        {
          "internalType": "uint256",
          "name": "unitPrice",
          "type": "uint256"
        },
        {
          "internalType": "uint256",
          "name": "productId",
          "type": "uint256"
        }
      ],
      "stateMutability": "view",
      "type": "function"
    },
    {
      "inputs": [
        {
          "internalType": "uint256",
          "name": "",
          "type": "uint256"
        }
      ],
      "name": "lotsIds",
      "outputs": [
        {
          "internalType": "uint256",
          "name": "",
          "type": "uint256"
        }
      ],
      "stateMutability": "view",
      "type": "function"
    },
    {
      "inputs": [],
      "name": "owner",
      "outputs": [
        {
          "internalType": "address",
          "name": "",
          "type": "address"
        }
      ],
      "stateMutability": "view",
      "type": "function"
    },
    {
      "inputs": [
        {
          "internalType": "uint256",
          "name": "",
          "type": "uint256"
        }
      ],
      "name": "products",
      "outputs": [
        {
          "internalType": "string",
          "name": "productIdentification",
          "type": "string"
        },
        {
          "internalType": "string",
          "name": "materials",
          "type": "string"
        }
      ],
      "stateMutability": "view",
      "type": "function"
    },
    {
      "inputs": [
        {
          "internalType": "uint256",
          "name": "",
          "type": "uint256"
        }
      ],
      "name": "productsIds",
      "outputs": [
        {
          "internalType": "uint256",
          "name": "",
          "type": "uint256"
        }
      ],
      "stateMutability": "view",
      "type": "function"
    },
    {
      "inputs": [
        {
          "internalType": "uint256",
          "name": "lotId",
          "type": "uint256"
        }
      ],
      "name": "removeLot",
      "outputs": [],
      "stateMutability": "nonpayable",
      "type": "function"
    },
    {
      "inputs": [
        {
          "internalType": "uint256",
          "name": "productId",
          "type": "uint256"
        }
      ],
      "name": "removeProduct",
      "outputs": [],
      "stateMutability": "nonpayable",
      "type": "function"
    },
    {
      "inputs": [],
      "name": "renounceOwnership",
      "outputs": [],
      "stateMutability": "nonpayable",
      "type": "function"
    },
    {
      "inputs": [
        {
          "internalType": "address",
          "name": "wallet",
          "type": "address"
        },
        {
          "internalType": "bool",
          "name": "authorized",
          "type": "bool"
        }
      ],
      "name": "setUserAuth",
      "outputs": [],
      "stateMutability": "nonpayable",
      "type": "function"
    },
    {
      "inputs": [
        {
          "internalType": "address",
          "name": "newOwner",
          "type": "address"
        }
      ],
      "name": "transferOwnership",
      "outputs": [],
      "stateMutability": "nonpayable",
      "type": "function"
    }
  ],
  "bytecode": "0x608060405234801561001057600080fd5b5033600073ffffffffffffffffffffffffffffffffffffffff168173ffffffffffffffffffffffffffffffffffffffff16036100845760006040517f1e4fbdf700000000000000000000000000000000000000000000000000000000815260040161007b919061019e565b60405180910390fd5b6100938161009960201b60201c565b506101b9565b60008060009054906101000a900473ffffffffffffffffffffffffffffffffffffffff169050816000806101000a81548173ffffffffffffffffffffffffffffffffffffffff021916908373ffffffffffffffffffffffffffffffffffffffff1602179055508173ffffffffffffffffffffffffffffffffffffffff168173ffffffffffffffffffffffffffffffffffffffff167f8be0079c531659141344cd1fd0a4f28419497f9722a3daafe3b4186f6b6457e060405160405180910390a35050565b600073ffffffffffffffffffffffffffffffffffffffff82169050919050565b60006101888261015d565b9050919050565b6101988161017d565b82525050565b60006020820190506101b3600083018461018f565b92915050565b61230b806101c86000396000f3fe608060405234801561001057600080fd5b50600436106100f55760003560e01c8063ab995d1211610097578063c126b14b11610066578063c126b14b14610297578063d82c6eb6146102b3578063f1648e84146102cf578063f2fde38b14610302576100f5565b8063ab995d12146101eb578063af9e2b0d1461021b578063b9db15b41461024b578063ba8cb8c41461027b576100f5565b8063712611dd116100d3578063712611dd14610162578063715018a6146101925780637acc0b201461019c5780638da5cb5b146101cd576100f5565b80631828983a146100fa5780635a4cbe511461012a5780635ee95cae14610146575b600080fd5b610114600480360381019061010f9190611332565b61031e565b604051610121919061137a565b60405180910390f35b610144600480360381019061013f91906113cb565b61033e565b005b610160600480360381019061015b91906113cb565b610536565b005b61017c600480360381019061017791906113cb565b610726565b6040516101899190611407565b60405180910390f35b61019a61074a565b005b6101b660048036038101906101b191906113cb565b61075e565b6040516101c49291906114b2565b60405180910390f35b6101d5610892565b6040516101e291906114f8565b60405180910390f35b610205600480360381019061020091906113cb565b6108bb565b60405161021291906115cf565b60405180910390f35b610235600480360381019061023091906113cb565b6109fd565b6040516102429190611407565b60405180910390f35b610265600480360381019061026091906113cb565b610a21565b6040516102729190611635565b60405180910390f35b6102956004803603810190610290919061167b565b610bd7565b005b6102b160048036038101906102ac91906116f6565b610d50565b005b6102cd60048036038101906102c8919061177e565b610f37565b005b6102e960048036038101906102e491906113cb565b610f9a565b6040516102f994939291906117be565b60405180910390f35b61031c60048036038101906103179190611332565b611052565b005b60016020528060005260406000206000915054906101000a900460ff1681565b600160003373ffffffffffffffffffffffffffffffffffffffff1673ffffffffffffffffffffffffffffffffffffffff16815260200190815260200160002060009054906101000a900460ff166103ca576040517f08c379a00000000000000000000000000000000000000000000000000000000081526004016103c19061187c565b60405180910390fd5b60046000828152602001908152602001600020600080820160006103ee919061122b565b600182016000905560028201600090556003820160009055505060005b6005805490508110156104f757816005828154811061042d5761042c61189c565b5b9060005260206000200154036104ea576005600160058054905061045191906118fa565b815481106104625761046161189c565b5b9060005260206000200154600582815481106104815761048061189c565b5b906000526020600020018190555060058054806104a1576104a061192e565b5b60019003818190600052602060002001600090559055817f50ff6c8267104354ffd393edb06d421ec439784c4a2c0595e11e5fb6b1ecbf4360405160405180910390a250610533565b808060010191505061040b565b506040517f08c379a000000000000000000000000000000000000000000000000000000000815260040161052a906119a9565b60405180910390fd5b50565b600160003373ffffffffffffffffffffffffffffffffffffffff1673ffffffffffffffffffffffffffffffffffffffff16815260200190815260200160002060009054906101000a900460ff166105c2576040517f08c379a00000000000000000000000000000000000000000000000000000000081526004016105b99061187c565b60405180910390fd5b60026000828152602001908152602001600020600080820160006105e6919061122b565b6001820160006105f6919061122b565b505060005b6003805490508110156106e757816003828154811061061d5761061c61189c565b5b9060005260206000200154036106da576003600160038054905061064191906118fa565b815481106106525761065161189c565b5b9060005260206000200154600382815481106106715761067061189c565b5b906000526020600020018190555060038054806106915761069061192e565b5b60019003818190600052602060002001600090559055817f07015631cff457b5b13492c2045e70c6305a0a4aa773e432e79abbe2cf52c1eb60405160405180910390a250610723565b80806001019150506105fb565b506040517f08c379a000000000000000000000000000000000000000000000000000000000815260040161071a90611a15565b60405180910390fd5b50565b6003818154811061073657600080fd5b906000526020600020016000915090505481565b6107526110d8565b61075c600061115f565b565b600260205280600052604060002060009150905080600001805461078190611a64565b80601f01602080910402602001604051908101604052809291908181526020018280546107ad90611a64565b80156107fa5780601f106107cf576101008083540402835291602001916107fa565b820191906000526020600020905b8154815290600101906020018083116107dd57829003601f168201915b50505050509080600101805461080f90611a64565b80601f016020809104026020016040519081016040528092919081815260200182805461083b90611a64565b80156108885780601f1061085d57610100808354040283529160200191610888565b820191906000526020600020905b81548152906001019060200180831161086b57829003601f168201915b5050505050905082565b60008060009054906101000a900473ffffffffffffffffffffffffffffffffffffffff16905090565b6108c361126b565b60006004600084815260200190815260200160002060000180546108e690611a64565b905003610928576040517f08c379a000000000000000000000000000000000000000000000000000000000815260040161091f90611ae1565b60405180910390fd5b6004600083815260200190815260200160002060405180608001604052908160008201805461095690611a64565b80601f016020809104026020016040519081016040528092919081815260200182805461098290611a64565b80156109cf5780601f106109a4576101008083540402835291602001916109cf565b820191906000526020600020905b8154815290600101906020018083116109b257829003601f168201915b5050505050815260200160018201548152602001600282015481526020016003820154815250509050919050565b60058181548110610a0d57600080fd5b906000526020600020016000915090505481565b610a29611293565b6000600260008481526020019081526020016000206000018054610a4c90611a64565b905003610a8e576040517f08c379a0000000000000000000000000000000000000000000000000000000008152600401610a8590611b4d565b60405180910390fd5b60026000838152602001908152602001600020604051806040016040529081600082018054610abc90611a64565b80601f0160208091040260200160405190810160405280929190818152602001828054610ae890611a64565b8015610b355780601f10610b0a57610100808354040283529160200191610b35565b820191906000526020600020905b815481529060010190602001808311610b1857829003601f168201915b50505050508152602001600182018054610b4e90611a64565b80601f0160208091040260200160405190810160405280929190818152602001828054610b7a90611a64565b8015610bc75780601f10610b9c57610100808354040283529160200191610bc7565b820191906000526020600020905b815481529060010190602001808311610baa57829003601f168201915b5050505050815250509050919050565b600160003373ffffffffffffffffffffffffffffffffffffffff1673ffffffffffffffffffffffffffffffffffffffff16815260200190815260200160002060009054906101000a900460ff16610c63576040517f08c379a0000000000000000000000000000000000000000000000000000000008152600401610c5a9061187c565b60405180910390fd5b6000600260008481526020019081526020016000206000018054610c8690611a64565b905014610cc8576040517f08c379a0000000000000000000000000000000000000000000000000000000008152600401610cbf90611bb9565b60405180910390fd5b80600260008481526020019081526020016000208181610ce89190611f57565b9050506003829080600181540180825580915050600190039060005260206000200160009091909190915055817f977b7c809443074a157e15e8fe4641ddc62916895cca430493b9a88563f6e7fb82604051610d44919061206b565b60405180910390a25050565b600160003373ffffffffffffffffffffffffffffffffffffffff1673ffffffffffffffffffffffffffffffffffffffff16815260200190815260200160002060009054906101000a900460ff16610ddc576040517f08c379a0000000000000000000000000000000000000000000000000000000008152600401610dd39061187c565b60405180910390fd5b6000600460008481526020019081526020016000206000018054610dff90611a64565b905014610e41576040517f08c379a0000000000000000000000000000000000000000000000000000000008152600401610e38906120d9565b60405180910390fd5b600060026000836060013581526020019081526020016000206000018054610e6890611a64565b905003610eaa576040517f08c379a0000000000000000000000000000000000000000000000000000000008152600401610ea190611b4d565b60405180910390fd5b80600460008481526020019081526020016000208181610eca9190612209565b90505060058290806001815401808255809150506001900390600052602060002001600090919091909150558060600135827fcd17ef82c061ccd36cb8c45dde1ebd8c455cd5c11ea853ce12c50efc6661416d83604051610f2b91906122b3565b60405180910390a35050565b610f3f6110d8565b80600160008473ffffffffffffffffffffffffffffffffffffffff1673ffffffffffffffffffffffffffffffffffffffff16815260200190815260200160002060006101000a81548160ff0219169083151502179055505050565b6004602052806000526040600020600091509050806000018054610fbd90611a64565b80601f0160208091040260200160405190810160405280929190818152602001828054610fe990611a64565b80156110365780601f1061100b57610100808354040283529160200191611036565b820191906000526020600020905b81548152906001019060200180831161101957829003601f168201915b5050505050908060010154908060020154908060030154905084565b61105a6110d8565b600073ffffffffffffffffffffffffffffffffffffffff168173ffffffffffffffffffffffffffffffffffffffff16036110cc5760006040517f1e4fbdf70000000000000000000000000000000000000000000000000000000081526004016110c391906114f8565b60405180910390fd5b6110d58161115f565b50565b6110e0611223565b73ffffffffffffffffffffffffffffffffffffffff166110fe610892565b73ffffffffffffffffffffffffffffffffffffffff161461115d57611121611223565b6040517f118cdaa700000000000000000000000000000000000000000000000000000000815260040161115491906114f8565b60405180910390fd5b565b60008060009054906101000a900473ffffffffffffffffffffffffffffffffffffffff169050816000806101000a81548173ffffffffffffffffffffffffffffffffffffffff021916908373ffffffffffffffffffffffffffffffffffffffff1602179055508173ffffffffffffffffffffffffffffffffffffffff168173ffffffffffffffffffffffffffffffffffffffff167f8be0079c531659141344cd1fd0a4f28419497f9722a3daafe3b4186f6b6457e060405160405180910390a35050565b600033905090565b50805461123790611a64565b6000825580601f106112495750611268565b601f01602090049060005260206000209081019061126791906112ad565b5b50565b6040518060800160405280606081526020016000815260200160008152602001600081525090565b604051806040016040528060608152602001606081525090565b5b808211156112c65760008160009055506001016112ae565b5090565b600080fd5b600080fd5b600073ffffffffffffffffffffffffffffffffffffffff82169050919050565b60006112ff826112d4565b9050919050565b61130f816112f4565b811461131a57600080fd5b50565b60008135905061132c81611306565b92915050565b600060208284031215611348576113476112ca565b5b60006113568482850161131d565b91505092915050565b60008115159050919050565b6113748161135f565b82525050565b600060208201905061138f600083018461136b565b92915050565b6000819050919050565b6113a881611395565b81146113b357600080fd5b50565b6000813590506113c58161139f565b92915050565b6000602082840312156113e1576113e06112ca565b5b60006113ef848285016113b6565b91505092915050565b61140181611395565b82525050565b600060208201905061141c60008301846113f8565b92915050565b600081519050919050565b600082825260208201905092915050565b60005b8381101561145c578082015181840152602081019050611441565b60008484015250505050565b6000601f19601f8301169050919050565b600061148482611422565b61148e818561142d565b935061149e81856020860161143e565b6114a781611468565b840191505092915050565b600060408201905081810360008301526114cc8185611479565b905081810360208301526114e08184611479565b90509392505050565b6114f2816112f4565b82525050565b600060208201905061150d60008301846114e9565b92915050565b600082825260208201905092915050565b600061152f82611422565b6115398185611513565b935061154981856020860161143e565b61155281611468565b840191505092915050565b61156681611395565b82525050565b600060808301600083015184820360008601526115898282611524565b915050602083015161159e602086018261155d565b5060408301516115b1604086018261155d565b5060608301516115c4606086018261155d565b508091505092915050565b600060208201905081810360008301526115e9818461156c565b905092915050565b6000604083016000830151848203600086015261160e8282611524565b915050602083015184820360208601526116288282611524565b9150508091505092915050565b6000602082019050818103600083015261164f81846115f1565b905092915050565b600080fd5b60006040828403121561167257611671611657565b5b81905092915050565b60008060408385031215611692576116916112ca565b5b60006116a0858286016113b6565b925050602083013567ffffffffffffffff8111156116c1576116c06112cf565b5b6116cd8582860161165c565b9150509250929050565b6000608082840312156116ed576116ec611657565b5b81905092915050565b6000806040838503121561170d5761170c6112ca565b5b600061171b858286016113b6565b925050602083013567ffffffffffffffff81111561173c5761173b6112cf565b5b611748858286016116d7565b9150509250929050565b61175b8161135f565b811461176657600080fd5b50565b60008135905061177881611752565b92915050565b60008060408385031215611795576117946112ca565b5b60006117a38582860161131d565b92505060206117b485828601611769565b9150509250929050565b600060808201905081810360008301526117d88187611479565b90506117e760208301866113f8565b6117f460408301856113f8565b61180160608301846113f8565b95945050505050565b7f4e6f7420617574686f72697a656420746f2075736520746869732066756e637460008201527f696f6e0000000000000000000000000000000000000000000000000000000000602082015250565b600061186660238361142d565b91506118718261180a565b604082019050919050565b6000602082019050818103600083015261189581611859565b9050919050565b7f4e487b7100000000000000000000000000000000000000000000000000000000600052603260045260246000fd5b7f4e487b7100000000000000000000000000000000000000000000000000000000600052601160045260246000fd5b600061190582611395565b915061191083611395565b9250828203905081811115611928576119276118cb565b5b92915050565b7f4e487b7100000000000000000000000000000000000000000000000000000000600052603160045260246000fd5b7f4c6f74206e6f7420666f756e6400000000000000000000000000000000000000600082015250565b6000611993600d8361142d565b915061199e8261195d565b602082019050919050565b600060208201905081810360008301526119c281611986565b9050919050565b7f50726f64756374206e6f7420666f756e64000000000000000000000000000000600082015250565b60006119ff60118361142d565b9150611a0a826119c9565b602082019050919050565b60006020820190508181036000830152611a2e816119f2565b9050919050565b7f4e487b7100000000000000000000000000000000000000000000000000000000600052602260045260246000fd5b60006002820490506001821680611a7c57607f821691505b602082108103611a8f57611a8e611a35565b5b50919050565b7f4c6f7420646f6573206e6f742065786973747300000000000000000000000000600082015250565b6000611acb60138361142d565b9150611ad682611a95565b602082019050919050565b60006020820190508181036000830152611afa81611abe565b9050919050565b7f50726f6475637420646f6573206e6f7420657869737473000000000000000000600082015250565b6000611b3760178361142d565b9150611b4282611b01565b602082019050919050565b60006020820190508181036000830152611b6681611b2a565b9050919050565b7f50726f6475637420616c72656164792065786973747300000000000000000000600082015250565b6000611ba360168361142d565b9150611bae82611b6d565b602082019050919050565b60006020820190508181036000830152611bd281611b96565b9050919050565b600080fd5b600080fd5b600080fd5b60008083356001602003843603038112611c0557611c04611bd9565b5b80840192508235915067ffffffffffffffff821115611c2757611c26611bde565b5b602083019250600182023603831315611c4357611c42611be3565b5b509250929050565b600082905092915050565b7f4e487b7100000000000000000000000000000000000000000000000000000000600052604160045260246000fd5b60008190508160005260206000209050919050565b60006020601f8301049050919050565b600082821b905092915050565b600060088302611ce77fffffffffffffffffffffffffffffffffffffffffffffffffffffffffffffffff82611caa565b611cf18683611caa565b95508019841693508086168417925050509392505050565b6000819050919050565b6000611d2e611d29611d2484611395565b611d09565b611395565b9050919050565b6000819050919050565b611d4883611d13565b611d5c611d5482611d35565b848454611cb7565b825550505050565b600090565b611d71611d64565b611d7c818484611d3f565b505050565b5b81811015611da057611d95600082611d69565b600181019050611d82565b5050565b601f821115611de557611db681611c85565b611dbf84611c9a565b81016020851015611dce578190505b611de2611dda85611c9a565b830182611d81565b50505b505050565b600082821c905092915050565b6000611e0860001984600802611dea565b1980831691505092915050565b6000611e218383611df7565b9150826002028217905092915050565b611e3b8383611c4b565b67ffffffffffffffff811115611e5457611e53611c56565b5b611e5e8254611a64565b611e69828285611da4565b6000601f831160018114611e985760008415611e86578287013590505b611e908582611e15565b865550611ef8565b601f198416611ea686611c85565b60005b82811015611ece57848901358255600182019150602085019450602081019050611ea9565b86831015611eeb5784890135611ee7601f891682611df7565b8355505b6001600288020188555050505b50505050505050565b611f0c838383611e31565b505050565b6000810160008301611f238185611be8565b611f2e818386611f01565b505050506001810160208301611f448185611be8565b611f4f818386611f01565b505050505050565b611f618282611f11565b5050565b600080fd5b600080fd5b600080fd5b60008083356001602003843603038112611f9157611f90611f6f565b5b83810192508235915060208301925067ffffffffffffffff821115611fb957611fb8611f65565b5b600182023603831315611fcf57611fce611f6a565b5b509250929050565b82818337600083830152505050565b6000611ff28385611513565b9350611fff838584611fd7565b61200883611468565b840190509392505050565b6000604083016120266000840184611f74565b8583036000870152612039838284611fe6565b9250505061204a6020840184611f74565b858303602087015261205d838284611fe6565b925050508091505092915050565b600060208201905081810360008301526120858184612013565b905092915050565b7f4c6f7420616c7265616479206578697374730000000000000000000000000000600082015250565b60006120c360128361142d565b91506120ce8261208d565b602082019050919050565b600060208201905081810360008301526120f2816120b6565b9050919050565b600081356121068161139f565b80915050919050565b60008160001b9050919050565b60007fffffffffffffffffffffffffffffffffffffffffffffffffffffffffffffffff6121488461210f565b9350801983169250808416831791505092915050565b61216782611d13565b61217a61217382611d35565b835461211c565b8255505050565b60008101600083016121938185611be8565b61219e818386611f01565b505050506001810160208301806121b4816120f9565b90506121c0818461215e565b5050506002810160408301806121d5816120f9565b90506121e1818461215e565b5050506003810160608301806121f6816120f9565b9050612202818461215e565b5050505050565b6122138282612181565b5050565b600061222660208401846113b6565b905092915050565b6000608083016122416000840184611f74565b8583036000870152612254838284611fe6565b925050506122656020840184612217565b612272602086018261155d565b506122806040840184612217565b61228d604086018261155d565b5061229b6060840184612217565b6122a8606086018261155d565b508091505092915050565b600060208201905081810360008301526122cd818461222e565b90509291505056fea264697066735822122016fc116075e1e69588d7417e46c1c8d6edf6856746bfb0e8a1308f8eae835df864736f6c634300081e0033",
  "linkReferences": {},
  "deployedLinkReferences": {}
}