{
  "_format": "hh-sol-artifact-1",
  "contractName": "TransactionManager",
  "sourceName": "contracts/implementation/TransactionManager.sol",
  "abi": [
    {
      "inputs": [
        {
          "internalType": "address",
          "name": "productManagerAddress",
          "type": "address"
        },
        {
          "internalType": "address",
          "name": "inventoryManagerAddress",
          "type": "address"
        },
        {
          "internalType": "address",
          "name": "cashbackTokenAddress",
          "type": "address"
        }
      ],
      "stateMutability": "nonpayable",
      "type": "constructor"
    },
    {
      "inputs": [
        {
          "internalType": "address",
          "name": "owner",
          "type": "address"
        }
      ],
      "name": "OwnableInvalidOwner",
      "type": "error"
    },
    {
      "inputs": [
        {
          "internalType": "address",
          "name": "account",
          "type": "address"
        }
      ],
      "name": "OwnableUnauthorizedAccount",
      "type": "error"
    },
    {
      "anonymous": false,
      "inputs": [
        {
          "indexed": true,
          "internalType": "address",
          "name": "from",
          "type": "address"
        },
        {
          "indexed": true,
          "internalType": "address",
          "name": "to",
          "type": "address"
        },
        {
          "indexed": true,
          "internalType": "bytes32",
          "name": "detailsHash",
          "type": "bytes32"
        },
        {
          "components": [
            {
              "internalType": "address",
              "name": "from",
              "type": "address"
            },
            {
              "internalType": "address",
              "name": "to",
              "type": "address"
            },
            {
              "internalType": "uint256[]",
              "name": "lotIds",
              "type": "uint256[]"
            },
            {
              "internalType": "uint256[]",
              "name": "quantities",
              "type": "uint256[]"
            },
            {
              "internalType": "uint256",
              "name": "timestamp",
              "type": "uint256"
            },
            {
              "internalType": "bytes32",
              "name": "detailsHash",
              "type": "bytes32"
            }
          ],
          "indexed": false,
          "internalType": "struct TransactionManager.Transaction",
          "name": "",
          "type": "tuple"
        }
      ],
      "name": "AcceptedTransaction",
      "type": "event"
    },
    {
      "anonymous": false,
      "inputs": [
        {
          "indexed": true,
          "internalType": "address",
          "name": "from",
          "type": "address"
        },
        {
          "indexed": true,
          "internalType": "address",
          "name": "to",
          "type": "address"
        },
        {
          "indexed": true,
          "internalType": "bytes32",
          "name": "detailsHash",
          "type": "bytes32"
        },
        {
          "components": [
            {
              "internalType": "address",
              "name": "from",
              "type": "address"
            },
            {
              "internalType": "address",
              "name": "to",
              "type": "address"
            },
            {
              "internalType": "uint256[]",
              "name": "lotIds",
              "type": "uint256[]"
            },
            {
              "internalType": "uint256[]",
              "name": "quantities",
              "type": "uint256[]"
            },
            {
              "internalType": "uint256",
              "name": "timestamp",
              "type": "uint256"
            },
            {
              "internalType": "bytes32",
              "name": "detailsHash",
              "type": "bytes32"
            }
          ],
          "indexed": false,
          "internalType": "struct TransactionManager.Transaction",
          "name": "",
          "type": "tuple"
        }
      ],
      "name": "AddedTransaction",
      "type": "event"
    },
    {
      "anonymous": false,
      "inputs": [
        {
          "indexed": true,
          "internalType": "address",
          "name": "previousOwner",
          "type": "address"
        },
        {
          "indexed": true,
          "internalType": "address",
          "name": "newOwner",
          "type": "address"
        }
      ],
      "name": "OwnershipTransferred",
      "type": "event"
    },
    {
      "anonymous": false,
      "inputs": [
        {
          "indexed": true,
          "internalType": "address",
          "name": "from",
          "type": "address"
        },
        {
          "indexed": true,
          "internalType": "address",
          "name": "to",
          "type": "address"
        },
        {
          "indexed": true,
          "internalType": "bytes32",
          "name": "detailsHash",
          "type": "bytes32"
        },
        {
          "components": [
            {
              "internalType": "address",
              "name": "from",
              "type": "address"
            },
            {
              "internalType": "address",
              "name": "to",
              "type": "address"
            },
            {
              "internalType": "uint256[]",
              "name": "lotIds",
              "type": "uint256[]"
            },
            {
              "internalType": "uint256[]",
              "name": "quantities",
              "type": "uint256[]"
            },
            {
              "internalType": "uint256",
              "name": "timestamp",
              "type": "uint256"
            },
            {
              "internalType": "bytes32",
              "name": "detailsHash",
              "type": "bytes32"
            }
          ],
          "indexed": false,
          "internalType": "struct TransactionManager.Transaction",
          "name": "",
          "type": "tuple"
        }
      ],
      "name": "RejectedTransaction",
      "type": "event"
    },
    {
      "anonymous": false,
      "inputs": [
        {
          "indexed": true,
          "internalType": "address",
          "name": "from",
          "type": "address"
        },
        {
          "indexed": true,
          "internalType": "address",
          "name": "to",
          "type": "address"
        },
        {
          "indexed": true,
          "internalType": "bytes32",
          "name": "detailsHash",
          "type": "bytes32"
        },
        {
          "components": [
            {
              "internalType": "address",
              "name": "from",
              "type": "address"
            },
            {
              "internalType": "address",
              "name": "to",
              "type": "address"
            },
            {
              "internalType": "uint256[]",
              "name": "lotIds",
              "type": "uint256[]"
            },
            {
              "internalType": "uint256[]",
              "name": "quantities",
              "type": "uint256[]"
            },
            {
              "internalType": "uint256",
              "name": "timestamp",
              "type": "uint256"
            },
            {
              "internalType": "bytes32",
              "name": "detailsHash",
              "type": "bytes32"
            }
          ],
          "indexed": false,
          "internalType": "struct TransactionManager.Transaction",
          "name": "",
          "type": "tuple"
        }
      ],
      "name": "RemovedTransaction",
      "type": "event"
    },
    {
      "anonymous": false,
      "inputs": [
        {
          "indexed": true,
          "internalType": "address",
          "name": "pharmacy",
          "type": "address"
        },
        {
          "indexed": false,
          "internalType": "uint256[]",
          "name": "lotIds",
          "type": "uint256[]"
        },
        {
          "indexed": false,
          "internalType": "uint256[]",
          "name": "quantities",
          "type": "uint256[]"
        },
        {
          "indexed": false,
          "internalType": "uint256",
          "name": "totalValue",
          "type": "uint256"
        }
      ],
      "name": "SaleToCustomer",
      "type": "event"
    },
    {
      "inputs": [
        {
          "internalType": "address",
          "name": "",
          "type": "address"
        }
      ],
      "name": "authorizedUsers",
      "outputs": [
        {
          "internalType": "bool",
          "name": "",
          "type": "bool"
        }
      ],
      "stateMutability": "view",
      "type": "function"
    },
    {
      "inputs": [],
      "name": "cashbackToken",
      "outputs": [
        {
          "internalType": "contract CashbackToken",
          "name": "",
          "type": "address"
        }
      ],
      "stateMutability": "view",
      "type": "function"
    },
    {
      "inputs": [],
      "name": "getIncomingTransaction",
      "outputs": [
        {
          "components": [
            {
              "internalType": "address",
              "name": "from",
              "type": "address"
            },
            {
              "internalType": "address",
              "name": "to",
              "type": "address"
            },
            {
              "internalType": "uint256[]",
              "name": "lotIds",
              "type": "uint256[]"
            },
            {
              "internalType": "uint256[]",
              "name": "quantities",
              "type": "uint256[]"
            },
            {
              "internalType": "uint256",
              "name": "timestamp",
              "type": "uint256"
            },
            {
              "internalType": "bytes32",
              "name": "detailsHash",
              "type": "bytes32"
            }
          ],
          "internalType": "struct TransactionManager.Transaction[]",
          "name": "",
          "type": "tuple[]"
        }
      ],
      "stateMutability": "view",
      "type": "function"
    },
    {
      "inputs": [
        {
          "internalType": "address",
          "name": "",
          "type": "address"
        },
        {
          "internalType": "address",
          "name": "",
          "type": "address"
        }
      ],
      "name": "hasRelation",
      "outputs": [
        {
          "internalType": "bool",
          "name": "",
          "type": "bool"
        }
      ],
      "stateMutability": "view",
      "type": "function"
    },
    {
      "inputs": [],
      "name": "inventoryManager",
      "outputs": [
        {
          "internalType": "contract InventoryManager",
          "name": "",
          "type": "address"
        }
      ],
      "stateMutability": "view",
      "type": "function"
    },
    {
      "inputs": [],
      "name": "owner",
      "outputs": [
        {
          "internalType": "address",
          "name": "",
          "type": "address"
        }
      ],
      "stateMutability": "view",
      "type": "function"
    },
    {
      "inputs": [
        {
          "internalType": "address",
          "name": "",
          "type": "address"
        },
        {
          "internalType": "address",
          "name": "",
          "type": "address"
        },
        {
          "internalType": "uint256",
          "name": "",
          "type": "uint256"
        }
      ],
      "name": "pendingTransactions",
      "outputs": [
        {
          "internalType": "address",
          "name": "from",
          "type": "address"
        },
        {
          "internalType": "address",
          "name": "to",
          "type": "address"
        },
        {
          "internalType": "uint256",
          "name": "timestamp",
          "type": "uint256"
        },
        {
          "internalType": "bytes32",
          "name": "detailsHash",
          "type": "bytes32"
        }
      ],
      "stateMutability": "view",
      "type": "function"
    },
    {
      "inputs": [],
      "name": "productManager",
      "outputs": [
        {
          "internalType": "contract ProductManager",
          "name": "",
          "type": "address"
        }
      ],
      "stateMutability": "view",
      "type": "function"
    },
    {
      "inputs": [
        {
          "internalType": "address",
          "name": "to",
          "type": "address"
        },
        {
          "internalType": "uint256[]",
          "name": "lotIds",
          "type": "uint256[]"
        },
        {
          "internalType": "uint256[]",
          "name": "quantities",
          "type": "uint256[]"
        }
      ],
      "name": "propseTransaction",
      "outputs": [],
      "stateMutability": "nonpayable",
      "type": "function"
    },
    {
      "inputs": [
        {
          "internalType": "uint256[]",
          "name": "lotIds",
          "type": "uint256[]"
        },
        {
          "internalType": "uint256[]",
          "name": "quantities",
          "type": "uint256[]"
        }
      ],
      "name": "registerSaleToCustomer",
      "outputs": [],
      "stateMutability": "nonpayable",
      "type": "function"
    },
    {
      "inputs": [
        {
          "internalType": "uint256",
          "name": "maxAge",
          "type": "uint256"
        }
      ],
      "name": "removeExpiredTransactions",
      "outputs": [],
      "stateMutability": "nonpayable",
      "type": "function"
    },
    {
      "inputs": [],
      "name": "renounceOwnership",
      "outputs": [],
      "stateMutability": "nonpayable",
      "type": "function"
    },
    {
      "inputs": [
        {
          "internalType": "address",
          "name": "from",
          "type": "address"
        },
        {
          "internalType": "bytes32",
          "name": "detailsHash",
          "type": "bytes32"
        },
        {
          "internalType": "bool",
          "name": "review",
          "type": "bool"
        }
      ],
      "name": "reviewTransaction",
      "outputs": [],
      "stateMutability": "nonpayable",
      "type": "function"
    },
    {
      "inputs": [],
      "name": "rewardMultiplier",
      "outputs": [
        {
          "internalType": "uint256",
          "name": "",
          "type": "uint256"
        }
      ],
      "stateMutability": "view",
      "type": "function"
    },
    {
      "inputs": [
        {
          "internalType": "uint256",
          "name": "",
          "type": "uint256"
        }
      ],
      "name": "senders",
      "outputs": [
        {
          "internalType": "address",
          "name": "",
          "type": "address"
        }
      ],
      "stateMutability": "view",
      "type": "function"
    },
    {
      "inputs": [
        {
          "internalType": "address",
          "name": "",
          "type": "address"
        },
        {
          "internalType": "uint256",
          "name": "",
          "type": "uint256"
        }
      ],
      "name": "sendersToReceivers",
      "outputs": [
        {
          "internalType": "address",
          "name": "",
          "type": "address"
        }
      ],
      "stateMutability": "view",
      "type": "function"
    },
    {
      "inputs": [
        {
          "internalType": "uint256",
          "name": "value",
          "type": "uint256"
        }
      ],
      "name": "setRewardMultiplier",
      "outputs": [],
      "stateMutability": "nonpayable",
      "type": "function"
    },
    {
      "inputs": [
        {
          "internalType": "address",
          "name": "wallet",
          "type": "address"
        },
        {
          "internalType": "bool",
          "name": "authorized",
          "type": "bool"
        }
      ],
      "name": "setUserAuth",
      "outputs": [],
      "stateMutability": "nonpayable",
      "type": "function"
    },
    {
      "inputs": [
        {
          "internalType": "address",
          "name": "newOwner",
          "type": "address"
        }
      ],
      "name": "transferOwnership",
      "outputs": [],
      "stateMutability": "nonpayable",
      "type": "function"
    }
  ],
  "bytecode": "0x6080604052606460055534801561001557600080fd5b506040516145be3803806145be833981810160405281019061003791906102ac565b33600073ffffffffffffffffffffffffffffffffffffffff168173ffffffffffffffffffffffffffffffffffffffff16036100aa5760006040517f1e4fbdf70000000000000000000000000000000000000000000000000000000081526004016100a1919061030e565b60405180910390fd5b6100b98161018560201b60201c565b5082600160006101000a81548173ffffffffffffffffffffffffffffffffffffffff021916908373ffffffffffffffffffffffffffffffffffffffff16021790555081600260006101000a81548173ffffffffffffffffffffffffffffffffffffffff021916908373ffffffffffffffffffffffffffffffffffffffff16021790555080600360006101000a81548173ffffffffffffffffffffffffffffffffffffffff021916908373ffffffffffffffffffffffffffffffffffffffff160217905550505050610329565b60008060009054906101000a900473ffffffffffffffffffffffffffffffffffffffff169050816000806101000a81548173ffffffffffffffffffffffffffffffffffffffff021916908373ffffffffffffffffffffffffffffffffffffffff1602179055508173ffffffffffffffffffffffffffffffffffffffff168173ffffffffffffffffffffffffffffffffffffffff167f8be0079c531659141344cd1fd0a4f28419497f9722a3daafe3b4186f6b6457e060405160405180910390a35050565b600080fd5b600073ffffffffffffffffffffffffffffffffffffffff82169050919050565b60006102798261024e565b9050919050565b6102898161026e565b811461029457600080fd5b50565b6000815190506102a681610280565b92915050565b6000806000606084860312156102c5576102c4610249565b5b60006102d386828701610297565b93505060206102e486828701610297565b92505060406102f586828701610297565b9150509250925092565b6103088161026e565b82525050565b600060208201905061032360008301846102ff565b92915050565b614286806103386000396000f3fe608060405234801561001057600080fd5b50600436106101215760003560e01c806375b882fb116100ad5780639f9b269f116100715780639f9b269f1461030d578063acaead2514610329578063d82c6eb614610345578063f2fde38b14610361578063f426306f1461037d57610121565b806375b882fb1461025557806377ed4d5014610271578063893611c0146102a15780638da5cb5b146102bf5780639977c78a146102dd57610121565b80635392a22b116100f45780635392a22b146101c357806354b1325b146101e157806367fa5650146102115780636f2c590a1461022d578063715018a61461024b57610121565b80630bd075a114610126578063144a1663146101425780631828983a146101755780631aadb370146101a5575b600080fd5b610140600480360381019061013b9190612fc0565b61039b565b005b61015c6004803603810190610157919061304b565b610476565b60405161016c94939291906130d5565b60405180910390f35b61018f600480360381019061018a919061311a565b610510565b60405161019c9190613162565b60405180910390f35b6101ad610530565b6040516101ba91906131dc565b60405180910390f35b6101cb610556565b6040516101d89190613218565b60405180910390f35b6101fb60048036038101906101f69190613233565b61057c565b6040516102089190613273565b60405180910390f35b61022b60048036038101906102269190612fc0565b6105ca565b005b610235610b7b565b604051610242919061328e565b60405180910390f35b610253610b81565b005b61026f600480360381019061026a9190613301565b610b95565b005b61028b60048036038101906102869190613354565b611ad1565b6040516102989190613162565b60405180910390f35b6102a9611b00565b6040516102b691906135c2565b60405180910390f35b6102c7611fb4565b6040516102d49190613273565b60405180910390f35b6102f760048036038101906102f29190612fc0565b611fdd565b6040516103049190613273565b60405180910390f35b61032760048036038101906103229190613649565b61201c565b005b610343600480360381019061033e91906136ca565b6123f7565b005b61035f600480360381019061035a919061375f565b612a4d565b005b61037b6004803603810190610376919061311a565b612ab0565b005b610385612b36565b60405161039291906137c0565b60405180910390f35b600460003373ffffffffffffffffffffffffffffffffffffffff1673ffffffffffffffffffffffffffffffffffffffff16815260200190815260200160002060009054906101000a900460ff16610427576040517f08c379a000000000000000000000000000000000000000000000000000000000815260040161041e9061385e565b60405180910390fd5b61271081111561046c576040517f08c379a0000000000000000000000000000000000000000000000000000000008152600401610463906138f0565b60405180910390fd5b8060058190555050565b6006602052826000526040600020602052816000526040600020818154811061049e57600080fd5b906000526020600020906006020160009250925050508060000160009054906101000a900473ffffffffffffffffffffffffffffffffffffffff16908060010160009054906101000a900473ffffffffffffffffffffffffffffffffffffffff16908060040154908060050154905084565b60046020528060005260406000206000915054906101000a900460ff1681565b600360009054906101000a900473ffffffffffffffffffffffffffffffffffffffff1681565b600260009054906101000a900473ffffffffffffffffffffffffffffffffffffffff1681565b6008602052816000526040600020818154811061059857600080fd5b906000526020600020016000915091509054906101000a900473ffffffffffffffffffffffffffffffffffffffff1681565b6105d2612b5c565b600042905060005b600780549050811015610b76576000600782815481106105fd576105fc613910565b5b9060005260206000200160009054906101000a900473ffffffffffffffffffffffffffffffffffffffff1690506000600860008373ffffffffffffffffffffffffffffffffffffffff1673ffffffffffffffffffffffffffffffffffffffff168152602001908152602001600020905060005b8180549050811015610b6657600082828154811061069157610690613910565b5b9060005260206000200160009054906101000a900473ffffffffffffffffffffffffffffffffffffffff1690506000600660008673ffffffffffffffffffffffffffffffffffffffff1673ffffffffffffffffffffffffffffffffffffffff16815260200190815260200160002060008373ffffffffffffffffffffffffffffffffffffffff1673ffffffffffffffffffffffffffffffffffffffff168152602001908152602001600020905060005b8180549050811015610a54578882828154811061076157610760613910565b5b9060005260206000209060060201600401548961077e919061396e565b1115610a40578160018380549050610796919061396e565b815481106107a7576107a6613910565b5b90600052602060002090600602018282815481106107c8576107c7613910565b5b90600052602060002090600602016000820160009054906101000a900473ffffffffffffffffffffffffffffffffffffffff168160000160006101000a81548173ffffffffffffffffffffffffffffffffffffffff021916908373ffffffffffffffffffffffffffffffffffffffff1602179055506001820160009054906101000a900473ffffffffffffffffffffffffffffffffffffffff168160010160006101000a81548173ffffffffffffffffffffffffffffffffffffffff021916908373ffffffffffffffffffffffffffffffffffffffff16021790555060028201816002019080546108ba929190612e34565b5060038201816003019080546108d1929190612e34565b506004820154816004015560058201548160050155905050818054806108fa576108f96139a2565b5b6001900381819060005260206000209060060201600080820160006101000a81549073ffffffffffffffffffffffffffffffffffffffff02191690556001820160006101000a81549073ffffffffffffffffffffffffffffffffffffffff021916905560028201600061096d9190612e86565b60038201600061097d9190612e86565b60048201600090556005820160009055505090558181815481106109a4576109a3613910565b5b9060005260206000209060060201600501548373ffffffffffffffffffffffffffffffffffffffff168773ffffffffffffffffffffffffffffffffffffffff167f89357aa402631f91dde54aa3352d214c1fbb7d5d4fb9ffc8477c7f4775165380858581548110610a1857610a17613910565b5b9060005260206000209060060201604051610a339190613bc1565b60405180910390a4610a4f565b8080610a4b90613be3565b9150505b610741565b6000828054905003610b56576000600960008873ffffffffffffffffffffffffffffffffffffffff1673ffffffffffffffffffffffffffffffffffffffff16815260200190815260200160002060008573ffffffffffffffffffffffffffffffffffffffff1673ffffffffffffffffffffffffffffffffffffffff16815260200190815260200160002060006101000a81548160ff021916908315150217905550610aff8584612be3565b6000600860008873ffffffffffffffffffffffffffffffffffffffff1673ffffffffffffffffffffffffffffffffffffffff1681526020019081526020016000208054905003610b5557610b54600787612be3565b5b5b5050508080600101915050610670565b50505080806001019150506105da565b505050565b60055481565b610b89612b5c565b610b936000612d68565b565b610b9d612ea7565b6000339050600960008673ffffffffffffffffffffffffffffffffffffffff1673ffffffffffffffffffffffffffffffffffffffff16815260200190815260200160002060008273ffffffffffffffffffffffffffffffffffffffff1673ffffffffffffffffffffffffffffffffffffffff16815260200190815260200160002060009054906101000a900460ff16610c6b576040517f08c379a0000000000000000000000000000000000000000000000000000000008152600401610c6290613c77565b60405180910390fd5b600080600090505b600660008873ffffffffffffffffffffffffffffffffffffffff1673ffffffffffffffffffffffffffffffffffffffff16815260200190815260200160002060008473ffffffffffffffffffffffffffffffffffffffff1673ffffffffffffffffffffffffffffffffffffffff16815260200190815260200160002080549050811015610fce57600660008873ffffffffffffffffffffffffffffffffffffffff1673ffffffffffffffffffffffffffffffffffffffff16815260200190815260200160002060008473ffffffffffffffffffffffffffffffffffffffff1673ffffffffffffffffffffffffffffffffffffffff1681526020019081526020016000208181548110610d8857610d87613910565b5b9060005260206000209060060201600501548603610fc157600660008873ffffffffffffffffffffffffffffffffffffffff1673ffffffffffffffffffffffffffffffffffffffff16815260200190815260200160002060008473ffffffffffffffffffffffffffffffffffffffff1673ffffffffffffffffffffffffffffffffffffffff1681526020019081526020016000208181548110610e2e57610e2d613910565b5b90600052602060002090600602016040518060c00160405290816000820160009054906101000a900473ffffffffffffffffffffffffffffffffffffffff1673ffffffffffffffffffffffffffffffffffffffff1673ffffffffffffffffffffffffffffffffffffffff1681526020016001820160009054906101000a900473ffffffffffffffffffffffffffffffffffffffff1673ffffffffffffffffffffffffffffffffffffffff1673ffffffffffffffffffffffffffffffffffffffff16815260200160028201805480602002602001604051908101604052809291908181526020018280548015610f4257602002820191906000526020600020905b815481526020019060010190808311610f2e575b5050505050815260200160038201805480602002602001604051908101604052809291908181526020018280548015610f9a57602002820191906000526020600020905b815481526020019060010190808311610f86575b50505050508152602001600482015481526020016005820154815250509350809150610fce565b8080600101915050610c73565b506000801b8360a0015103611018576040517f08c379a000000000000000000000000000000000000000000000000000000000815260040161100f90613c77565b60405180910390fd5b600660008773ffffffffffffffffffffffffffffffffffffffff1673ffffffffffffffffffffffffffffffffffffffff16815260200190815260200160002060008373ffffffffffffffffffffffffffffffffffffffff1673ffffffffffffffffffffffffffffffffffffffff1681526020019081526020016000206001600660008973ffffffffffffffffffffffffffffffffffffffff1673ffffffffffffffffffffffffffffffffffffffff16815260200190815260200160002060008573ffffffffffffffffffffffffffffffffffffffff1673ffffffffffffffffffffffffffffffffffffffff16815260200190815260200160002080549050611120919061396e565b8154811061113157611130613910565b5b9060005260206000209060060201600660008873ffffffffffffffffffffffffffffffffffffffff1673ffffffffffffffffffffffffffffffffffffffff16815260200190815260200160002060008473ffffffffffffffffffffffffffffffffffffffff1673ffffffffffffffffffffffffffffffffffffffff16815260200190815260200160002082815481106111cd576111cc613910565b5b90600052602060002090600602016000820160009054906101000a900473ffffffffffffffffffffffffffffffffffffffff168160000160006101000a81548173ffffffffffffffffffffffffffffffffffffffff021916908373ffffffffffffffffffffffffffffffffffffffff1602179055506001820160009054906101000a900473ffffffffffffffffffffffffffffffffffffffff168160010160006101000a81548173ffffffffffffffffffffffffffffffffffffffff021916908373ffffffffffffffffffffffffffffffffffffffff16021790555060028201816002019080546112bf929190612e34565b5060038201816003019080546112d6929190612e34565b506004820154816004015560058201548160050155905050600660008773ffffffffffffffffffffffffffffffffffffffff1673ffffffffffffffffffffffffffffffffffffffff16815260200190815260200160002060008373ffffffffffffffffffffffffffffffffffffffff1673ffffffffffffffffffffffffffffffffffffffff16815260200190815260200160002080548061137a576113796139a2565b5b6001900381819060005260206000209060060201600080820160006101000a81549073ffffffffffffffffffffffffffffffffffffffff02191690556001820160006101000a81549073ffffffffffffffffffffffffffffffffffffffff02191690556002820160006113ed9190612e86565b6003820160006113fd9190612e86565b60048201600090556005820160009055505090556000600660008873ffffffffffffffffffffffffffffffffffffffff1673ffffffffffffffffffffffffffffffffffffffff16815260200190815260200160002060008473ffffffffffffffffffffffffffffffffffffffff1673ffffffffffffffffffffffffffffffffffffffff16815260200190815260200160002080549050036115cc576000600960008873ffffffffffffffffffffffffffffffffffffffff1673ffffffffffffffffffffffffffffffffffffffff16815260200190815260200160002060008473ffffffffffffffffffffffffffffffffffffffff1673ffffffffffffffffffffffffffffffffffffffff16815260200190815260200160002060006101000a81548160ff021916908315150217905550611575600860008873ffffffffffffffffffffffffffffffffffffffff1673ffffffffffffffffffffffffffffffffffffffff16815260200190815260200160002083612be3565b6000600860008873ffffffffffffffffffffffffffffffffffffffff1673ffffffffffffffffffffffffffffffffffffffff16815260200190815260200160002080549050036115cb576115ca600787612be3565b5b5b8315611a5e576000805b84604001515181101561188b57600260009054906101000a900473ffffffffffffffffffffffffffffffffffffffff1673ffffffffffffffffffffffffffffffffffffffff166360c068b086600001518760400151848151811061163d5761163c613910565b5b60200260200101518860600151858151811061165c5761165b613910565b5b60200260200101516040518463ffffffff1660e01b815260040161168293929190613c97565b600060405180830381600087803b15801561169c57600080fd5b505af11580156116b0573d6000803e3d6000fd5b50505050600260009054906101000a900473ffffffffffffffffffffffffffffffffffffffff1673ffffffffffffffffffffffffffffffffffffffff166357f2b3fe86602001518760400151848151811061170e5761170d613910565b5b60200260200101518860600151858151811061172d5761172c613910565b5b60200260200101516040518463ffffffff1660e01b815260040161175393929190613c97565b600060405180830381600087803b15801561176d57600080fd5b505af1158015611781573d6000803e3d6000fd5b50505050600160009054906101000a900473ffffffffffffffffffffffffffffffffffffffff1673ffffffffffffffffffffffffffffffffffffffff1663ab995d12866040015183815181106117da576117d9613910565b5b60200260200101516040518263ffffffff1660e01b81526004016117fe919061328e565b600060405180830381865afa15801561181b573d6000803e3d6000fd5b505050506040513d6000823e3d601f19601f820116820180604052508101906118449190613edd565b604001518560600151828151811061185f5761185e613910565b5b60200260200101516118719190613f26565b8261187c9190613f68565b915080806001019150506115d6565b50612710606460055483670de0b6b3a76400006118a89190613f26565b6118b29190613f26565b6118bc9190613fcb565b6118c69190613fcb565b9050600360009054906101000a900473ffffffffffffffffffffffffffffffffffffffff1673ffffffffffffffffffffffffffffffffffffffff166340c10f198560000151836040518363ffffffff1660e01b8152600401611929929190613ffc565b600060405180830381600087803b15801561194357600080fd5b505af1158015611957573d6000803e3d6000fd5b50505050600360009054906101000a900473ffffffffffffffffffffffffffffffffffffffff1673ffffffffffffffffffffffffffffffffffffffff166340c10f198560200151836040518363ffffffff1660e01b81526004016119bc929190613ffc565b600060405180830381600087803b1580156119d657600080fd5b505af11580156119ea573d6000803e3d6000fd5b505050508360a001518373ffffffffffffffffffffffffffffffffffffffff168873ffffffffffffffffffffffffffffffffffffffff167f5d1b03ef161c76c83d88bddf4257573b9c9ad7acc433afeb69fb0a95a2078c5887604051611a5091906140b5565b60405180910390a450611ac9565b8260a001518273ffffffffffffffffffffffffffffffffffffffff168773ffffffffffffffffffffffffffffffffffffffff167ffde131ae2c8d32bd787571fef890c3e5a520475eae06dce50a316b39717f0d1c86604051611ac091906140b5565b60405180910390a45b505050505050565b60096020528160005260406000206020528060005260406000206000915091509054906101000a900460ff1681565b606060003390506000805b600780549050811015611c8657600060078281548110611b2e57611b2d613910565b5b9060005260206000200160009054906101000a900473ffffffffffffffffffffffffffffffffffffffff169050600960008273ffffffffffffffffffffffffffffffffffffffff1673ffffffffffffffffffffffffffffffffffffffff16815260200190815260200160002060008573ffffffffffffffffffffffffffffffffffffffff1673ffffffffffffffffffffffffffffffffffffffff16815260200190815260200160002060009054906101000a900460ff1615611c7857600660008273ffffffffffffffffffffffffffffffffffffffff1673ffffffffffffffffffffffffffffffffffffffff16815260200190815260200160002060008573ffffffffffffffffffffffffffffffffffffffff1673ffffffffffffffffffffffffffffffffffffffff1681526020019081526020016000208054905083611c759190613f68565b92505b508080600101915050611b0b565b5060008167ffffffffffffffff811115611ca357611ca2613ce4565b5b604051908082528060200260200182016040528015611cdc57816020015b611cc9612ea7565b815260200190600190039081611cc15790505b509050600080600090505b600780549050811015611fa957600060078281548110611d0a57611d09613910565b5b9060005260206000200160009054906101000a900473ffffffffffffffffffffffffffffffffffffffff1690506000600660008373ffffffffffffffffffffffffffffffffffffffff1673ffffffffffffffffffffffffffffffffffffffff16815260200190815260200160002060008873ffffffffffffffffffffffffffffffffffffffff1673ffffffffffffffffffffffffffffffffffffffff168152602001908152602001600020905060005b8180549050811015611f9957818181548110611dd957611dd8613910565b5b90600052602060002090600602016040518060c00160405290816000820160009054906101000a900473ffffffffffffffffffffffffffffffffffffffff1673ffffffffffffffffffffffffffffffffffffffff1673ffffffffffffffffffffffffffffffffffffffff1681526020016001820160009054906101000a900473ffffffffffffffffffffffffffffffffffffffff1673ffffffffffffffffffffffffffffffffffffffff1673ffffffffffffffffffffffffffffffffffffffff16815260200160028201805480602002602001604051908101604052809291908181526020018280548015611eed57602002820191906000526020600020905b815481526020019060010190808311611ed9575b5050505050815260200160038201805480602002602001604051908101604052809291908181526020018280548015611f4557602002820191906000526020600020905b815481526020019060010190808311611f31575b5050505050815260200160048201548152602001600582015481525050868680611f6e90613be3565b975081518110611f8157611f80613910565b5b60200260200101819052508080600101915050611dba565b5050508080600101915050611ce7565b508194505050505090565b60008060009054906101000a900473ffffffffffffffffffffffffffffffffffffffff16905090565b60078181548110611fed57600080fd5b906000526020600020016000915054906101000a900473ffffffffffffffffffffffffffffffffffffffff1681565b818190508484905014612064576040517f08c379a000000000000000000000000000000000000000000000000000000000815260040161205b90614123565b60405180910390fd5b6000339050600260009054906101000a900473ffffffffffffffffffffffffffffffffffffffff1673ffffffffffffffffffffffffffffffffffffffff16639908124782878787876040518663ffffffff1660e01b81526004016120cc9594939291906141be565b60006040518083038186803b1580156120e457600080fd5b505afa1580156120f8573d6000803e3d6000fd5b5050505060008060005b878790508110156122cc57600260009054906101000a900473ffffffffffffffffffffffffffffffffffffffff1673ffffffffffffffffffffffffffffffffffffffff166360c068b0858a8a8581811061215f5761215e613910565b5b9050602002013589898681811061217957612178613910565b5b905060200201356040518463ffffffff1660e01b815260040161219e93929190613c97565b600060405180830381600087803b1580156121b857600080fd5b505af11580156121cc573d6000803e3d6000fd5b50505050600160009054906101000a900473ffffffffffffffffffffffffffffffffffffffff1673ffffffffffffffffffffffffffffffffffffffff1663ab995d1289898481811061222157612220613910565b5b905060200201356040518263ffffffff1660e01b8152600401612244919061328e565b600060405180830381865afa158015612261573d6000803e3d6000fd5b505050506040513d6000823e3d601f19601f8201168201806040525081019061228a9190613edd565b604001518686838181106122a1576122a0613910565b5b905060200201356122b29190613f26565b826122bd9190613f68565b91508080600101915050612102565b50612710606460055484670de0b6b3a76400006122e99190613f26565b6122f39190613f26565b6122fd9190613fcb565b6123079190613fcb565b9050600360009054906101000a900473ffffffffffffffffffffffffffffffffffffffff1673ffffffffffffffffffffffffffffffffffffffff166340c10f1984836040518363ffffffff1660e01b8152600401612366929190613ffc565b600060405180830381600087803b15801561238057600080fd5b505af1158015612394573d6000803e3d6000fd5b505050508273ffffffffffffffffffffffffffffffffffffffff167f47ee6b974f84d938f99898cab2333313c6713e6ed48bbf5b0af4e23565379dd188888888876040516123e6959493929190614207565b60405180910390a250505050505050565b81819050848490501461243f576040517f08c379a000000000000000000000000000000000000000000000000000000000815260040161243690614123565b60405180910390fd5b6000339050600260009054906101000a900473ffffffffffffffffffffffffffffffffffffffff1673ffffffffffffffffffffffffffffffffffffffff16639908124782878787876040518663ffffffff1660e01b81526004016124a79594939291906141be565b60006040518083038186803b1580156124bf57600080fd5b505afa1580156124d3573d6000803e3d6000fd5b5050505060006040518060c001604052808373ffffffffffffffffffffffffffffffffffffffff1681526020018873ffffffffffffffffffffffffffffffffffffffff168152602001878780806020026020016040519081016040528093929190818152602001838360200280828437600081840152601f19601f820116905080830192505050505050508152602001858580806020026020016040519081016040528093929190818152602001838360200280828437600081840152601f19601f82011690508083019250505050505050815260200142815260200187878787426040516020016125c9959493929190614207565b604051602081830303815290604052805190602001208152509050600660008373ffffffffffffffffffffffffffffffffffffffff1673ffffffffffffffffffffffffffffffffffffffff16815260200190815260200160002060008873ffffffffffffffffffffffffffffffffffffffff1673ffffffffffffffffffffffffffffffffffffffff16815260200190815260200160002081908060018154018082558091505060019003906000526020600020906006020160009091909190915060008201518160000160006101000a81548173ffffffffffffffffffffffffffffffffffffffff021916908373ffffffffffffffffffffffffffffffffffffffff16021790555060208201518160010160006101000a81548173ffffffffffffffffffffffffffffffffffffffff021916908373ffffffffffffffffffffffffffffffffffffffff1602179055506040820151816002019080519060200190612734929190612f0c565b506060820151816003019080519060200190612751929190612f0c565b506080820151816004015560a082015181600501555050600960008373ffffffffffffffffffffffffffffffffffffffff1673ffffffffffffffffffffffffffffffffffffffff16815260200190815260200160002060008873ffffffffffffffffffffffffffffffffffffffff1673ffffffffffffffffffffffffffffffffffffffff16815260200190815260200160002060009054906101000a900460ff166129da57600860008373ffffffffffffffffffffffffffffffffffffffff1673ffffffffffffffffffffffffffffffffffffffff168152602001908152602001600020879080600181540180825580915050600190039060005260206000200160009091909190916101000a81548173ffffffffffffffffffffffffffffffffffffffff021916908373ffffffffffffffffffffffffffffffffffffffff1602179055506001600860008473ffffffffffffffffffffffffffffffffffffffff1673ffffffffffffffffffffffffffffffffffffffff1681526020019081526020016000208054905003612944576007829080600181540180825580915050600190039060005260206000200160009091909190916101000a81548173ffffffffffffffffffffffffffffffffffffffff021916908373ffffffffffffffffffffffffffffffffffffffff1602179055505b6001600960008473ffffffffffffffffffffffffffffffffffffffff1673ffffffffffffffffffffffffffffffffffffffff16815260200190815260200160002060008973ffffffffffffffffffffffffffffffffffffffff1673ffffffffffffffffffffffffffffffffffffffff16815260200190815260200160002060006101000a81548160ff0219169083151502179055505b8060a001518773ffffffffffffffffffffffffffffffffffffffff168373ffffffffffffffffffffffffffffffffffffffff167f58d353c824fe85a3b61371c984411981be1f874ea91fd45835b285bd6bf9107084604051612a3c91906140b5565b60405180910390a450505050505050565b612a55612b5c565b80600460008473ffffffffffffffffffffffffffffffffffffffff1673ffffffffffffffffffffffffffffffffffffffff16815260200190815260200160002060006101000a81548160ff0219169083151502179055505050565b612ab8612b5c565b600073ffffffffffffffffffffffffffffffffffffffff168173ffffffffffffffffffffffffffffffffffffffff1603612b2a5760006040517f1e4fbdf7000000000000000000000000000000000000000000000000000000008152600401612b219190613273565b60405180910390fd5b612b3381612d68565b50565b600160009054906101000a900473ffffffffffffffffffffffffffffffffffffffff1681565b612b64612e2c565b73ffffffffffffffffffffffffffffffffffffffff16612b82611fb4565b73ffffffffffffffffffffffffffffffffffffffff1614612be157612ba5612e2c565b6040517f118cdaa7000000000000000000000000000000000000000000000000000000008152600401612bd89190613273565b60405180910390fd5b565b60005b8280549050811015612d63578173ffffffffffffffffffffffffffffffffffffffff16838281548110612c1c57612c1b613910565b5b9060005260206000200160009054906101000a900473ffffffffffffffffffffffffffffffffffffffff1673ffffffffffffffffffffffffffffffffffffffff1603612d56578260018480549050612c74919061396e565b81548110612c8557612c84613910565b5b9060005260206000200160009054906101000a900473ffffffffffffffffffffffffffffffffffffffff16838281548110612cc357612cc2613910565b5b9060005260206000200160006101000a81548173ffffffffffffffffffffffffffffffffffffffff021916908373ffffffffffffffffffffffffffffffffffffffff16021790555082805480612d1c57612d1b6139a2565b5b6001900381819060005260206000200160006101000a81549073ffffffffffffffffffffffffffffffffffffffff02191690559055612d63565b8080600101915050612be6565b505050565b60008060009054906101000a900473ffffffffffffffffffffffffffffffffffffffff169050816000806101000a81548173ffffffffffffffffffffffffffffffffffffffff021916908373ffffffffffffffffffffffffffffffffffffffff1602179055508173ffffffffffffffffffffffffffffffffffffffff168173ffffffffffffffffffffffffffffffffffffffff167f8be0079c531659141344cd1fd0a4f28419497f9722a3daafe3b4186f6b6457e060405160405180910390a35050565b600033905090565b828054828255906000526020600020908101928215612e755760005260206000209182015b82811115612e74578254825591600101919060010190612e59565b5b509050612e829190612f59565b5090565b5080546000825590600052602060002090810190612ea49190612f59565b50565b6040518060c00160405280600073ffffffffffffffffffffffffffffffffffffffff168152602001600073ffffffffffffffffffffffffffffffffffffffff168152602001606081526020016060815260200160008152602001600080191681525090565b828054828255906000526020600020908101928215612f48579160200282015b82811115612f47578251825591602001919060010190612f2c565b5b509050612f559190612f59565b5090565b5b80821115612f72576000816000905550600101612f5a565b5090565b6000604051905090565b600080fd5b600080fd5b6000819050919050565b612f9d81612f8a565b8114612fa857600080fd5b50565b600081359050612fba81612f94565b92915050565b600060208284031215612fd657612fd5612f80565b5b6000612fe484828501612fab565b91505092915050565b600073ffffffffffffffffffffffffffffffffffffffff82169050919050565b600061301882612fed565b9050919050565b6130288161300d565b811461303357600080fd5b50565b6000813590506130458161301f565b92915050565b60008060006060848603121561306457613063612f80565b5b600061307286828701613036565b935050602061308386828701613036565b925050604061309486828701612fab565b9150509250925092565b6130a78161300d565b82525050565b6130b681612f8a565b82525050565b6000819050919050565b6130cf816130bc565b82525050565b60006080820190506130ea600083018761309e565b6130f7602083018661309e565b61310460408301856130ad565b61311160608301846130c6565b95945050505050565b6000602082840312156131305761312f612f80565b5b600061313e84828501613036565b91505092915050565b60008115159050919050565b61315c81613147565b82525050565b60006020820190506131776000830184613153565b92915050565b6000819050919050565b60006131a261319d61319884612fed565b61317d565b612fed565b9050919050565b60006131b482613187565b9050919050565b60006131c6826131a9565b9050919050565b6131d6816131bb565b82525050565b60006020820190506131f160008301846131cd565b92915050565b6000613202826131a9565b9050919050565b613212816131f7565b82525050565b600060208201905061322d6000830184613209565b92915050565b6000806040838503121561324a57613249612f80565b5b600061325885828601613036565b925050602061326985828601612fab565b9150509250929050565b6000602082019050613288600083018461309e565b92915050565b60006020820190506132a360008301846130ad565b92915050565b6132b2816130bc565b81146132bd57600080fd5b50565b6000813590506132cf816132a9565b92915050565b6132de81613147565b81146132e957600080fd5b50565b6000813590506132fb816132d5565b92915050565b60008060006060848603121561331a57613319612f80565b5b600061332886828701613036565b9350506020613339868287016132c0565b925050604061334a868287016132ec565b9150509250925092565b6000806040838503121561336b5761336a612f80565b5b600061337985828601613036565b925050602061338a85828601613036565b9150509250929050565b600081519050919050565b600082825260208201905092915050565b6000819050602082019050919050565b6133c98161300d565b82525050565b600081519050919050565b600082825260208201905092915050565b6000819050602082019050919050565b61340481612f8a565b82525050565b600061341683836133fb565b60208301905092915050565b6000602082019050919050565b600061343a826133cf565b61344481856133da565b935061344f836133eb565b8060005b83811015613480578151613467888261340a565b975061347283613422565b925050600181019050613453565b5085935050505092915050565b613496816130bc565b82525050565b600060c0830160008301516134b460008601826133c0565b5060208301516134c760208601826133c0565b50604083015184820360408601526134df828261342f565b915050606083015184820360608601526134f9828261342f565b915050608083015161350e60808601826133fb565b5060a083015161352160a086018261348d565b508091505092915050565b6000613538838361349c565b905092915050565b6000602082019050919050565b600061355882613394565b613562818561339f565b935083602082028501613574856133b0565b8060005b858110156135b05784840389528151613591858261352c565b945061359c83613540565b925060208a01995050600181019050613578565b50829750879550505050505092915050565b600060208201905081810360008301526135dc818461354d565b905092915050565b600080fd5b600080fd5b600080fd5b60008083601f840112613609576136086135e4565b5b8235905067ffffffffffffffff811115613626576136256135e9565b5b602083019150836020820283011115613642576136416135ee565b5b9250929050565b6000806000806040858703121561366357613662612f80565b5b600085013567ffffffffffffffff81111561368157613680612f85565b5b61368d878288016135f3565b9450945050602085013567ffffffffffffffff8111156136b0576136af612f85565b5b6136bc878288016135f3565b925092505092959194509250565b6000806000806000606086880312156136e6576136e5612f80565b5b60006136f488828901613036565b955050602086013567ffffffffffffffff81111561371557613714612f85565b5b613721888289016135f3565b9450945050604086013567ffffffffffffffff81111561374457613743612f85565b5b613750888289016135f3565b92509250509295509295909350565b6000806040838503121561377657613775612f80565b5b600061378485828601613036565b9250506020613795858286016132ec565b9150509250929050565b60006137aa826131a9565b9050919050565b6137ba8161379f565b82525050565b60006020820190506137d560008301846137b1565b92915050565b600082825260208201905092915050565b7f4e6f7420617574686f72697a656420746f2075736520746869732066756e637460008201527f696f6e0000000000000000000000000000000000000000000000000000000000602082015250565b60006138486023836137db565b9150613853826137ec565b604082019050919050565b600060208201905081810360008301526138778161383b565b9050919050565b7f4d756c7469706c696572206d757374206265206c6f776572207468616e20313060008201527f30252028692e652e2076616c7565206c6f776572207468616e20313030303029602082015250565b60006138da6040836137db565b91506138e58261387e565b604082019050919050565b60006020820190508181036000830152613909816138cd565b9050919050565b7f4e487b7100000000000000000000000000000000000000000000000000000000600052603260045260246000fd5b7f4e487b7100000000000000000000000000000000000000000000000000000000600052601160045260246000fd5b600061397982612f8a565b915061398483612f8a565b925082820390508181111561399c5761399b61393f565b5b92915050565b7f4e487b7100000000000000000000000000000000000000000000000000000000600052603160045260246000fd5b60008160001c9050919050565b600073ffffffffffffffffffffffffffffffffffffffff82169050919050565b6000613a11613a0c836139d1565b6139de565b9050919050565b600081549050919050565b60008190508160005260206000209050919050565b6000819050919050565b6000613a55613a50836139d1565b613a38565b9050919050565b6000613a688254613a42565b9050919050565b6000600182019050919050565b6000613a8782613a18565b613a9181856133da565b9350613a9c83613a23565b8060005b83811015613ad457613ab182613a5c565b613abb888261340a565b9750613ac683613a6f565b925050600181019050613aa0565b5085935050505092915050565b6000819050919050565b6000613afe613af9836139d1565b613ae1565b9050919050565b600060c083016000808401549050613b1c816139fe565b613b2960008701826133c0565b5060018401549050613b3a816139fe565b613b4760208701826133c0565b50600284018583036040870152613b5e8382613a7c565b925050600384018583036060870152613b778382613a7c565b92505060048401549050613b8a81613a42565b613b9760808701826133fb565b5060058401549050613ba881613aeb565b613bb560a087018261348d565b50819250505092915050565b60006020820190508181036000830152613bdb8184613b05565b905092915050565b6000613bee82612f8a565b91507fffffffffffffffffffffffffffffffffffffffffffffffffffffffffffffffff8203613c2057613c1f61393f565b5b600182019050919050565b7f5472616e73616374696f6e206e6f7420666f756e642100000000000000000000600082015250565b6000613c616016836137db565b9150613c6c82613c2b565b602082019050919050565b60006020820190508181036000830152613c9081613c54565b9050919050565b6000606082019050613cac600083018661309e565b613cb960208301856130ad565b613cc660408301846130ad565b949350505050565b600080fd5b6000601f19601f8301169050919050565b7f4e487b7100000000000000000000000000000000000000000000000000000000600052604160045260246000fd5b613d1c82613cd3565b810181811067ffffffffffffffff82111715613d3b57613d3a613ce4565b5b80604052505050565b6000613d4e612f76565b9050613d5a8282613d13565b919050565b600080fd5b600080fd5b600067ffffffffffffffff821115613d8457613d83613ce4565b5b613d8d82613cd3565b9050602081019050919050565b60005b83811015613db8578082015181840152602081019050613d9d565b60008484015250505050565b6000613dd7613dd284613d69565b613d44565b905082815260208101848484011115613df357613df2613d64565b5b613dfe848285613d9a565b509392505050565b600082601f830112613e1b57613e1a6135e4565b5b8151613e2b848260208601613dc4565b91505092915050565b600081519050613e4381612f94565b92915050565b600060808284031215613e5f57613e5e613cce565b5b613e696080613d44565b9050600082015167ffffffffffffffff811115613e8957613e88613d5f565b5b613e9584828501613e06565b6000830152506020613ea984828501613e34565b6020830152506040613ebd84828501613e34565b6040830152506060613ed184828501613e34565b60608301525092915050565b600060208284031215613ef357613ef2612f80565b5b600082015167ffffffffffffffff811115613f1157613f10612f85565b5b613f1d84828501613e49565b91505092915050565b6000613f3182612f8a565b9150613f3c83612f8a565b9250828202613f4a81612f8a565b91508282048414831517613f6157613f6061393f565b5b5092915050565b6000613f7382612f8a565b9150613f7e83612f8a565b9250828201905080821115613f9657613f9561393f565b5b92915050565b7f4e487b7100000000000000000000000000000000000000000000000000000000600052601260045260246000fd5b6000613fd682612f8a565b9150613fe183612f8a565b925082613ff157613ff0613f9c565b5b828204905092915050565b6000604082019050614011600083018561309e565b61401e60208301846130ad565b9392505050565b600060c08301600083015161403d60008601826133c0565b50602083015161405060208601826133c0565b5060408301518482036040860152614068828261342f565b91505060608301518482036060860152614082828261342f565b915050608083015161409760808601826133fb565b5060a08301516140aa60a086018261348d565b508091505092915050565b600060208201905081810360008301526140cf8184614025565b905092915050565b7f4172726179732073697a65206d757374206d6174636800000000000000000000600082015250565b600061410d6016836137db565b9150614118826140d7565b602082019050919050565b6000602082019050818103600083015261413c81614100565b9050919050565b600082825260208201905092915050565b600080fd5b82818337505050565b600061416e8385614143565b93507f07ffffffffffffffffffffffffffffffffffffffffffffffffffffffffffffff8311156141a1576141a0614154565b5b6020830292506141b2838584614159565b82840190509392505050565b60006060820190506141d3600083018861309e565b81810360208301526141e6818688614162565b905081810360408301526141fb818486614162565b90509695505050505050565b60006060820190508181036000830152614222818789614162565b90508181036020830152614237818587614162565b905061424660408301846130ad565b969550505050505056fea2646970667358221220e2fc707dc8739a001ab2d996db7c1d2859ae4d36053bfb3551c29e375d71c8d664736f6c634300081e0033",
  "linkReferences": {},
  "deployedLinkReferences": {}
}